{
  "contractName": "DeflatingBEP20",
  "abi": [
    {
      "inputs": [
        {
          "internalType": "uint256",
          "name": "_totalSupply",
          "type": "uint256"
        }
      ],
      "stateMutability": "nonpayable",
      "type": "constructor"
    },
    {
      "anonymous": false,
      "inputs": [
        {
          "indexed": true,
          "internalType": "address",
          "name": "owner",
          "type": "address"
        },
        {
          "indexed": true,
          "internalType": "address",
          "name": "spender",
          "type": "address"
        },
        {
          "indexed": false,
          "internalType": "uint256",
          "name": "value",
          "type": "uint256"
        }
      ],
      "name": "Approval",
      "type": "event"
    },
    {
      "anonymous": false,
      "inputs": [
        {
          "indexed": true,
          "internalType": "address",
          "name": "from",
          "type": "address"
        },
        {
          "indexed": true,
          "internalType": "address",
          "name": "to",
          "type": "address"
        },
        {
          "indexed": false,
          "internalType": "uint256",
          "name": "value",
          "type": "uint256"
        }
      ],
      "name": "Transfer",
      "type": "event"
    },
    {
      "inputs": [],
      "name": "DOMAIN_SEPARATOR",
      "outputs": [
        {
          "internalType": "bytes32",
          "name": "",
          "type": "bytes32"
        }
      ],
      "stateMutability": "view",
      "type": "function"
    },
    {
      "inputs": [],
      "name": "MAX",
      "outputs": [
        {
          "internalType": "uint256",
          "name": "",
          "type": "uint256"
        }
      ],
      "stateMutability": "view",
      "type": "function"
    },
    {
      "inputs": [],
      "name": "PERMIT_TYPEHASH",
      "outputs": [
        {
          "internalType": "bytes32",
          "name": "",
          "type": "bytes32"
        }
      ],
      "stateMutability": "view",
      "type": "function"
    },
    {
      "inputs": [
        {
          "internalType": "address",
          "name": "",
          "type": "address"
        },
        {
          "internalType": "address",
          "name": "",
          "type": "address"
        }
      ],
      "name": "allowance",
      "outputs": [
        {
          "internalType": "uint256",
          "name": "",
          "type": "uint256"
        }
      ],
      "stateMutability": "view",
      "type": "function"
    },
    {
      "inputs": [
        {
          "internalType": "address",
          "name": "",
          "type": "address"
        }
      ],
      "name": "balanceOf",
      "outputs": [
        {
          "internalType": "uint256",
          "name": "",
          "type": "uint256"
        }
      ],
      "stateMutability": "view",
      "type": "function"
    },
    {
      "inputs": [],
      "name": "decimals",
      "outputs": [
        {
          "internalType": "uint8",
          "name": "",
          "type": "uint8"
        }
      ],
      "stateMutability": "view",
      "type": "function"
    },
    {
      "inputs": [],
      "name": "name",
      "outputs": [
        {
          "internalType": "string",
          "name": "",
          "type": "string"
        }
      ],
      "stateMutability": "view",
      "type": "function"
    },
    {
      "inputs": [
        {
          "internalType": "address",
          "name": "",
          "type": "address"
        }
      ],
      "name": "nonces",
      "outputs": [
        {
          "internalType": "uint256",
          "name": "",
          "type": "uint256"
        }
      ],
      "stateMutability": "view",
      "type": "function"
    },
    {
      "inputs": [],
      "name": "symbol",
      "outputs": [
        {
          "internalType": "string",
          "name": "",
          "type": "string"
        }
      ],
      "stateMutability": "view",
      "type": "function"
    },
    {
      "inputs": [],
      "name": "totalSupply",
      "outputs": [
        {
          "internalType": "uint256",
          "name": "",
          "type": "uint256"
        }
      ],
      "stateMutability": "view",
      "type": "function"
    },
    {
      "inputs": [
        {
          "internalType": "address",
          "name": "spender",
          "type": "address"
        },
        {
          "internalType": "uint256",
          "name": "value",
          "type": "uint256"
        }
      ],
      "name": "approve",
      "outputs": [
        {
          "internalType": "bool",
          "name": "",
          "type": "bool"
        }
      ],
      "stateMutability": "nonpayable",
      "type": "function"
    },
    {
      "inputs": [
        {
          "internalType": "address",
          "name": "to",
          "type": "address"
        },
        {
          "internalType": "uint256",
          "name": "value",
          "type": "uint256"
        }
      ],
      "name": "transfer",
      "outputs": [
        {
          "internalType": "bool",
          "name": "",
          "type": "bool"
        }
      ],
      "stateMutability": "nonpayable",
      "type": "function"
    },
    {
      "inputs": [
        {
          "internalType": "address",
          "name": "from",
          "type": "address"
        },
        {
          "internalType": "address",
          "name": "to",
          "type": "address"
        },
        {
          "internalType": "uint256",
          "name": "value",
          "type": "uint256"
        }
      ],
      "name": "transferFrom",
      "outputs": [
        {
          "internalType": "bool",
          "name": "",
          "type": "bool"
        }
      ],
      "stateMutability": "nonpayable",
      "type": "function"
    },
    {
      "inputs": [
        {
          "internalType": "address",
          "name": "owner",
          "type": "address"
        },
        {
          "internalType": "address",
          "name": "spender",
          "type": "address"
        },
        {
          "internalType": "uint256",
          "name": "value",
          "type": "uint256"
        },
        {
          "internalType": "uint256",
          "name": "deadline",
          "type": "uint256"
        },
        {
          "internalType": "uint8",
          "name": "v",
          "type": "uint8"
        },
        {
          "internalType": "bytes32",
          "name": "r",
          "type": "bytes32"
        },
        {
          "internalType": "bytes32",
          "name": "s",
          "type": "bytes32"
        }
      ],
      "name": "permit",
      "outputs": [],
      "stateMutability": "nonpayable",
      "type": "function"
    }
  ],
  "bytecode": "0x608060405234801561001057600080fd5b50604051610d3b380380610d3b83398101604081905261002f91610237565b604080518082018252601481527f4465666c6174696e67205465737420546f6b656e0000000000000000000000006020918201528151808301835260018152603160f81b9082015281517f8b73c3c69bb8fe3d512ecc4cf759cc79239f7b179b0ffacaa9a75d522b39400f818301527ff89e31130e6fd3d87d62a1ac2770fba58bed5a06c47ce70fa97f8218b1b2743a818401527fc89efdaa54c0f20c7adf612882df0950f5a951637e0307cdcb4c672f298b8bc6606082015246608082018190523060a0808401919091528451808403909101815260c0909201909352805191012060035561011f3383610126565b5050610273565b61013f816000546101cd60201b6105c21790919060201c565b60009081556001600160a01b0383168152600160209081526040909120546101709183906105c26101cd821b17901c565b6001600160a01b0383166000818152600160205260408082209390935591519091907fddf252ad1be2c89b69c2b068fc378daa952ba7f163c4a11628f55a4df523b3ef906101c19085815260200190565b60405180910390a35050565b6000806101da838561024f565b9050838110156102305760405162461bcd60e51b815260206004820152601b60248201527f536166654d6174683a206164646974696f6e206f766572666c6f770000000000604482015260640160405180910390fd5b9392505050565b600060208284031215610248578081fd5b5051919050565b6000821982111561026e57634e487b7160e01b81526011600452602481fd5b500190565b610ab9806102826000396000f3fe608060405234801561001057600080fd5b50600436106100ea5760003560e01c806370a082311161008c578063a9059cbb11610066578063a9059cbb14610254578063d49d518114610267578063d505accf1461027e578063dd62ed3e1461029357600080fd5b806370a08231146101d85780637ecebe00146101f857806395d89b411461021857600080fd5b806323b872dd116100c857806323b872dd1461017b57806330adf81f1461018e578063313ce567146101b55780633644e515146101cf57600080fd5b806306fdde03146100ef578063095ea7b31461014157806318160ddd14610164575b600080fd5b61012b6040518060400160405280601481526020017f4465666c6174696e67205465737420546f6b656e00000000000000000000000081525081565b60405161013891906109b0565b60405180910390f35b61015461014f366004610987565b6102be565b6040519015158152602001610138565b61016d60005481565b604051908152602001610138565b6101546101893660046108db565b6102d4565b61016d7f6e71edae12b1b97f4d1f60370fef10105fa2faae0126114a169c64845d6126c981565b6101bd601281565b60405160ff9091168152602001610138565b61016d60035481565b61016d6101e636600461088f565b60016020526000908152604090205481565b61016d61020636600461088f565b60046020526000908152604090205481565b61012b6040518060400160405280600381526020017f445454000000000000000000000000000000000000000000000000000000000081525081565b610154610262366004610987565b610376565b61016d6fffffffffffffffffffffffffffffffff81565b61029161028c366004610916565b610383565b005b61016d6102a13660046108a9565b600260209081526000928352604080842090915290825290205481565b60006102cb338484610628565b50600192915050565b6001600160a01b03831660009081526002602090815260408083203384529091528120546fffffffffffffffffffffffffffffffff14610361576001600160a01b038416600090815260026020908152604080832033845290915290205461033c9083610689565b6001600160a01b03851660009081526002602090815260408083203384529091529020555b61036c8484846106cb565b5060019392505050565b60006102cb3384846106cb565b428410156103d85760405162461bcd60e51b815260206004820152600760248201527f455850495245440000000000000000000000000000000000000000000000000060448201526064015b60405180910390fd5b6003546001600160a01b038816600090815260046020526040812080549192917f6e71edae12b1b97f4d1f60370fef10105fa2faae0126114a169c64845d6126c9918b918b918b91908761042b83610a52565b909155506040805160208101969096526001600160a01b0394851690860152929091166060840152608083015260a082015260c0810187905260e001604051602081830303815290604052805190602001206040516020016104bf9291907f190100000000000000000000000000000000000000000000000000000000000081526002810192909252602282015260420190565b60408051601f198184030181528282528051602091820120600080855291840180845281905260ff88169284019290925260608301869052608083018590529092509060019060a0016020604051602081039080840390855afa15801561052a573d6000803e3d6000fd5b5050604051601f1901519150506001600160a01b038116158015906105605750886001600160a01b0316816001600160a01b0316145b6105ac5760405162461bcd60e51b815260206004820152601160248201527f494e56414c49445f5349474e415455524500000000000000000000000000000060448201526064016103cf565b6105b7898989610628565b505050505050505050565b6000806105cf8385610a03565b9050838110156106215760405162461bcd60e51b815260206004820152601b60248201527f536166654d6174683a206164646974696f6e206f766572666c6f77000000000060448201526064016103cf565b9392505050565b6001600160a01b0383811660008181526002602090815260408083209487168084529482529182902085905590518481527f8c5be1e5ebec7d5bd14f71427d1e84f3dd0314c0f7b2291e5b200ac8c7c3b925910160405180910390a3505050565b600061062183836040518060400160405280601e81526020017f536166654d6174683a207375627472616374696f6e206f766572666c6f7700008152506107a8565b60006106d8606483610a1b565b90506106e484826107e2565b60006106f08383610689565b6001600160a01b0386166000908152600160205260409020549091506107169082610689565b6001600160a01b03808716600090815260016020526040808220939093559086168152205461074590826105c2565b6001600160a01b0380861660008181526001602052604090819020939093559151908716907fddf252ad1be2c89b69c2b068fc378daa952ba7f163c4a11628f55a4df523b3ef906107999085815260200190565b60405180910390a35050505050565b600081848411156107cc5760405162461bcd60e51b81526004016103cf91906109b0565b5060006107d98486610a3b565b95945050505050565b6001600160a01b0382166000908152600160205260409020546108059082610689565b6001600160a01b0383166000908152600160205260408120919091555461082c9082610689565b60009081556040518281526001600160a01b038416907fddf252ad1be2c89b69c2b068fc378daa952ba7f163c4a11628f55a4df523b3ef9060200160405180910390a35050565b80356001600160a01b038116811461088a57600080fd5b919050565b6000602082840312156108a0578081fd5b61062182610873565b600080604083850312156108bb578081fd5b6108c483610873565b91506108d260208401610873565b90509250929050565b6000806000606084860312156108ef578081fd5b6108f884610873565b925061090660208501610873565b9150604084013590509250925092565b600080600080600080600060e0888a031215610930578283fd5b61093988610873565b965061094760208901610873565b95506040880135945060608801359350608088013560ff8116811461096a578384fd5b9699959850939692959460a0840135945060c09093013592915050565b60008060408385031215610999578182fd5b6109a283610873565b946020939093013593505050565b6000602080835283518082850152825b818110156109dc578581018301518582016040015282016109c0565b818111156109ed5783604083870101525b50601f01601f1916929092016040019392505050565b60008219821115610a1657610a16610a6d565b500190565b600082610a3657634e487b7160e01b81526012600452602481fd5b500490565b600082821015610a4d57610a4d610a6d565b500390565b6000600019821415610a6657610a66610a6d565b5060010190565b634e487b7160e01b600052601160045260246000fdfea2646970667358221220a2a0045c6aa8e3b2d96c60d994dae6886b1eafad5e681b6f08b39a06c65f583364736f6c63430008040033",
  "immutableReferences": {},
  "source": "// SPDX-License-Identifier: GPL-3.0-or-later\r\n\r\npragma solidity ^0.8.4;\r\n\r\nimport '../library/SafeMath.sol';\r\n\r\ncontract DeflatingBEP20 {\r\n    using SafeMath for uint;\r\n\r\n    string public constant name = 'Deflating Test Token';\r\n    string public constant symbol = 'DTT';\r\n    uint8 public constant decimals = 18;\r\n    uint  public totalSupply;\r\n    mapping(address => uint) public balanceOf;\r\n    mapping(address => mapping(address => uint)) public allowance;\r\n\r\n    bytes32 public DOMAIN_SEPARATOR;\r\n    // keccak256(\"Permit(address owner,address spender,uint256 value,uint256 nonce,uint256 deadline)\");\r\n    bytes32 public constant PERMIT_TYPEHASH = 0x6e71edae12b1b97f4d1f60370fef10105fa2faae0126114a169c64845d6126c9;\r\n    mapping(address => uint) public nonces;\r\n    uint256 public constant MAX = type(uint128).max;\r\n\r\n    event Approval(address indexed owner, address indexed spender, uint value);\r\n    event Transfer(address indexed from, address indexed to, uint value);\r\n\r\n    constructor(uint _totalSupply) public {\r\n        uint chainId;\r\n        assembly {\r\n            chainId := chainid()\r\n        }\r\n        DOMAIN_SEPARATOR = keccak256(\r\n            abi.encode(\r\n                keccak256('EIP712Domain(string name,string version,uint256 chainId,address verifyingContract)'),\r\n                keccak256(bytes(name)),\r\n                keccak256(bytes('1')),\r\n                chainId,\r\n                address(this)\r\n            )\r\n        );\r\n        _mint(msg.sender, _totalSupply);\r\n    }\r\n\r\n    function _mint(address to, uint value) internal {\r\n        totalSupply = totalSupply.add(value);\r\n        balanceOf[to] = balanceOf[to].add(value);\r\n        emit Transfer(address(0), to, value);\r\n    }\r\n\r\n    function _burn(address from, uint value) internal {\r\n        balanceOf[from] = balanceOf[from].sub(value);\r\n        totalSupply = totalSupply.sub(value);\r\n        emit Transfer(from, address(0), value);\r\n    }\r\n\r\n    function _approve(address owner, address spender, uint value) private {\r\n        allowance[owner][spender] = value;\r\n        emit Approval(owner, spender, value);\r\n    }\r\n\r\n    function _transfer(address from, address to, uint value) private {\r\n        uint burnAmount = value / 100;\r\n        _burn(from, burnAmount);\r\n        uint transferAmount = value.sub(burnAmount);\r\n        balanceOf[from] = balanceOf[from].sub(transferAmount);\r\n        balanceOf[to] = balanceOf[to].add(transferAmount);\r\n        emit Transfer(from, to, transferAmount);\r\n    }\r\n\r\n    function approve(address spender, uint value) external returns (bool) {\r\n        _approve(msg.sender, spender, value);\r\n        return true;\r\n    }\r\n\r\n    function transfer(address to, uint value) external returns (bool) {\r\n        _transfer(msg.sender, to, value);\r\n        return true;\r\n    }\r\n\r\n    function transferFrom(address from, address to, uint value) external returns (bool) {\r\n        if (allowance[from][msg.sender] != MAX) {\r\n            allowance[from][msg.sender] = allowance[from][msg.sender].sub(value);\r\n        }\r\n        _transfer(from, to, value);\r\n        return true;\r\n    }\r\n   \r\n\r\n    function permit(address owner, address spender, uint value, uint deadline, uint8 v, bytes32 r, bytes32 s) external {\r\n        require(deadline >= block.timestamp, 'EXPIRED');\r\n        bytes32 digest = keccak256(\r\n            abi.encodePacked(\r\n                '\\x19\\x01',\r\n                DOMAIN_SEPARATOR,\r\n                keccak256(abi.encode(PERMIT_TYPEHASH, owner, spender, value, nonces[owner]++, deadline))\r\n            )\r\n        );\r\n        address recoveredAddress = ecrecover(digest, v, r, s);\r\n        require(recoveredAddress != address(0) && recoveredAddress == owner, 'INVALID_SIGNATURE');\r\n        _approve(owner, spender, value);\r\n    }\r\n}\r\n",
  "sourcePath": "C:/Users/kolam/Desktop/safeSDB/safedepositbox-smartcontracts/contracts/interface/DeflatingBEP20.sol",
  "compiler": {
    "name": "solc",
    "version": "0.8.4+commit.c7e474f2.Emscripten.clang"
  },
  "schemaVersion": "3.4.1",
  "updatedAt": "2021-07-21T08:49:56.535Z",
  "devdoc": {
    "kind": "dev",
    "methods": {},
    "version": 1
  },
  "userdoc": {
    "kind": "user",
    "methods": {},
    "version": 1
  }
}