{
  "contractName": "MasterChef",
  "abi": [
    {
      "inputs": [
        {
          "internalType": "contract SDBToken",
          "name": "_sdb",
          "type": "address"
        },
        {
          "internalType": "address",
          "name": "_devaddr",
          "type": "address"
        },
        {
          "internalType": "uint256",
          "name": "_sdbPerBlock",
          "type": "uint256"
        },
        {
          "internalType": "uint256",
          "name": "_startBlock",
          "type": "uint256"
        },
        {
          "internalType": "uint256",
          "name": "_bonusEndBlock",
          "type": "uint256"
        }
      ],
      "stateMutability": "nonpayable",
      "type": "constructor"
    },
    {
      "anonymous": false,
      "inputs": [
        {
          "indexed": true,
          "internalType": "address",
          "name": "user",
          "type": "address"
        },
        {
          "indexed": true,
          "internalType": "uint256",
          "name": "pid",
          "type": "uint256"
        },
        {
          "indexed": false,
          "internalType": "uint256",
          "name": "amount",
          "type": "uint256"
        }
      ],
      "name": "Deposit",
      "type": "event"
    },
    {
      "anonymous": false,
      "inputs": [
        {
          "indexed": true,
          "internalType": "address",
          "name": "user",
          "type": "address"
        },
        {
          "indexed": true,
          "internalType": "uint256",
          "name": "pid",
          "type": "uint256"
        },
        {
          "indexed": false,
          "internalType": "uint256",
          "name": "amount",
          "type": "uint256"
        }
      ],
      "name": "EmergencyWithdraw",
      "type": "event"
    },
    {
      "anonymous": false,
      "inputs": [
        {
          "indexed": true,
          "internalType": "address",
          "name": "previousOwner",
          "type": "address"
        },
        {
          "indexed": true,
          "internalType": "address",
          "name": "newOwner",
          "type": "address"
        }
      ],
      "name": "OwnershipTransferred",
      "type": "event"
    },
    {
      "anonymous": false,
      "inputs": [
        {
          "indexed": true,
          "internalType": "address",
          "name": "user",
          "type": "address"
        },
        {
          "indexed": true,
          "internalType": "uint256",
          "name": "pid",
          "type": "uint256"
        },
        {
          "indexed": false,
          "internalType": "uint256",
          "name": "amount",
          "type": "uint256"
        }
      ],
      "name": "Withdraw",
      "type": "event"
    },
    {
      "inputs": [],
      "name": "BONUS_MULTIPLIER",
      "outputs": [
        {
          "internalType": "uint256",
          "name": "",
          "type": "uint256"
        }
      ],
      "stateMutability": "view",
      "type": "function"
    },
    {
      "inputs": [],
      "name": "bonusEndBlock",
      "outputs": [
        {
          "internalType": "uint256",
          "name": "",
          "type": "uint256"
        }
      ],
      "stateMutability": "view",
      "type": "function"
    },
    {
      "inputs": [],
      "name": "devaddr",
      "outputs": [
        {
          "internalType": "address",
          "name": "",
          "type": "address"
        }
      ],
      "stateMutability": "view",
      "type": "function"
    },
    {
      "inputs": [],
      "name": "migrator",
      "outputs": [
        {
          "internalType": "contract IMigratorChef",
          "name": "",
          "type": "address"
        }
      ],
      "stateMutability": "view",
      "type": "function"
    },
    {
      "inputs": [],
      "name": "owner",
      "outputs": [
        {
          "internalType": "address",
          "name": "",
          "type": "address"
        }
      ],
      "stateMutability": "view",
      "type": "function"
    },
    {
      "inputs": [
        {
          "internalType": "uint256",
          "name": "",
          "type": "uint256"
        }
      ],
      "name": "poolInfo",
      "outputs": [
        {
          "internalType": "contract IBEP20",
          "name": "lpToken",
          "type": "address"
        },
        {
          "internalType": "uint256",
          "name": "allocPoint",
          "type": "uint256"
        },
        {
          "internalType": "uint256",
          "name": "lastRewardBlock",
          "type": "uint256"
        },
        {
          "internalType": "uint256",
          "name": "accSDBPerShare",
          "type": "uint256"
        }
      ],
      "stateMutability": "view",
      "type": "function"
    },
    {
      "inputs": [],
      "name": "renounceOwnership",
      "outputs": [],
      "stateMutability": "nonpayable",
      "type": "function"
    },
    {
      "inputs": [],
      "name": "sdb",
      "outputs": [
        {
          "internalType": "contract SDBToken",
          "name": "",
          "type": "address"
        }
      ],
      "stateMutability": "view",
      "type": "function"
    },
    {
      "inputs": [],
      "name": "sdbPerBlock",
      "outputs": [
        {
          "internalType": "uint256",
          "name": "",
          "type": "uint256"
        }
      ],
      "stateMutability": "view",
      "type": "function"
    },
    {
      "inputs": [],
      "name": "startBlock",
      "outputs": [
        {
          "internalType": "uint256",
          "name": "",
          "type": "uint256"
        }
      ],
      "stateMutability": "view",
      "type": "function"
    },
    {
      "inputs": [],
      "name": "totalAllocPoint",
      "outputs": [
        {
          "internalType": "uint256",
          "name": "",
          "type": "uint256"
        }
      ],
      "stateMutability": "view",
      "type": "function"
    },
    {
      "inputs": [
        {
          "internalType": "address",
          "name": "newOwner",
          "type": "address"
        }
      ],
      "name": "transferOwnership",
      "outputs": [],
      "stateMutability": "nonpayable",
      "type": "function"
    },
    {
      "inputs": [
        {
          "internalType": "uint256",
          "name": "",
          "type": "uint256"
        },
        {
          "internalType": "address",
          "name": "",
          "type": "address"
        }
      ],
      "name": "userInfo",
      "outputs": [
        {
          "internalType": "uint256",
          "name": "amount",
          "type": "uint256"
        },
        {
          "internalType": "uint256",
          "name": "rewardDebt",
          "type": "uint256"
        }
      ],
      "stateMutability": "view",
      "type": "function"
    },
    {
      "inputs": [
        {
          "internalType": "uint256",
          "name": "multiplierNumber",
          "type": "uint256"
        }
      ],
      "name": "updateMultiplier",
      "outputs": [],
      "stateMutability": "nonpayable",
      "type": "function"
    },
    {
      "inputs": [],
      "name": "poolLength",
      "outputs": [
        {
          "internalType": "uint256",
          "name": "",
          "type": "uint256"
        }
      ],
      "stateMutability": "view",
      "type": "function"
    },
    {
      "inputs": [
        {
          "internalType": "uint256",
          "name": "_allocPoint",
          "type": "uint256"
        },
        {
          "internalType": "contract IBEP20",
          "name": "_lpToken",
          "type": "address"
        },
        {
          "internalType": "bool",
          "name": "_withUpdate",
          "type": "bool"
        }
      ],
      "name": "add",
      "outputs": [],
      "stateMutability": "nonpayable",
      "type": "function"
    },
    {
      "inputs": [
        {
          "internalType": "uint256",
          "name": "_pid",
          "type": "uint256"
        },
        {
          "internalType": "uint256",
          "name": "_allocPoint",
          "type": "uint256"
        },
        {
          "internalType": "bool",
          "name": "_withUpdate",
          "type": "bool"
        }
      ],
      "name": "set",
      "outputs": [],
      "stateMutability": "nonpayable",
      "type": "function"
    },
    {
      "inputs": [
        {
          "internalType": "contract IMigratorChef",
          "name": "_migrator",
          "type": "address"
        }
      ],
      "name": "setMigrator",
      "outputs": [],
      "stateMutability": "nonpayable",
      "type": "function"
    },
    {
      "inputs": [
        {
          "internalType": "uint256",
          "name": "_pid",
          "type": "uint256"
        }
      ],
      "name": "migrate",
      "outputs": [],
      "stateMutability": "nonpayable",
      "type": "function"
    },
    {
      "inputs": [
        {
          "internalType": "uint256",
          "name": "_from",
          "type": "uint256"
        },
        {
          "internalType": "uint256",
          "name": "_to",
          "type": "uint256"
        }
      ],
      "name": "getMultiplier",
      "outputs": [
        {
          "internalType": "uint256",
          "name": "",
          "type": "uint256"
        }
      ],
      "stateMutability": "view",
      "type": "function"
    },
    {
      "inputs": [
        {
          "internalType": "uint256",
          "name": "_pid",
          "type": "uint256"
        },
        {
          "internalType": "address",
          "name": "_user",
          "type": "address"
        }
      ],
      "name": "pendingSDB",
      "outputs": [
        {
          "internalType": "uint256",
          "name": "",
          "type": "uint256"
        }
      ],
      "stateMutability": "view",
      "type": "function"
    },
    {
      "inputs": [],
      "name": "massUpdatePools",
      "outputs": [],
      "stateMutability": "nonpayable",
      "type": "function"
    },
    {
      "inputs": [
        {
          "internalType": "uint256",
          "name": "_pid",
          "type": "uint256"
        }
      ],
      "name": "updatePool",
      "outputs": [],
      "stateMutability": "nonpayable",
      "type": "function"
    },
    {
      "inputs": [
        {
          "internalType": "uint256",
          "name": "_pid",
          "type": "uint256"
        },
        {
          "internalType": "uint256",
          "name": "_amount",
          "type": "uint256"
        }
      ],
      "name": "deposit",
      "outputs": [],
      "stateMutability": "nonpayable",
      "type": "function"
    },
    {
      "inputs": [
        {
          "internalType": "uint256",
          "name": "_pid",
          "type": "uint256"
        },
        {
          "internalType": "uint256",
          "name": "_amount",
          "type": "uint256"
        }
      ],
      "name": "withdraw",
      "outputs": [],
      "stateMutability": "nonpayable",
      "type": "function"
    },
    {
      "inputs": [
        {
          "internalType": "uint256",
          "name": "_amount",
          "type": "uint256"
        }
      ],
      "name": "enterStaking",
      "outputs": [],
      "stateMutability": "nonpayable",
      "type": "function"
    },
    {
      "inputs": [
        {
          "internalType": "uint256",
          "name": "_amount",
          "type": "uint256"
        }
      ],
      "name": "leaveStaking",
      "outputs": [],
      "stateMutability": "nonpayable",
      "type": "function"
    },
    {
      "inputs": [
        {
          "internalType": "uint256",
          "name": "_pid",
          "type": "uint256"
        }
      ],
      "name": "emergencyWithdraw",
      "outputs": [],
      "stateMutability": "nonpayable",
      "type": "function"
    },
    {
      "inputs": [
        {
          "internalType": "address",
          "name": "_devaddr",
          "type": "address"
        }
      ],
      "name": "dev",
      "outputs": [],
      "stateMutability": "nonpayable",
      "type": "function"
    }
  ],
  "bytecode": "0x6080604052600160055560006009553480156200001b57600080fd5b5060405162002523380380620025238339810160408190526200003e91620001a5565b600080546001600160a01b031916339081178255604051909182917f8be0079c531659141344cd1fd0a4f28419497f9722a3daafe3b4186f6b6457e0908290a350600180546001600160a01b03199081166001600160a01b03978816908117835560028054831697891697909717909655600394909455600a8390556004918255604080516080810182529586526103e86020870181815291870194855260006060880181815260078054958601815590915296517fa66cc928b5edb82af9bd49922954155ab7b0942694bea4ce44661d9a8736c6889390940292830180549096169390971692909217909355517fa66cc928b5edb82af9bd49922954155ab7b0942694bea4ce44661d9a8736c689830155517fa66cc928b5edb82af9bd49922954155ab7b0942694bea4ce44661d9a8736c68a82015590517fa66cc928b5edb82af9bd49922954155ab7b0942694bea4ce44661d9a8736c68b9091015560095562000215565b600080600080600060a08688031215620001bd578081fd5b8551620001ca81620001fc565b6020870151909550620001dd81620001fc565b6040870151606088015160809098015196999198509695945092505050565b6001600160a01b03811681146200021257600080fd5b50565b6122fe80620002256000396000f3fe608060405234801561001057600080fd5b50600436106101cf5760003560e01c8063630b5ba1116101045780638dbb1e3a116100a2578063e2bbb15811610071578063e2bbb158146103e1578063e891cc4d146103f4578063f2fde38b14610407578063f523d3ba1461041a57600080fd5b80638dbb1e3a1461036b57806393f1a40b1461037e57806399ed43e7146103c5578063d49e77cd146103ce57600080fd5b80637cd07e47116100de5780637cd07e47146103135780638aa285501461033e5780638d88a90e146103475780638da5cb5b1461035a57600080fd5b8063630b5ba1146102f057806364482f79146102f8578063715018a61461030b57600080fd5b806341441d3b1161017157806348cd4cb11161014b57806348cd4cb1146102ae57806351eb05a6146102b75780635312ea8e146102ca5780635ffe6146146102dd57600080fd5b806341441d3b14610275578063441a3e7014610288578063454b06081461029b57600080fd5b806317caf6f1116101ad57806317caf6f11461023d5780631aed6553146102465780631eaaa0451461024f57806323cf31181461026257600080fd5b8063081e3eda146101d45780631058d281146101eb5780631526fe2714610200575b600080fd5b6007545b6040519081526020015b60405180910390f35b6101fe6101f936600461209a565b61042d565b005b61021361020e36600461209a565b6105c6565b604080516001600160a01b03909516855260208501939093529183015260608201526080016101e2565b6101d860095481565b6101d860045481565b6101fe61025d3660046120f9565b61060a565b6101fe610270366004612046565b610792565b6101fe61028336600461209a565b61080e565b6101fe61029636600461213a565b61094b565b6101fe6102a936600461209a565b610b05565b6101d8600a5481565b6101fe6102c536600461209a565b610dae565b6101fe6102d836600461209a565b611013565b6101fe6102eb36600461209a565b6110c3565b6101fe611122565b6101fe61030636600461215b565b61114d565b6101fe611254565b600654610326906001600160a01b031681565b6040516001600160a01b0390911681526020016101e2565b6101d860055481565b6101fe610355366004612046565b6112f8565b6000546001600160a01b0316610326565b6101d861037936600461213a565b611374565b6103b061038c3660046120ca565b60086020908152600092835260408084209091529082529020805460019091015482565b604080519283526020830191909152016101e2565b6101d860035481565b600254610326906001600160a01b031681565b6101fe6103ef36600461213a565b611391565b6101d86104023660046120ca565b6114fb565b6101fe610415366004612046565b611675565b600154610326906001600160a01b031681565b6000600760008154811061045157634e487b7160e01b600052603260045260246000fd5b600091825260208083203384527f5eff886ea0ce6ca488a3d6e336d6c0f75f46d19b42c06ce5ee98e42c96d256c790915260409092208054600490920290920192508311156104e75760405162461bcd60e51b815260206004820152601260248201527f77697468647261773a206e6f7420676f6f64000000000000000000000000000060448201526064015b60405180910390fd5b6104f16000610dae565b600061052b826001015461052564e8d4a5100061051f876003015487600001546117a690919063ffffffff16565b90611841565b90611883565b9050801561053d5761053d33826118c5565b831561056757815461054f9085611883565b82558254610567906001600160a01b03163386611a10565b600383015482546105829164e8d4a510009161051f916117a6565b600183015560405184815260009033907ff279e6a1f5e320cca91135676d9cb6e44ca8a08c0b88342bcdb1144f6511b568906020015b60405180910390a350505050565b600781815481106105d657600080fd5b600091825260209091206004909102018054600182015460028301546003909301546001600160a01b039092169350919084565b6000546001600160a01b031633146106645760405162461bcd60e51b815260206004820181905260248201527f4f776e61626c653a2063616c6c6572206973206e6f7420746865206f776e657260448201526064016104de565b801561067257610672611122565b6000600a54431161068557600a54610687565b435b6009549091506106979085611aa0565b600955604080516080810182526001600160a01b0385811682526020820187815292820184815260006060840181815260078054600181018255925293517fa66cc928b5edb82af9bd49922954155ab7b0942694bea4ce44661d9a8736c688600490920291820180546001600160a01b031916919094161790925592517fa66cc928b5edb82af9bd49922954155ab7b0942694bea4ce44661d9a8736c68982015591517fa66cc928b5edb82af9bd49922954155ab7b0942694bea4ce44661d9a8736c68a830155517fa66cc928b5edb82af9bd49922954155ab7b0942694bea4ce44661d9a8736c68b9091015561078c611aff565b50505050565b6000546001600160a01b031633146107ec5760405162461bcd60e51b815260206004820181905260248201527f4f776e61626c653a2063616c6c6572206973206e6f7420746865206f776e657260448201526064016104de565b600680546001600160a01b0319166001600160a01b0392909216919091179055565b6000600760008154811061083257634e487b7160e01b600052603260045260246000fd5b600091825260208083203384527f5eff886ea0ce6ca488a3d6e336d6c0f75f46d19b42c06ce5ee98e42c96d256c79091526040832060049092020192509061087990610dae565b8054156108c25760006108ae826001015461052564e8d4a5100061051f876003015487600001546117a690919063ffffffff16565b905080156108c0576108c033826118c5565b505b82156108ee5781546108df906001600160a01b0316333086611c08565b80546108eb9084611aa0565b81555b600382015481546109099164e8d4a510009161051f916117a6565b600182015560405183815260009033907f90890809c654f11d6e72a28fa60149770a0d11ec6c92319d6ceb2bb0a4ea1a159060200160405180910390a3505050565b816109985760405162461bcd60e51b815260206004820152601960248201527f77697468647261772053444220627920756e7374616b696e670000000000000060448201526064016104de565b6000600783815481106109bb57634e487b7160e01b600052603260045260246000fd5b600091825260208083208684526008825260408085203386529092529220805460049092029092019250831115610a345760405162461bcd60e51b815260206004820152601260248201527f77697468647261773a206e6f7420676f6f64000000000000000000000000000060448201526064016104de565b610a3d84610dae565b6000610a6b826001015461052564e8d4a5100061051f876003015487600001546117a690919063ffffffff16565b90508015610a7d57610a7d33826118c5565b8315610aa7578154610a8f9085611883565b82558254610aa7906001600160a01b03163386611a10565b60038301548254610ac29164e8d4a510009161051f916117a6565b6001830155604051848152859033907ff279e6a1f5e320cca91135676d9cb6e44ca8a08c0b88342bcdb1144f6511b5689060200160405180910390a35050505050565b6006546001600160a01b0316610b5d5760405162461bcd60e51b815260206004820152601460248201527f6d6967726174653a206e6f206d69677261746f7200000000000000000000000060448201526064016104de565b600060078281548110610b8057634e487b7160e01b600052603260045260246000fd5b60009182526020822060049182020180546040516370a0823160e01b815230938101939093529093506001600160a01b0316919082906370a082319060240160206040518083038186803b158015610bd757600080fd5b505afa158015610beb573d6000803e3d6000fd5b505050506040513d601f19601f82011682018060405250810190610c0f91906120b2565b600654909150610c2c906001600160a01b03848116911683611c59565b6006546040517fce5494bb0000000000000000000000000000000000000000000000000000000081526001600160a01b038481166004830152600092169063ce5494bb90602401602060405180830381600087803b158015610c8d57600080fd5b505af1158015610ca1573d6000803e3d6000fd5b505050506040513d601f19601f82011682018060405250810190610cc5919061207e565b6040516370a0823160e01b81523060048201529091506001600160a01b038216906370a082319060240160206040518083038186803b158015610d0757600080fd5b505afa158015610d1b573d6000803e3d6000fd5b505050506040513d601f19601f82011682018060405250810190610d3f91906120b2565b8214610d8d5760405162461bcd60e51b815260206004820152600c60248201527f6d6967726174653a20626164000000000000000000000000000000000000000060448201526064016104de565b83546001600160a01b0319166001600160a01b039190911617909255505050565b600060078281548110610dd157634e487b7160e01b600052603260045260246000fd5b9060005260206000209060040201905080600201544311610df0575050565b80546040516370a0823160e01b81523060048201526000916001600160a01b0316906370a082319060240160206040518083038186803b158015610e3357600080fd5b505afa158015610e47573d6000803e3d6000fd5b505050506040513d601f19601f82011682018060405250810190610e6b91906120b2565b905080610e7d57504360029091015550565b6000610e8d836002015443611374565b90506000610eba60095461051f8660010154610eb4600354876117a690919063ffffffff16565b906117a6565b6001546002549192506001600160a01b03908116916340c10f199116610ee184600a611841565b6040517fffffffff0000000000000000000000000000000000000000000000000000000060e085901b1681526001600160a01b0390921660048301526024820152604401600060405180830381600087803b158015610f3f57600080fd5b505af1158015610f53573d6000803e3d6000fd5b50506001546040517f40c10f19000000000000000000000000000000000000000000000000000000008152306004820152602481018590526001600160a01b0390911692506340c10f199150604401600060405180830381600087803b158015610fbc57600080fd5b505af1158015610fd0573d6000803e3d6000fd5b50505050610ffe610ff38461051f64e8d4a51000856117a690919063ffffffff16565b600386015490611aa0565b60038501555050436002909201919091555050565b60006007828154811061103657634e487b7160e01b600052603260045260246000fd5b6000918252602080832085845260088252604080852033808752935290932080546004909302909301805490945061107b926001600160a01b03919091169190611a10565b8054604051908152839033907fbb757047c2b5f3974fe26b7c10f732e7bce710b0952a71082702781e62ae05959060200160405180910390a360008082556001909101555050565b6000546001600160a01b0316331461111d5760405162461bcd60e51b815260206004820181905260248201527f4f776e61626c653a2063616c6c6572206973206e6f7420746865206f776e657260448201526064016104de565b600555565b60075460005b818110156111495761113981610dae565b61114281612271565b9050611128565b5050565b6000546001600160a01b031633146111a75760405162461bcd60e51b815260206004820181905260248201527f4f776e61626c653a2063616c6c6572206973206e6f7420746865206f776e657260448201526064016104de565b80156111b5576111b5611122565b6000600784815481106111d857634e487b7160e01b600052603260045260246000fd5b9060005260206000209060040201600101549050826007858154811061120e57634e487b7160e01b600052603260045260246000fd5b90600052602060002090600402016001018190555082811461078c57611249836112438360095461188390919063ffffffff16565b90611aa0565b60095561078c611aff565b6000546001600160a01b031633146112ae5760405162461bcd60e51b815260206004820181905260248201527f4f776e61626c653a2063616c6c6572206973206e6f7420746865206f776e657260448201526064016104de565b600080546040516001600160a01b03909116907f8be0079c531659141344cd1fd0a4f28419497f9722a3daafe3b4186f6b6457e0908390a3600080546001600160a01b0319169055565b6002546001600160a01b031633146113525760405162461bcd60e51b815260206004820152600960248201527f6465763a207775743f000000000000000000000000000000000000000000000060448201526064016104de565b600280546001600160a01b0319166001600160a01b0392909216919091179055565b60055460009061138890610eb48486611883565b90505b92915050565b816113de5760405162461bcd60e51b815260206004820152601660248201527f6465706f73697420534442206279207374616b696e670000000000000000000060448201526064016104de565b60006007838154811061140157634e487b7160e01b600052603260045260246000fd5b6000918252602080832086845260088252604080852033865290925292206004909102909101915061143284610dae565b80541561147b576000611467826001015461052564e8d4a5100061051f876003015487600001546117a690919063ffffffff16565b905080156114795761147933826118c5565b505b82156114a7578154611498906001600160a01b0316333086611c08565b80546114a49084611aa0565b81555b600382015481546114c29164e8d4a510009161051f916117a6565b6001820155604051838152849033907f90890809c654f11d6e72a28fa60149770a0d11ec6c92319d6ceb2bb0a4ea1a15906020016105b8565b6000806007848154811061151f57634e487b7160e01b600052603260045260246000fd5b600091825260208083208784526008825260408085206001600160a01b038981168752935280852060049485029092016003810154815492516370a0823160e01b8152309681019690965290965091949193919216906370a082319060240160206040518083038186803b15801561159657600080fd5b505afa1580156115aa573d6000803e3d6000fd5b505050506040513d601f19601f820116820180604052508101906115ce91906120b2565b90508360020154431180156115e257508015155b156116425760006115f7856002015443611374565b9050600061161e60095461051f8860010154610eb4600354876117a690919063ffffffff16565b905061163d6116368461051f8464e8d4a510006117a6565b8590611aa0565b935050505b61166a836001015461052564e8d4a5100061051f8688600001546117a690919063ffffffff16565b979650505050505050565b6000546001600160a01b031633146116cf5760405162461bcd60e51b815260206004820181905260248201527f4f776e61626c653a2063616c6c6572206973206e6f7420746865206f776e657260448201526064016104de565b6001600160a01b03811661174b5760405162461bcd60e51b815260206004820152602660248201527f4f776e61626c653a206e6577206f776e657220697320746865207a65726f206160448201527f646472657373000000000000000000000000000000000000000000000000000060648201526084016104de565b600080546040516001600160a01b03808516939216917f8be0079c531659141344cd1fd0a4f28419497f9722a3daafe3b4186f6b6457e091a3600080546001600160a01b0319166001600160a01b0392909216919091179055565b6000826117b55750600061138b565b60006117c1838561220f565b9050826117ce85836121ef565b146113885760405162461bcd60e51b815260206004820152602160248201527f536166654d6174683a206d756c7469706c69636174696f6e206f766572666c6f60448201527f770000000000000000000000000000000000000000000000000000000000000060648201526084016104de565b600061138883836040518060400160405280601a81526020017f536166654d6174683a206469766973696f6e206279207a65726f000000000000815250611db6565b600061138883836040518060400160405280601e81526020017f536166654d6174683a207375627472616374696f6e206f766572666c6f770000815250611ded565b6001546040516370a0823160e01b81523060048201526000916001600160a01b0316906370a082319060240160206040518083038186803b15801561190957600080fd5b505afa15801561191d573d6000803e3d6000fd5b505050506040513d601f19601f8201168201806040525081019061194191906120b2565b9050808211156119d25760015460405163a9059cbb60e01b81526001600160a01b038581166004830152602482018490529091169063a9059cbb906044015b602060405180830381600087803b15801561199a57600080fd5b505af11580156119ae573d6000803e3d6000fd5b505050506040513d601f19601f8201168201806040525081019061078c9190612062565b60015460405163a9059cbb60e01b81526001600160a01b038581166004830152602482018590529091169063a9059cbb90604401611980565b505050565b6040516001600160a01b038316602482015260448101829052611a0b90849063a9059cbb60e01b906064015b60408051601f198184030181529190526020810180517bffffffffffffffffffffffffffffffffffffffffffffffffffffffff167fffffffff0000000000000000000000000000000000000000000000000000000090931692909217909152611e1e565b600080611aad83856121d7565b9050838110156113885760405162461bcd60e51b815260206004820152601b60248201527f536166654d6174683a206164646974696f6e206f766572666c6f77000000000060448201526064016104de565b600754600060015b82811015611b6657611b5460078281548110611b3357634e487b7160e01b600052603260045260246000fd5b90600052602060002090600402016001015483611aa090919063ffffffff16565b9150611b5f81612271565b9050611b07565b50801561114957611b78816003611841565b9050611bc6816112436007600081548110611ba357634e487b7160e01b600052603260045260246000fd5b90600052602060002090600402016001015460095461188390919063ffffffff16565b600981905550806007600081548110611bef57634e487b7160e01b600052603260045260246000fd5b9060005260206000209060040201600101819055505050565b6040516001600160a01b038085166024830152831660448201526064810182905261078c9085907f23b872dd0000000000000000000000000000000000000000000000000000000090608401611a3c565b801580611cfb57506040517fdd62ed3e0000000000000000000000000000000000000000000000000000000081523060048201526001600160a01b03838116602483015284169063dd62ed3e9060440160206040518083038186803b158015611cc157600080fd5b505afa158015611cd5573d6000803e3d6000fd5b505050506040513d601f19601f82011682018060405250810190611cf991906120b2565b155b611d6d5760405162461bcd60e51b815260206004820152603660248201527f5361666542455032303a20617070726f76652066726f6d206e6f6e2d7a65726f60448201527f20746f206e6f6e2d7a65726f20616c6c6f77616e63650000000000000000000060648201526084016104de565b6040516001600160a01b038316602482015260448101829052611a0b9084907f095ea7b30000000000000000000000000000000000000000000000000000000090606401611a3c565b60008183611dd75760405162461bcd60e51b81526004016104de91906121a4565b506000611de484866121ef565b95945050505050565b60008184841115611e115760405162461bcd60e51b81526004016104de91906121a4565b506000611de4848661222e565b6000611e73826040518060400160405280602081526020017f5361666542455032303a206c6f772d6c6576656c2063616c6c206661696c6564815250856001600160a01b0316611f039092919063ffffffff16565b805190915015611a0b5780806020019051810190611e919190612062565b611a0b5760405162461bcd60e51b815260206004820152602a60248201527f5361666542455032303a204245503230206f7065726174696f6e20646964206e60448201527f6f7420737563636565640000000000000000000000000000000000000000000060648201526084016104de565b6060611f128484600085611f1a565b949350505050565b6060611f258561200d565b611f715760405162461bcd60e51b815260206004820152601d60248201527f416464726573733a2063616c6c20746f206e6f6e2d636f6e747261637400000060448201526064016104de565b600080866001600160a01b03168587604051611f8d9190612188565b60006040518083038185875af1925050503d8060008114611fca576040519150601f19603f3d011682016040523d82523d6000602084013e611fcf565b606091505b50915091508115611fe3579150611f129050565b805115611ff35780518082602001fd5b8360405162461bcd60e51b81526004016104de91906121a4565b6000813f7fc5d2460186f7233c927e7db2dcc703c0e500b653ca82273b7bfad8045d85a470818114801590611f12575050151592915050565b600060208284031215612057578081fd5b8135611388816122a2565b600060208284031215612073578081fd5b8151611388816122ba565b60006020828403121561208f578081fd5b8151611388816122a2565b6000602082840312156120ab578081fd5b5035919050565b6000602082840312156120c3578081fd5b5051919050565b600080604083850312156120dc578081fd5b8235915060208301356120ee816122a2565b809150509250929050565b60008060006060848603121561210d578081fd5b83359250602084013561211f816122a2565b9150604084013561212f816122ba565b809150509250925092565b6000806040838503121561214c578182fd5b50508035926020909101359150565b60008060006060848603121561216f578283fd5b8335925060208401359150604084013561212f816122ba565b6000825161219a818460208701612245565b9190910192915050565b60208152600082518060208401526121c3816040850160208701612245565b601f01601f19169190910160400192915050565b600082198211156121ea576121ea61228c565b500190565b60008261220a57634e487b7160e01b81526012600452602481fd5b500490565b60008160001904831182151516156122295761222961228c565b500290565b6000828210156122405761224061228c565b500390565b60005b83811015612260578181015183820152602001612248565b8381111561078c5750506000910152565b60006000198214156122855761228561228c565b5060010190565b634e487b7160e01b600052601160045260246000fd5b6001600160a01b03811681146122b757600080fd5b50565b80151581146122b757600080fdfea264697066735822122099c4ab0e0d627eee1316fe068528a75f924970025512d6f33d6c68b53cc3ce0564736f6c63430008040033",
  "immutableReferences": {},
  "source": "//SPDX-License-Identifier: UNLICENSED\r\npragma solidity ^0.8.4;\r\nimport \"../interface/IMigratorChef.sol\";\r\nimport \"../library/Ownable.sol\";\r\nimport \"../SDBToken.sol\";\r\n\r\n\r\n\r\n// MasterChef is the master of sdb. He can make sdb and he is a fair guy.\r\n//\r\n// Note that it's ownable and the owner wields tremendous power. The ownership\r\n// will be transferred to a governance smart contract once sdb is sufficiently\r\n// distributed and the community can show to govern itself.\r\n//\r\n// Have fun reading it. Hopefully it's bug-free. God bless.\r\ncontract MasterChef is Ownable {\r\n    using SafeMath for uint256;\r\n    using SafeBEP20 for IBEP20;\r\n\r\n    // Info of each user.\r\n    struct UserInfo {\r\n        uint256 amount;     // How many LP tokens the user has provided.\r\n        uint256 rewardDebt; // Reward debt. See explanation below.\r\n        //\r\n        // We do some fancy math here. Basically, any point in time, the amount of sdbs\r\n        // entitled to a user but is pending to be distributed is:\r\n        //\r\n        //   pending reward = (user.amount * pool.accsdbPerShare) - user.rewardDebt\r\n        //\r\n        // Whenever a user deposits or withdraws LP tokens to a pool. Here's what happens:\r\n        //   1. The pool's `accsdbPerShare` (and `lastRewardBlock`) gets updated.\r\n        //   2. User receives the pending reward sent to his/her address.\r\n        //   3. User's `amount` gets updated.\r\n        //   4. User's `rewardDebt` gets updated.\r\n    }\r\n\r\n    // Info of each pool.\r\n    struct PoolInfo {\r\n        IBEP20 lpToken;           // Address of LP token contract.\r\n        uint256 allocPoint;       // How many allocation points assigned to this pool. sdbs to distribute per block.\r\n        uint256 lastRewardBlock;  // Last block number that sdbs distribution occurs.\r\n        uint256 accSDBPerShare; // Accumulated sdbs per share, times 1e12. See below.\r\n    }\r\n\r\n    // The SDB TOKEN!\r\n    SDBToken public sdb;\r\n    // Dev address.\r\n    address public devaddr;\r\n    // SDB tokens created per block.\r\n    uint256 public sdbPerBlock;\r\n    uint256 public bonusEndBlock;\r\n    // Bonus muliplier for early sdb makers.\r\n    uint256 public BONUS_MULTIPLIER = 1;\r\n    // The migrator contract. It has a lot of power. Can only be set through governance (owner).\r\n    IMigratorChef public migrator;\r\n\r\n    // Info of each pool.\r\n    PoolInfo[] public poolInfo;\r\n    // Info of each user that stakes LP tokens.\r\n    mapping (uint256 => mapping (address => UserInfo)) public userInfo;\r\n    // Total allocation points. Must be the sum of all allocation points in all pools.\r\n    uint256 public totalAllocPoint = 0;\r\n    // The block number when SDB mining starts.\r\n    uint256 public startBlock;\r\n\r\n    event Deposit(address indexed user, uint256 indexed pid, uint256 amount);\r\n    event Withdraw(address indexed user, uint256 indexed pid, uint256 amount);\r\n    event EmergencyWithdraw(address indexed user, uint256 indexed pid, uint256 amount);\r\n\r\n    constructor(\r\n        SDBToken _sdb,\r\n        address _devaddr,\r\n        uint256 _sdbPerBlock,\r\n        uint256 _startBlock,\r\n        uint256 _bonusEndBlock\r\n      \r\n    ) public {\r\n        sdb = _sdb;\r\n        devaddr = _devaddr;\r\n        sdbPerBlock = _sdbPerBlock;\r\n        startBlock = _startBlock;\r\n        bonusEndBlock = _bonusEndBlock;\r\n\r\n\r\n        // staking pool\r\n        poolInfo.push(PoolInfo({\r\n            lpToken: _sdb,\r\n            allocPoint: 1000,\r\n            lastRewardBlock: startBlock,\r\n            accSDBPerShare: 0\r\n        }));\r\n\r\n        totalAllocPoint = 1000;\r\n\r\n    }\r\n\r\n    function updateMultiplier(uint256 multiplierNumber) public onlyOwner {\r\n        BONUS_MULTIPLIER = multiplierNumber;\r\n    }\r\n\r\n    function poolLength() external view returns (uint256) {\r\n        return poolInfo.length;\r\n    }\r\n\r\n    // Add a new lp to the pool. Can only be called by the owner.\r\n    // XXX DO NOT add the same LP token more than once. Rewards will be messed up if you do.\r\n    function add(uint256 _allocPoint, IBEP20 _lpToken, bool _withUpdate) public onlyOwner {\r\n        if (_withUpdate) {\r\n            massUpdatePools();\r\n        }\r\n        uint256 lastRewardBlock = block.number > startBlock ? block.number : startBlock;\r\n        totalAllocPoint = totalAllocPoint.add(_allocPoint);\r\n        poolInfo.push(PoolInfo({\r\n            lpToken: _lpToken,\r\n            allocPoint: _allocPoint,\r\n            lastRewardBlock: lastRewardBlock,\r\n            accSDBPerShare: 0\r\n        }));\r\n        updateStakingPool();\r\n    }\r\n\r\n    // Update the given pool's SDB allocation point. Can only be called by the owner.\r\n    function set(uint256 _pid, uint256 _allocPoint, bool _withUpdate) public onlyOwner {\r\n        if (_withUpdate) {\r\n            massUpdatePools();\r\n        }\r\n        uint256 prevAllocPoint = poolInfo[_pid].allocPoint;\r\n        poolInfo[_pid].allocPoint = _allocPoint;\r\n        if (prevAllocPoint != _allocPoint) {\r\n            totalAllocPoint = totalAllocPoint.sub(prevAllocPoint).add(_allocPoint);\r\n            updateStakingPool();\r\n        }\r\n    }\r\n\r\n    function updateStakingPool() internal {\r\n        uint256 length = poolInfo.length;\r\n        uint256 points = 0;\r\n        for (uint256 pid = 1; pid < length; ++pid) {\r\n            points = points.add(poolInfo[pid].allocPoint);\r\n        }\r\n        if (points != 0) {\r\n            points = points.div(3);\r\n            totalAllocPoint = totalAllocPoint.sub(poolInfo[0].allocPoint).add(points);\r\n            poolInfo[0].allocPoint = points;\r\n        }\r\n    }\r\n\r\n    // Set the migrator contract. Can only be called by the owner.\r\n    function setMigrator(IMigratorChef _migrator) public onlyOwner {\r\n        migrator = _migrator;\r\n    }\r\n\r\n    // Migrate lp token to another lp contract. Can be called by anyone. We trust that migrator contract is good.\r\n    function migrate(uint256 _pid) public {\r\n        require(address(migrator) != address(0), \"migrate: no migrator\");\r\n        PoolInfo storage pool = poolInfo[_pid];\r\n        IBEP20 lpToken = pool.lpToken;\r\n        uint256 bal = lpToken.balanceOf(address(this));\r\n        lpToken.safeApprove(address(migrator), bal);\r\n        IBEP20 newLpToken = migrator.migrate(lpToken);\r\n        require(bal == newLpToken.balanceOf(address(this)), \"migrate: bad\");\r\n        pool.lpToken = newLpToken;\r\n    }\r\n\r\n    // Return reward multiplier over the given _from to _to block.\r\n    function getMultiplier(uint256 _from, uint256 _to) public view returns (uint256) {\r\n        return _to.sub(_from).mul(BONUS_MULTIPLIER);\r\n    }\r\n\r\n    // View function to see pending SDBs on frontend.\r\n    //  ,    SDB  -.\r\n    function pendingSDB(uint256 _pid, address _user) external view returns (uint256) {\r\n        PoolInfo storage pool = poolInfo[_pid];\r\n        UserInfo storage user = userInfo[_pid][_user];\r\n        uint256 accSDBPerShare = pool.accSDBPerShare;\r\n        uint256 lpSupply = pool.lpToken.balanceOf(address(this));\r\n        if (block.number > pool.lastRewardBlock && lpSupply != 0) {\r\n            uint256 multiplier = getMultiplier(pool.lastRewardBlock, block.number);\r\n            uint256 SDBReward = multiplier.mul(sdbPerBlock).mul(pool.allocPoint).div(totalAllocPoint);\r\n            accSDBPerShare = accSDBPerShare.add(SDBReward.mul(1e12).div(lpSupply));\r\n        }\r\n        return user.amount.mul(accSDBPerShare).div(1e12).sub(user.rewardDebt);\r\n    }\r\n\r\n    // Update reward variables for all pools. Be careful of gas spending!\r\n    function massUpdatePools() public {\r\n        uint256 length = poolInfo.length;\r\n        for (uint256 pid = 0; pid < length; ++pid) {\r\n            updatePool(pid);\r\n        }\r\n    }\r\n\r\n\r\n    // Update reward variables of the given pool to be up-to-date.\r\n    function updatePool(uint256 _pid) public {\r\n        PoolInfo storage pool = poolInfo[_pid];\r\n        if (block.number <= pool.lastRewardBlock) {\r\n            return;\r\n        }\r\n        uint256 lpSupply = pool.lpToken.balanceOf(address(this));\r\n        if (lpSupply == 0) {\r\n            pool.lastRewardBlock = block.number;\r\n            return;\r\n        }\r\n        uint256 multiplier = getMultiplier(pool.lastRewardBlock, block.number);\r\n        uint256 sdbReward = multiplier.mul(sdbPerBlock).mul(pool.allocPoint).div(totalAllocPoint);\r\n        sdb.mint(devaddr, sdbReward.div(10));\r\n        sdb.mint(address(this), sdbReward);\r\n        pool.accSDBPerShare = pool.accSDBPerShare.add(sdbReward.mul(1e12).div(lpSupply));\r\n        pool.lastRewardBlock = block.number;\r\n    }\r\n\r\n    // Deposit LP tokens to MasterChef for sdb allocation.\r\n    function deposit(uint256 _pid, uint256 _amount) public {\r\n\r\n        require (_pid != 0, 'deposit SDB by staking');\r\n\r\n        PoolInfo storage pool = poolInfo[_pid];\r\n        UserInfo storage user = userInfo[_pid][msg.sender];\r\n        updatePool(_pid);\r\n        if (user.amount > 0) {\r\n            uint256 pending = user.amount.mul(pool.accSDBPerShare).div(1e12).sub(user.rewardDebt);\r\n            if(pending > 0) {\r\n                safeSDBTransfer(msg.sender, pending);\r\n            }\r\n        }\r\n        if (_amount > 0) {\r\n            pool.lpToken.safeTransferFrom(address(msg.sender), address(this), _amount);\r\n            user.amount = user.amount.add(_amount);\r\n        }\r\n        user.rewardDebt = user.amount.mul(pool.accSDBPerShare).div(1e12);\r\n        emit Deposit(msg.sender, _pid, _amount);\r\n    }\r\n\r\n    // Withdraw LP tokens from MasterChef.\r\n    function withdraw(uint256 _pid, uint256 _amount) public {\r\n\r\n        require (_pid != 0, 'withdraw SDB by unstaking');\r\n        PoolInfo storage pool = poolInfo[_pid];\r\n        UserInfo storage user = userInfo[_pid][msg.sender];\r\n        require(user.amount >= _amount, \"withdraw: not good\");\r\n\r\n        updatePool(_pid);\r\n        uint256 pending = user.amount.mul(pool.accSDBPerShare).div(1e12).sub(user.rewardDebt);\r\n        if(pending > 0) {\r\n            safeSDBTransfer(msg.sender, pending);\r\n        }\r\n        if(_amount > 0) {\r\n            user.amount = user.amount.sub(_amount);\r\n            pool.lpToken.safeTransfer(address(msg.sender), _amount);\r\n        }\r\n        user.rewardDebt = user.amount.mul(pool.accSDBPerShare).div(1e12);\r\n        emit Withdraw(msg.sender, _pid, _amount);\r\n    }\r\n\r\n    // Stake sdb tokens to MasterChef\r\n    function enterStaking(uint256 _amount) public {\r\n        PoolInfo storage pool = poolInfo[0];\r\n        UserInfo storage user = userInfo[0][msg.sender];\r\n        updatePool(0);\r\n        if (user.amount > 0) {\r\n            uint256 pending = user.amount.mul(pool.accSDBPerShare).div(1e12).sub(user.rewardDebt);\r\n            if(pending > 0) {\r\n                safeSDBTransfer(msg.sender, pending);\r\n            }\r\n        }\r\n        if(_amount > 0) {\r\n            pool.lpToken.safeTransferFrom(address(msg.sender), address(this), _amount);\r\n            user.amount = user.amount.add(_amount);\r\n        }\r\n        user.rewardDebt = user.amount.mul(pool.accSDBPerShare).div(1e12);\r\n\r\n        emit Deposit(msg.sender, 0, _amount);\r\n    }\r\n\r\n    // Withdraw sdb tokens from STAKING.\r\n    function leaveStaking(uint256 _amount) public {\r\n        PoolInfo storage pool = poolInfo[0];\r\n        UserInfo storage user = userInfo[0][msg.sender];\r\n        require(user.amount >= _amount, \"withdraw: not good\");\r\n        updatePool(0);\r\n        uint256 pending = user.amount.mul(pool.accSDBPerShare).div(1e12).sub(user.rewardDebt);\r\n        if(pending > 0) {\r\n            safeSDBTransfer(msg.sender, pending);\r\n        }\r\n        if(_amount > 0) {\r\n            user.amount = user.amount.sub(_amount);\r\n            pool.lpToken.safeTransfer(address(msg.sender), _amount);\r\n        }\r\n        user.rewardDebt = user.amount.mul(pool.accSDBPerShare).div(1e12);\r\n\r\n    //syrup.burn(msg.sender, _amount);\r\n        emit Withdraw(msg.sender, 0, _amount);\r\n    }\r\n\r\n    // Withdraw without caring about rewards. EMERGENCY ONLY.\r\n    function emergencyWithdraw(uint256 _pid) public {\r\n        PoolInfo storage pool = poolInfo[_pid];\r\n        UserInfo storage user = userInfo[_pid][msg.sender];\r\n        pool.lpToken.safeTransfer(address(msg.sender), user.amount);\r\n        emit EmergencyWithdraw(msg.sender, _pid, user.amount);\r\n        user.amount = 0;\r\n        user.rewardDebt = 0;\r\n    }\r\n\r\n     function safeSDBTransfer(address _to, uint256 _amount) internal {\r\n        uint256 sdbBal = sdb.balanceOf(address(this));\r\n        if (_amount > sdbBal) {\r\n            sdb.transfer(_to, sdbBal);\r\n        } else {\r\n            sdb.transfer(_to, _amount);\r\n        }\r\n    }\r\n\r\n    // Update dev address by the previous dev.\r\n    function dev(address _devaddr) public {\r\n        require(msg.sender == devaddr, \"dev: wut?\");\r\n        devaddr = _devaddr;\r\n    }\r\n}",
  "sourcePath": "C:\\Users\\kolam\\Desktop\\safeSDB\\safedepositbox-smartcontracts\\contracts\\SDB-swap-periphery\\MasterChef.sol",
  "compiler": {
    "name": "solc",
    "version": "0.8.4+commit.c7e474f2.Emscripten.clang"
  },
  "schemaVersion": "3.4.1",
  "updatedAt": "2021-07-21T08:49:56.449Z",
  "devdoc": {
    "kind": "dev",
    "methods": {
      "owner()": {
        "details": "Returns the address of the current owner."
      },
      "renounceOwnership()": {
        "details": "Leaves the contract without owner. It will not be possible to call `onlyOwner` functions anymore. Can only be called by the current owner. NOTE: Renouncing ownership will leave the contract without an owner, thereby removing any functionality that is only available to the owner."
      },
      "transferOwnership(address)": {
        "details": "Transfers ownership of the contract to a new account (`newOwner`). Can only be called by the current owner."
      }
    },
    "version": 1
  },
  "userdoc": {
    "kind": "user",
    "methods": {},
    "version": 1
  }
}