{
  "contractName": "SDBswapRouter",
  "abi": [
    {
      "inputs": [
        {
          "internalType": "address",
          "name": "_factory",
          "type": "address"
        },
        {
          "internalType": "address",
          "name": "_WBNB",
          "type": "address"
        }
      ],
      "stateMutability": "nonpayable",
      "type": "constructor"
    },
    {
      "inputs": [],
      "name": "WBNB",
      "outputs": [
        {
          "internalType": "address",
          "name": "",
          "type": "address"
        }
      ],
      "stateMutability": "view",
      "type": "function"
    },
    {
      "inputs": [],
      "name": "factory",
      "outputs": [
        {
          "internalType": "address",
          "name": "",
          "type": "address"
        }
      ],
      "stateMutability": "view",
      "type": "function"
    },
    {
      "stateMutability": "payable",
      "type": "receive"
    },
    {
      "inputs": [
        {
          "internalType": "address",
          "name": "tokenA",
          "type": "address"
        },
        {
          "internalType": "address",
          "name": "tokenB",
          "type": "address"
        },
        {
          "internalType": "uint256",
          "name": "amountADesired",
          "type": "uint256"
        },
        {
          "internalType": "uint256",
          "name": "amountBDesired",
          "type": "uint256"
        },
        {
          "internalType": "uint256",
          "name": "amountAMin",
          "type": "uint256"
        },
        {
          "internalType": "uint256",
          "name": "amountBMin",
          "type": "uint256"
        },
        {
          "internalType": "address",
          "name": "to",
          "type": "address"
        },
        {
          "internalType": "uint256",
          "name": "deadline",
          "type": "uint256"
        }
      ],
      "name": "addLiquidity",
      "outputs": [
        {
          "internalType": "uint256",
          "name": "amountA",
          "type": "uint256"
        },
        {
          "internalType": "uint256",
          "name": "amountB",
          "type": "uint256"
        },
        {
          "internalType": "uint256",
          "name": "liquidity",
          "type": "uint256"
        }
      ],
      "stateMutability": "nonpayable",
      "type": "function"
    },
    {
      "inputs": [
        {
          "internalType": "address",
          "name": "token",
          "type": "address"
        },
        {
          "internalType": "uint256",
          "name": "amountTokenDesired",
          "type": "uint256"
        },
        {
          "internalType": "uint256",
          "name": "amountTokenMin",
          "type": "uint256"
        },
        {
          "internalType": "uint256",
          "name": "amountBNBMin",
          "type": "uint256"
        },
        {
          "internalType": "address",
          "name": "to",
          "type": "address"
        },
        {
          "internalType": "uint256",
          "name": "deadline",
          "type": "uint256"
        }
      ],
      "name": "addLiquidityBNB",
      "outputs": [
        {
          "internalType": "uint256",
          "name": "amountToken",
          "type": "uint256"
        },
        {
          "internalType": "uint256",
          "name": "amountBNB",
          "type": "uint256"
        },
        {
          "internalType": "uint256",
          "name": "liquidity",
          "type": "uint256"
        }
      ],
      "stateMutability": "payable",
      "type": "function"
    },
    {
      "inputs": [
        {
          "internalType": "address",
          "name": "tokenA",
          "type": "address"
        },
        {
          "internalType": "address",
          "name": "tokenB",
          "type": "address"
        },
        {
          "internalType": "uint256",
          "name": "liquidity",
          "type": "uint256"
        },
        {
          "internalType": "uint256",
          "name": "amountAMin",
          "type": "uint256"
        },
        {
          "internalType": "uint256",
          "name": "amountBMin",
          "type": "uint256"
        },
        {
          "internalType": "address",
          "name": "to",
          "type": "address"
        },
        {
          "internalType": "uint256",
          "name": "deadline",
          "type": "uint256"
        }
      ],
      "name": "removeLiquidity",
      "outputs": [
        {
          "internalType": "uint256",
          "name": "amountA",
          "type": "uint256"
        },
        {
          "internalType": "uint256",
          "name": "amountB",
          "type": "uint256"
        }
      ],
      "stateMutability": "nonpayable",
      "type": "function"
    },
    {
      "inputs": [
        {
          "internalType": "address",
          "name": "token",
          "type": "address"
        },
        {
          "internalType": "uint256",
          "name": "liquidity",
          "type": "uint256"
        },
        {
          "internalType": "uint256",
          "name": "amountTokenMin",
          "type": "uint256"
        },
        {
          "internalType": "uint256",
          "name": "amountBNBMin",
          "type": "uint256"
        },
        {
          "internalType": "address",
          "name": "to",
          "type": "address"
        },
        {
          "internalType": "uint256",
          "name": "deadline",
          "type": "uint256"
        }
      ],
      "name": "removeLiquidityBNB",
      "outputs": [
        {
          "internalType": "uint256",
          "name": "amountToken",
          "type": "uint256"
        },
        {
          "internalType": "uint256",
          "name": "amountBNB",
          "type": "uint256"
        }
      ],
      "stateMutability": "nonpayable",
      "type": "function"
    },
    {
      "inputs": [
        {
          "internalType": "address",
          "name": "tokenA",
          "type": "address"
        },
        {
          "internalType": "address",
          "name": "tokenB",
          "type": "address"
        },
        {
          "internalType": "uint256",
          "name": "liquidity",
          "type": "uint256"
        },
        {
          "internalType": "uint256",
          "name": "amountAMin",
          "type": "uint256"
        },
        {
          "internalType": "uint256",
          "name": "amountBMin",
          "type": "uint256"
        },
        {
          "internalType": "address",
          "name": "to",
          "type": "address"
        },
        {
          "internalType": "uint256",
          "name": "deadline",
          "type": "uint256"
        },
        {
          "internalType": "bool",
          "name": "approveMax",
          "type": "bool"
        },
        {
          "internalType": "uint8",
          "name": "v",
          "type": "uint8"
        },
        {
          "internalType": "bytes32",
          "name": "r",
          "type": "bytes32"
        },
        {
          "internalType": "bytes32",
          "name": "s",
          "type": "bytes32"
        }
      ],
      "name": "removeLiquidityWithPermit",
      "outputs": [
        {
          "internalType": "uint256",
          "name": "amountA",
          "type": "uint256"
        },
        {
          "internalType": "uint256",
          "name": "amountB",
          "type": "uint256"
        }
      ],
      "stateMutability": "nonpayable",
      "type": "function"
    },
    {
      "inputs": [
        {
          "internalType": "address",
          "name": "token",
          "type": "address"
        },
        {
          "internalType": "uint256",
          "name": "liquidity",
          "type": "uint256"
        },
        {
          "internalType": "uint256",
          "name": "amountTokenMin",
          "type": "uint256"
        },
        {
          "internalType": "uint256",
          "name": "amountBNBMin",
          "type": "uint256"
        },
        {
          "internalType": "address",
          "name": "to",
          "type": "address"
        },
        {
          "internalType": "uint256",
          "name": "deadline",
          "type": "uint256"
        },
        {
          "internalType": "bool",
          "name": "approveMax",
          "type": "bool"
        },
        {
          "internalType": "uint8",
          "name": "v",
          "type": "uint8"
        },
        {
          "internalType": "bytes32",
          "name": "r",
          "type": "bytes32"
        },
        {
          "internalType": "bytes32",
          "name": "s",
          "type": "bytes32"
        }
      ],
      "name": "removeLiquidityBNBWithPermit",
      "outputs": [
        {
          "internalType": "uint256",
          "name": "amountToken",
          "type": "uint256"
        },
        {
          "internalType": "uint256",
          "name": "amountBNB",
          "type": "uint256"
        }
      ],
      "stateMutability": "nonpayable",
      "type": "function"
    },
    {
      "inputs": [
        {
          "internalType": "address",
          "name": "token",
          "type": "address"
        },
        {
          "internalType": "uint256",
          "name": "liquidity",
          "type": "uint256"
        },
        {
          "internalType": "uint256",
          "name": "amountTokenMin",
          "type": "uint256"
        },
        {
          "internalType": "uint256",
          "name": "amountBNBMin",
          "type": "uint256"
        },
        {
          "internalType": "address",
          "name": "to",
          "type": "address"
        },
        {
          "internalType": "uint256",
          "name": "deadline",
          "type": "uint256"
        }
      ],
      "name": "removeLiquidityBNBSupportingFeeOnTransferTokens",
      "outputs": [
        {
          "internalType": "uint256",
          "name": "amountBNB",
          "type": "uint256"
        }
      ],
      "stateMutability": "nonpayable",
      "type": "function"
    },
    {
      "inputs": [
        {
          "internalType": "address",
          "name": "token",
          "type": "address"
        },
        {
          "internalType": "uint256",
          "name": "liquidity",
          "type": "uint256"
        },
        {
          "internalType": "uint256",
          "name": "amountTokenMin",
          "type": "uint256"
        },
        {
          "internalType": "uint256",
          "name": "amountBNBMin",
          "type": "uint256"
        },
        {
          "internalType": "address",
          "name": "to",
          "type": "address"
        },
        {
          "internalType": "uint256",
          "name": "deadline",
          "type": "uint256"
        },
        {
          "internalType": "bool",
          "name": "approveMax",
          "type": "bool"
        },
        {
          "internalType": "uint8",
          "name": "v",
          "type": "uint8"
        },
        {
          "internalType": "bytes32",
          "name": "r",
          "type": "bytes32"
        },
        {
          "internalType": "bytes32",
          "name": "s",
          "type": "bytes32"
        }
      ],
      "name": "removeLiquidityBNBWithPermitSupportingFeeOnTransferTokens",
      "outputs": [
        {
          "internalType": "uint256",
          "name": "amountBNB",
          "type": "uint256"
        }
      ],
      "stateMutability": "nonpayable",
      "type": "function"
    },
    {
      "inputs": [
        {
          "internalType": "uint256",
          "name": "amountIn",
          "type": "uint256"
        },
        {
          "internalType": "uint256",
          "name": "amountOutMin",
          "type": "uint256"
        },
        {
          "internalType": "address[]",
          "name": "path",
          "type": "address[]"
        },
        {
          "internalType": "address",
          "name": "to",
          "type": "address"
        },
        {
          "internalType": "uint256",
          "name": "deadline",
          "type": "uint256"
        }
      ],
      "name": "swapExactTokensForTokens",
      "outputs": [
        {
          "internalType": "uint256[]",
          "name": "amounts",
          "type": "uint256[]"
        }
      ],
      "stateMutability": "nonpayable",
      "type": "function"
    },
    {
      "inputs": [
        {
          "internalType": "uint256",
          "name": "amountOut",
          "type": "uint256"
        },
        {
          "internalType": "uint256",
          "name": "amountInMax",
          "type": "uint256"
        },
        {
          "internalType": "address[]",
          "name": "path",
          "type": "address[]"
        },
        {
          "internalType": "address",
          "name": "to",
          "type": "address"
        },
        {
          "internalType": "uint256",
          "name": "deadline",
          "type": "uint256"
        }
      ],
      "name": "swapTokensForExactTokens",
      "outputs": [
        {
          "internalType": "uint256[]",
          "name": "amounts",
          "type": "uint256[]"
        }
      ],
      "stateMutability": "nonpayable",
      "type": "function"
    },
    {
      "inputs": [
        {
          "internalType": "uint256",
          "name": "amountOutMin",
          "type": "uint256"
        },
        {
          "internalType": "address[]",
          "name": "path",
          "type": "address[]"
        },
        {
          "internalType": "address",
          "name": "to",
          "type": "address"
        },
        {
          "internalType": "uint256",
          "name": "deadline",
          "type": "uint256"
        }
      ],
      "name": "swapExactBNBForTokens",
      "outputs": [
        {
          "internalType": "uint256[]",
          "name": "amounts",
          "type": "uint256[]"
        }
      ],
      "stateMutability": "payable",
      "type": "function"
    },
    {
      "inputs": [
        {
          "internalType": "uint256",
          "name": "amountOut",
          "type": "uint256"
        },
        {
          "internalType": "uint256",
          "name": "amountInMax",
          "type": "uint256"
        },
        {
          "internalType": "address[]",
          "name": "path",
          "type": "address[]"
        },
        {
          "internalType": "address",
          "name": "to",
          "type": "address"
        },
        {
          "internalType": "uint256",
          "name": "deadline",
          "type": "uint256"
        }
      ],
      "name": "swapTokensForExactBNB",
      "outputs": [
        {
          "internalType": "uint256[]",
          "name": "amounts",
          "type": "uint256[]"
        }
      ],
      "stateMutability": "nonpayable",
      "type": "function"
    },
    {
      "inputs": [
        {
          "internalType": "uint256",
          "name": "amountIn",
          "type": "uint256"
        },
        {
          "internalType": "uint256",
          "name": "amountOutMin",
          "type": "uint256"
        },
        {
          "internalType": "address[]",
          "name": "path",
          "type": "address[]"
        },
        {
          "internalType": "address",
          "name": "to",
          "type": "address"
        },
        {
          "internalType": "uint256",
          "name": "deadline",
          "type": "uint256"
        }
      ],
      "name": "swapExactTokensForBNB",
      "outputs": [
        {
          "internalType": "uint256[]",
          "name": "amounts",
          "type": "uint256[]"
        }
      ],
      "stateMutability": "nonpayable",
      "type": "function"
    },
    {
      "inputs": [
        {
          "internalType": "uint256",
          "name": "amountOut",
          "type": "uint256"
        },
        {
          "internalType": "address[]",
          "name": "path",
          "type": "address[]"
        },
        {
          "internalType": "address",
          "name": "to",
          "type": "address"
        },
        {
          "internalType": "uint256",
          "name": "deadline",
          "type": "uint256"
        }
      ],
      "name": "swapBNBForExactTokens",
      "outputs": [
        {
          "internalType": "uint256[]",
          "name": "amounts",
          "type": "uint256[]"
        }
      ],
      "stateMutability": "payable",
      "type": "function"
    },
    {
      "inputs": [
        {
          "internalType": "uint256",
          "name": "amountIn",
          "type": "uint256"
        },
        {
          "internalType": "uint256",
          "name": "amountOutMin",
          "type": "uint256"
        },
        {
          "internalType": "address[]",
          "name": "path",
          "type": "address[]"
        },
        {
          "internalType": "address",
          "name": "to",
          "type": "address"
        },
        {
          "internalType": "uint256",
          "name": "deadline",
          "type": "uint256"
        }
      ],
      "name": "swapExactTokensForTokensSupportingFeeOnTransferTokens",
      "outputs": [],
      "stateMutability": "nonpayable",
      "type": "function"
    },
    {
      "inputs": [
        {
          "internalType": "uint256",
          "name": "amountOutMin",
          "type": "uint256"
        },
        {
          "internalType": "address[]",
          "name": "path",
          "type": "address[]"
        },
        {
          "internalType": "address",
          "name": "to",
          "type": "address"
        },
        {
          "internalType": "uint256",
          "name": "deadline",
          "type": "uint256"
        }
      ],
      "name": "swapExactBNBForTokensSupportingFeeOnTransferTokens",
      "outputs": [],
      "stateMutability": "payable",
      "type": "function"
    },
    {
      "inputs": [
        {
          "internalType": "uint256",
          "name": "amountIn",
          "type": "uint256"
        },
        {
          "internalType": "uint256",
          "name": "amountOutMin",
          "type": "uint256"
        },
        {
          "internalType": "address[]",
          "name": "path",
          "type": "address[]"
        },
        {
          "internalType": "address",
          "name": "to",
          "type": "address"
        },
        {
          "internalType": "uint256",
          "name": "deadline",
          "type": "uint256"
        }
      ],
      "name": "swapExactTokensForBNBSupportingFeeOnTransferTokens",
      "outputs": [],
      "stateMutability": "nonpayable",
      "type": "function"
    },
    {
      "inputs": [
        {
          "internalType": "uint256",
          "name": "amountA",
          "type": "uint256"
        },
        {
          "internalType": "uint256",
          "name": "reserveA",
          "type": "uint256"
        },
        {
          "internalType": "uint256",
          "name": "reserveB",
          "type": "uint256"
        }
      ],
      "name": "quote",
      "outputs": [
        {
          "internalType": "uint256",
          "name": "amountB",
          "type": "uint256"
        }
      ],
      "stateMutability": "pure",
      "type": "function"
    },
    {
      "inputs": [
        {
          "internalType": "uint256",
          "name": "amountIn",
          "type": "uint256"
        },
        {
          "internalType": "uint256",
          "name": "reserveIn",
          "type": "uint256"
        },
        {
          "internalType": "uint256",
          "name": "reserveOut",
          "type": "uint256"
        }
      ],
      "name": "getAmountOut",
      "outputs": [
        {
          "internalType": "uint256",
          "name": "amountOut",
          "type": "uint256"
        }
      ],
      "stateMutability": "pure",
      "type": "function"
    },
    {
      "inputs": [
        {
          "internalType": "uint256",
          "name": "amountOut",
          "type": "uint256"
        },
        {
          "internalType": "uint256",
          "name": "reserveIn",
          "type": "uint256"
        },
        {
          "internalType": "uint256",
          "name": "reserveOut",
          "type": "uint256"
        }
      ],
      "name": "getAmountIn",
      "outputs": [
        {
          "internalType": "uint256",
          "name": "amountIn",
          "type": "uint256"
        }
      ],
      "stateMutability": "pure",
      "type": "function"
    },
    {
      "inputs": [
        {
          "internalType": "uint256",
          "name": "amountIn",
          "type": "uint256"
        },
        {
          "internalType": "address[]",
          "name": "path",
          "type": "address[]"
        }
      ],
      "name": "getAmountsOut",
      "outputs": [
        {
          "internalType": "uint256[]",
          "name": "amounts",
          "type": "uint256[]"
        }
      ],
      "stateMutability": "view",
      "type": "function"
    },
    {
      "inputs": [
        {
          "internalType": "uint256",
          "name": "amountOut",
          "type": "uint256"
        },
        {
          "internalType": "address[]",
          "name": "path",
          "type": "address[]"
        }
      ],
      "name": "getAmountsIn",
      "outputs": [
        {
          "internalType": "uint256[]",
          "name": "amounts",
          "type": "uint256[]"
        }
      ],
      "stateMutability": "view",
      "type": "function"
    }
  ],
  "bytecode": "0x60c06040523480156200001157600080fd5b5060405162004f4c38038062004f4c833981016040819052620000349162000070565b6001600160601b0319606092831b8116608052911b1660a052620000a7565b80516001600160a01b03811681146200006b57600080fd5b919050565b6000806040838503121562000083578182fd5b6200008e8362000053565b91506200009e6020840162000053565b90509250929050565b60805160601c60a05160601c614d0d6200023f6000396000818161019f0152818161038e015281816106b501528181610a7e01528181610b3901528181610bad015281816111c8015281816113d8015281816114f20152818161162b015281816117c70152818161186301528181611bde01528181611d8a01528181611e2601528181611ffc015281816120c301528181612452015281816125810152818161267d015281816127410152818161292f0152818161297e01528181612bfb01528181612c5101528181612c850152612d1a01526000818161044d015281816105590152818161059201528181610693015281816107fa0152818161092a01528181610bdf01528181610fbc01528181611282015281816114d0015281816116e40152818161189501528181611aaf01528181611c9701528181611e5801528181612185015281816123d8015281816127fb01528181612a8501528181612c2f01528181613667015281816136c50152818161382b015281816139b0015281816140630152818161412e01526141b40152614d0d6000f3fe60806040526004361061018f5760003560e01c80638dd95002116100d6578063d06ca61f1161007f578063e058848811610059578063e0588488146104cf578063e8e33700146104ef578063eaaed4421461052a57600080fd5b8063d06ca61f1461046f578063d46d2f831461048f578063d67b571e146104af57600080fd5b8063b7e65949116100b0578063b7e65949146103fb578063baa2abde1461041b578063c45a01551461043b57600080fd5b80638dd950021461037c5780639cf68911146103c8578063ad615dec146103db57600080fd5b80635c11d795116101385780638332a963116101125780638332a9631461032957806385f8c2591461033c5780638803dbee1461035c57600080fd5b80635c11d795146102c95780635d616c5b146102e9578063685a0a341461030957600080fd5b806334a0772d1161016957806334a0772d1461027657806338ed17391461029657806350e27df3146102b657600080fd5b8063054d50d4146101e15780631f00ca74146102145780632195995c1461024157600080fd5b366101dc57336001600160a01b037f000000000000000000000000000000000000000000000000000000000000000016146101da57634e487b7160e01b600052600160045260246000fd5b005b600080fd5b3480156101ed57600080fd5b506102016101fc366004614ac1565b61053d565b6040519081526020015b60405180910390f35b34801561022057600080fd5b5061023461022f36600461495a565b610552565b60405161020b9190614b34565b34801561024d57600080fd5b5061026161025c36600461465d565b610588565b6040805192835260208301919091520161020b565b34801561028257600080fd5b506102616102913660046147de565b610689565b3480156102a257600080fd5b506102346102b1366004614a50565b6107a4565b6101da6102c43660046148f5565b610a32565b3480156102d557600080fd5b506101da6102e4366004614a50565b610f33565b3480156102f557600080fd5b50610234610304366004614a50565b611172565b34801561031557600080fd5b506102016103243660046147de565b6114c8565b6102346103373660046148f5565b6115dd565b34801561034857600080fd5b50610201610357366004614ac1565b611a51565b34801561036857600080fd5b50610234610377366004614a50565b611a5e565b34801561038857600080fd5b506103b07f000000000000000000000000000000000000000000000000000000000000000081565b6040516001600160a01b03909116815260200161020b565b6102346103d63660046148f5565b611b90565b3480156103e757600080fd5b506102016103f6366004614ac1565b611f9d565b34801561040757600080fd5b50610201610416366004614781565b611faa565b34801561042757600080fd5b506102616104363660046145ec565b612131565b34801561044757600080fd5b506103b07f000000000000000000000000000000000000000000000000000000000000000081565b34801561047b57600080fd5b5061023461048a36600461495a565b6123d1565b34801561049b57600080fd5b506101da6104aa366004614a50565b6123fe565b3480156104bb57600080fd5b506102346104ca366004614a50565b6126eb565b3480156104db57600080fd5b506102616104ea366004614781565b6128dc565b3480156104fb57600080fd5b5061050f61050a366004614706565b6129f8565b6040805193845260208401929092529082015260600161020b565b61050f610538366004614781565b612ba6565b600061054a848484612e55565b949350505050565b606061057f7f00000000000000000000000000000000000000000000000000000000000000008484612f70565b90505b92915050565b60008060006105b87f00000000000000000000000000000000000000000000000000000000000000008f8f61315a565b90506000876105c7578c6105d9565b6fffffffffffffffffffffffffffffffff5b60405163d505accf60e01b815233600482015230602482015260448101829052606481018b905260ff8916608482015260a4810188905260c481018790529091506001600160a01b0383169063d505accf9060e401600060405180830381600087803b15801561064857600080fd5b505af115801561065c573d6000803e3d6000fd5b5050505061066f8f8f8f8f8f8f8f612131565b809450819550505050509b509b9950505050505050505050565b60008060006106d97f00000000000000000000000000000000000000000000000000000000000000008e7f000000000000000000000000000000000000000000000000000000000000000061315a565b90506000876106e8578c6106fa565b6fffffffffffffffffffffffffffffffff5b60405163d505accf60e01b815233600482015230602482015260448101829052606481018b905260ff8916608482015260a4810188905260c481018790529091506001600160a01b0383169063d505accf9060e401600060405180830381600087803b15801561076957600080fd5b505af115801561077d573d6000803e3d6000fd5b5050505061078f8e8e8e8e8e8e6128dc565b909f909e509c50505050505050505050505050565b606081428110156107f55760405162461bcd60e51b815260206004820152601660248201527514d1109cddd85c149bdd5d195c8e881156141254915160521b60448201526064015b60405180910390fd5b6108537f00000000000000000000000000000000000000000000000000000000000000008988888080602002602001604051908101604052809392919081815260200183836020028082843760009201919091525061323192505050565b91508682600184516108659190614c10565b8151811061088357634e487b7160e01b600052603260045260246000fd5b602002602001015110156108eb5760405162461bcd60e51b815260206004820152602960248201527f53444273776170526f757465723a20494e53554646494349454e545f4f555450604482015268155517d05353d5539560ba1b60648201526084016107ec565b6109e88686600081811061090f57634e487b7160e01b600052603260045260246000fd5b905060200201602081019061092491906145b4565b336109ba7f00000000000000000000000000000000000000000000000000000000000000008a8a600081811061096a57634e487b7160e01b600052603260045260246000fd5b905060200201602081019061097f91906145b4565b8b8b60018181106109a057634e487b7160e01b600052603260045260246000fd5b90506020020160208101906109b591906145b4565b61315a565b856000815181106109db57634e487b7160e01b600052603260045260246000fd5b60200260200101516133fb565b610a278287878080602002602001604051908101604052809392919081815260200183836020028082843760009201919091525089925061355a915050565b509695505050505050565b8042811015610a7c5760405162461bcd60e51b815260206004820152601660248201527514d1109cddd85c149bdd5d195c8e881156141254915160521b60448201526064016107ec565b7f00000000000000000000000000000000000000000000000000000000000000006001600160a01b031685856000818110610ac757634e487b7160e01b600052603260045260246000fd5b9050602002016020810190610adc91906145b4565b6001600160a01b031614610b325760405162461bcd60e51b815260206004820152601b60248201527f53444273776170526f757465723a20494e56414c49445f50415448000000000060448201526064016107ec565b60003490507f00000000000000000000000000000000000000000000000000000000000000006001600160a01b031663d0e30db0826040518263ffffffff1660e01b81526004016000604051808303818588803b158015610b9257600080fd5b505af1158015610ba6573d6000803e3d6000fd5b50505050507f00000000000000000000000000000000000000000000000000000000000000006001600160a01b031663a9059cbb610c557f000000000000000000000000000000000000000000000000000000000000000089896000818110610c1f57634e487b7160e01b600052603260045260246000fd5b9050602002016020810190610c3491906145b4565b8a8a60018181106109a057634e487b7160e01b600052603260045260246000fd5b6040517fffffffff0000000000000000000000000000000000000000000000000000000060e084901b1681526001600160a01b03909116600482015260248101849052604401602060405180830381600087803b158015610cb557600080fd5b505af1158015610cc9573d6000803e3d6000fd5b505050506040513d601f19601f82011682018060405250810190610ced9190614873565b610d0757634e487b7160e01b600052600160045260246000fd5b60008686610d16600182614c10565b818110610d3357634e487b7160e01b600052603260045260246000fd5b9050602002016020810190610d4891906145b4565b6040516370a0823160e01b81526001600160a01b03878116600483015291909116906370a082319060240160206040518083038186803b158015610d8b57600080fd5b505afa158015610d9f573d6000803e3d6000fd5b505050506040513d601f19601f82011682018060405250810190610dc391906148dd565b9050610e0387878080602002602001604051908101604052809392919081815260200183836020028082843760009201919091525089925061379a915050565b87610ec9828989610e15600182614c10565b818110610e3257634e487b7160e01b600052603260045260246000fd5b9050602002016020810190610e4791906145b4565b6040516370a0823160e01b81526001600160a01b038a8116600483015291909116906370a08231906024015b60206040518083038186803b158015610e8b57600080fd5b505afa158015610e9f573d6000803e3d6000fd5b505050506040513d601f19601f82011682018060405250810190610ec391906148dd565b90613a8a565b1015610f295760405162461bcd60e51b815260206004820152602960248201527f53444273776170526f757465723a20494e53554646494349454e545f4f555450604482015268155517d05353d5539560ba1b60648201526084016107ec565b5050505050505050565b8042811015610f7d5760405162461bcd60e51b815260206004820152601660248201527514d1109cddd85c149bdd5d195c8e881156141254915160521b60448201526064016107ec565b61100285856000818110610fa157634e487b7160e01b600052603260045260246000fd5b9050602002016020810190610fb691906145b4565b33610ffc7f000000000000000000000000000000000000000000000000000000000000000089896000818110610c1f57634e487b7160e01b600052603260045260246000fd5b8a6133fb565b60008585611011600182614c10565b81811061102e57634e487b7160e01b600052603260045260246000fd5b905060200201602081019061104391906145b4565b6040516370a0823160e01b81526001600160a01b03868116600483015291909116906370a082319060240160206040518083038186803b15801561108657600080fd5b505afa15801561109a573d6000803e3d6000fd5b505050506040513d601f19601f820116820180604052508101906110be91906148dd565b90506110fe86868080602002602001604051908101604052809392919081815260200183836020028082843760009201919091525088925061379a915050565b86610ec9828888611110600182614c10565b81811061112d57634e487b7160e01b600052603260045260246000fd5b905060200201602081019061114291906145b4565b6040516370a0823160e01b81526001600160a01b03898116600483015291909116906370a0823190602401610e73565b606081428110156111be5760405162461bcd60e51b815260206004820152601660248201527514d1109cddd85c149bdd5d195c8e881156141254915160521b60448201526064016107ec565b6001600160a01b037f00000000000000000000000000000000000000000000000000000000000000001686866111f5600182614c10565b81811061121257634e487b7160e01b600052603260045260246000fd5b905060200201602081019061122791906145b4565b6001600160a01b03161461127d5760405162461bcd60e51b815260206004820152601b60248201527f53444273776170526f757465723a20494e56414c49445f50415448000000000060448201526064016107ec565b6112db7f00000000000000000000000000000000000000000000000000000000000000008988888080602002602001604051908101604052809392919081815260200183836020028082843760009201919091525061323192505050565b91508682600184516112ed9190614c10565b8151811061130b57634e487b7160e01b600052603260045260246000fd5b602002602001015110156113735760405162461bcd60e51b815260206004820152602960248201527f53444273776170526f757465723a20494e53554646494349454e545f4f555450604482015268155517d05353d5539560ba1b60648201526084016107ec565b6113978686600081811061090f57634e487b7160e01b600052603260045260246000fd5b6113d68287878080602002602001604051908101604052809392919081815260200183836020028082843760009201919091525030925061355a915050565b7f00000000000000000000000000000000000000000000000000000000000000006001600160a01b0316632e1a7d4d83600185516114149190614c10565b8151811061143257634e487b7160e01b600052603260045260246000fd5b60200260200101516040518263ffffffff1660e01b815260040161145891815260200190565b600060405180830381600087803b15801561147257600080fd5b505af1158015611486573d6000803e3d6000fd5b50505050610a2784836001855161149d9190614c10565b815181106114bb57634e487b7160e01b600052603260045260246000fd5b6020026020010151613acc565b6000806115167f00000000000000000000000000000000000000000000000000000000000000008d7f000000000000000000000000000000000000000000000000000000000000000061315a565b9050600086611525578b611537565b6fffffffffffffffffffffffffffffffff5b60405163d505accf60e01b815233600482015230602482015260448101829052606481018a905260ff8816608482015260a4810187905260c481018690529091506001600160a01b0383169063d505accf9060e401600060405180830381600087803b1580156115a657600080fd5b505af11580156115ba573d6000803e3d6000fd5b505050506115cc8d8d8d8d8d8d611faa565b9d9c50505050505050505050505050565b606081428110156116295760405162461bcd60e51b815260206004820152601660248201527514d1109cddd85c149bdd5d195c8e881156141254915160521b60448201526064016107ec565b7f00000000000000000000000000000000000000000000000000000000000000006001600160a01b03168686600081811061167457634e487b7160e01b600052603260045260246000fd5b905060200201602081019061168991906145b4565b6001600160a01b0316146116df5760405162461bcd60e51b815260206004820152601b60248201527f53444273776170526f757465723a20494e56414c49445f50415448000000000060448201526064016107ec565b61173d7f000000000000000000000000000000000000000000000000000000000000000088888880806020026020016040519081016040528093929190818152602001838360200280828437600092019190915250612f7092505050565b9150348260008151811061176157634e487b7160e01b600052603260045260246000fd5b602002602001015111156117c55760405162461bcd60e51b815260206004820152602560248201527f53444273776170526f757465723a204558434553534956455f494e5055545f416044820152641353d5539560da1b60648201526084016107ec565b7f00000000000000000000000000000000000000000000000000000000000000006001600160a01b031663d0e30db08360008151811061181557634e487b7160e01b600052603260045260246000fd5b60200260200101516040518263ffffffff1660e01b81526004016000604051808303818588803b15801561184857600080fd5b505af115801561185c573d6000803e3d6000fd5b50505050507f00000000000000000000000000000000000000000000000000000000000000006001600160a01b031663a9059cbb6118d57f000000000000000000000000000000000000000000000000000000000000000089896000818110610c1f57634e487b7160e01b600052603260045260246000fd5b846000815181106118f657634e487b7160e01b600052603260045260246000fd5b60200260200101516040518363ffffffff1660e01b815260040161192f9291906001600160a01b03929092168252602082015260400190565b602060405180830381600087803b15801561194957600080fd5b505af115801561195d573d6000803e3d6000fd5b505050506040513d601f19601f820116820180604052508101906119819190614873565b61199b57634e487b7160e01b600052600160045260246000fd5b6119da8287878080602002602001604051908101604052809392919081815260200183836020028082843760009201919091525089925061355a915050565b816000815181106119fb57634e487b7160e01b600052603260045260246000fd5b6020026020010151341115611a4757611a473383600081518110611a2f57634e487b7160e01b600052603260045260246000fd5b602002602001015134611a429190614c10565b613acc565b5095945050505050565b600061054a848484613baf565b60608142811015611aaa5760405162461bcd60e51b815260206004820152601660248201527514d1109cddd85c149bdd5d195c8e881156141254915160521b60448201526064016107ec565b611b087f000000000000000000000000000000000000000000000000000000000000000089888880806020026020016040519081016040528093929190818152602001838360200280828437600092019190915250612f7092505050565b91508682600081518110611b2c57634e487b7160e01b600052603260045260246000fd5b602002602001015111156108eb5760405162461bcd60e51b815260206004820152602560248201527f53444273776170526f757465723a204558434553534956455f494e5055545f416044820152641353d5539560da1b60648201526084016107ec565b60608142811015611bdc5760405162461bcd60e51b815260206004820152601660248201527514d1109cddd85c149bdd5d195c8e881156141254915160521b60448201526064016107ec565b7f00000000000000000000000000000000000000000000000000000000000000006001600160a01b031686866000818110611c2757634e487b7160e01b600052603260045260246000fd5b9050602002016020810190611c3c91906145b4565b6001600160a01b031614611c925760405162461bcd60e51b815260206004820152601b60248201527f53444273776170526f757465723a20494e56414c49445f50415448000000000060448201526064016107ec565b611cf07f00000000000000000000000000000000000000000000000000000000000000003488888080602002602001604051908101604052809392919081815260200183836020028082843760009201919091525061323192505050565b9150868260018451611d029190614c10565b81518110611d2057634e487b7160e01b600052603260045260246000fd5b60200260200101511015611d885760405162461bcd60e51b815260206004820152602960248201527f53444273776170526f757465723a20494e53554646494349454e545f4f555450604482015268155517d05353d5539560ba1b60648201526084016107ec565b7f00000000000000000000000000000000000000000000000000000000000000006001600160a01b031663d0e30db083600081518110611dd857634e487b7160e01b600052603260045260246000fd5b60200260200101516040518263ffffffff1660e01b81526004016000604051808303818588803b158015611e0b57600080fd5b505af1158015611e1f573d6000803e3d6000fd5b50505050507f00000000000000000000000000000000000000000000000000000000000000006001600160a01b031663a9059cbb611e987f000000000000000000000000000000000000000000000000000000000000000089896000818110610c1f57634e487b7160e01b600052603260045260246000fd5b84600081518110611eb957634e487b7160e01b600052603260045260246000fd5b60200260200101516040518363ffffffff1660e01b8152600401611ef29291906001600160a01b03929092168252602082015260400190565b602060405180830381600087803b158015611f0c57600080fd5b505af1158015611f20573d6000803e3d6000fd5b505050506040513d601f19601f82011682018060405250810190611f449190614873565b611f5e57634e487b7160e01b600052600160045260246000fd5b611a478287878080602002602001604051908101604052809392919081815260200183836020028082843760009201919091525089925061355a915050565b600061054a848484613cd8565b60008142811015611ff65760405162461bcd60e51b815260206004820152601660248201527514d1109cddd85c149bdd5d195c8e881156141254915160521b60448201526064016107ec565b612025887f00000000000000000000000000000000000000000000000000000000000000008989893089612131565b6040516370a0823160e01b81523060048201529093506120ad9150899086906001600160a01b038316906370a082319060240160206040518083038186803b15801561207057600080fd5b505afa158015612084573d6000803e3d6000fd5b505050506040513d601f19601f820116820180604052508101906120a891906148dd565b613dcf565b604051632e1a7d4d60e01b8152600481018390527f00000000000000000000000000000000000000000000000000000000000000006001600160a01b031690632e1a7d4d90602401600060405180830381600087803b15801561210f57600080fd5b505af1158015612123573d6000803e3d6000fd5b50505050610a278483613acc565b600080824281101561217e5760405162461bcd60e51b815260206004820152601660248201527514d1109cddd85c149bdd5d195c8e881156141254915160521b60448201526064016107ec565b60006121ab7f00000000000000000000000000000000000000000000000000000000000000008c8c61315a565b6040516323b872dd60e01b81523360048201526001600160a01b03821660248201819052604482018c90529192506323b872dd90606401602060405180830381600087803b1580156121fc57600080fd5b505af1158015612210573d6000803e3d6000fd5b505050506040513d601f19601f820116820180604052508101906122349190614873565b506040517f89afcb440000000000000000000000000000000000000000000000000000000081526001600160a01b03878116600483015260009182918416906389afcb44906024016040805180830381600087803b15801561229557600080fd5b505af11580156122a9573d6000803e3d6000fd5b505050506040513d601f19601f820116820180604052508101906122cd9190614a2d565b9150915060006122dd8e8e613f25565b509050806001600160a01b03168e6001600160a01b031614612300578183612303565b82825b90975095508a8710156123645760405162461bcd60e51b8152602060048201526024808201527f53444273776170526f757465723a20494e53554646494349454e545f415f414d60448201526313d5539560e21b60648201526084016107ec565b898610156123c05760405162461bcd60e51b8152602060048201526024808201527f53444273776170526f757465723a20494e53554646494349454e545f425f414d60448201526313d5539560e21b60648201526084016107ec565b505050505097509795505050505050565b606061057f7f00000000000000000000000000000000000000000000000000000000000000008484613231565b80428110156124485760405162461bcd60e51b815260206004820152601660248201527514d1109cddd85c149bdd5d195c8e881156141254915160521b60448201526064016107ec565b6001600160a01b037f000000000000000000000000000000000000000000000000000000000000000016858561247f600182614c10565b81811061249c57634e487b7160e01b600052603260045260246000fd5b90506020020160208101906124b191906145b4565b6001600160a01b0316146125075760405162461bcd60e51b815260206004820152601b60248201527f53444273776170526f757465723a20494e56414c49445f50415448000000000060448201526064016107ec565b61252b85856000818110610fa157634e487b7160e01b600052603260045260246000fd5b61256985858080602002602001604051908101604052809392919081815260200183836020028082843760009201919091525030925061379a915050565b6040516370a0823160e01b81523060048201526000907f00000000000000000000000000000000000000000000000000000000000000006001600160a01b0316906370a082319060240160206040518083038186803b1580156125cb57600080fd5b505afa1580156125df573d6000803e3d6000fd5b505050506040513d601f19601f8201168201806040525081019061260391906148dd565b9050868110156126675760405162461bcd60e51b815260206004820152602960248201527f53444273776170526f757465723a20494e53554646494349454e545f4f555450604482015268155517d05353d5539560ba1b60648201526084016107ec565b604051632e1a7d4d60e01b8152600481018290527f00000000000000000000000000000000000000000000000000000000000000006001600160a01b031690632e1a7d4d90602401600060405180830381600087803b1580156126c957600080fd5b505af11580156126dd573d6000803e3d6000fd5b50505050610f298482613acc565b606081428110156127375760405162461bcd60e51b815260206004820152601660248201527514d1109cddd85c149bdd5d195c8e881156141254915160521b60448201526064016107ec565b6001600160a01b037f000000000000000000000000000000000000000000000000000000000000000016868661276e600182614c10565b81811061278b57634e487b7160e01b600052603260045260246000fd5b90506020020160208101906127a091906145b4565b6001600160a01b0316146127f65760405162461bcd60e51b815260206004820152601b60248201527f53444273776170526f757465723a20494e56414c49445f50415448000000000060448201526064016107ec565b6128547f000000000000000000000000000000000000000000000000000000000000000089888880806020026020016040519081016040528093929190818152602001838360200280828437600092019190915250612f7092505050565b9150868260008151811061287857634e487b7160e01b600052603260045260246000fd5b602002602001015111156113735760405162461bcd60e51b815260206004820152602560248201527f53444273776170526f757465723a204558434553534956455f494e5055545f416044820152641353d5539560da1b60648201526084016107ec565b60008082428110156129295760405162461bcd60e51b815260206004820152601660248201527514d1109cddd85c149bdd5d195c8e881156141254915160521b60448201526064016107ec565b612958897f00000000000000000000000000000000000000000000000000000000000000008a8a8a308a612131565b9093509150612968898685613dcf565b604051632e1a7d4d60e01b8152600481018390527f00000000000000000000000000000000000000000000000000000000000000006001600160a01b031690632e1a7d4d90602401600060405180830381600087803b1580156129ca57600080fd5b505af11580156129de573d6000803e3d6000fd5b505050506129ec8583613acc565b50965096945050505050565b60008060008342811015612a475760405162461bcd60e51b815260206004820152601660248201527514d1109cddd85c149bdd5d195c8e881156141254915160521b60448201526064016107ec565b612a558c8c8c8c8c8c614035565b60405163e6a4390560e01b81526001600160a01b038f811660048301528e811660248301529296509094506000917f0000000000000000000000000000000000000000000000000000000000000000169063e6a439059060440160206040518083038186803b158015612ac757600080fd5b505afa158015612adb573d6000803e3d6000fd5b505050506040513d601f19601f82011682018060405250810190612aff91906145d0565b9050612b0d8d3383886133fb565b612b198c3383876133fb565b6040516335313c2160e11b81526001600160a01b038881166004830152821690636a62784290602401602060405180830381600087803b158015612b5c57600080fd5b505af1158015612b70573d6000803e3d6000fd5b505050506040513d601f19601f82011682018060405250810190612b9491906148dd565b92505050985098509895505050505050565b60008060008342811015612bf55760405162461bcd60e51b815260206004820152601660248201527514d1109cddd85c149bdd5d195c8e881156141254915160521b60448201526064016107ec565b612c238a7f00000000000000000000000000000000000000000000000000000000000000008b348c8c614035565b90945092506000612c757f00000000000000000000000000000000000000000000000000000000000000008c7f000000000000000000000000000000000000000000000000000000000000000061315a565b9050612c838b3383886133fb565b7f00000000000000000000000000000000000000000000000000000000000000006001600160a01b031663d0e30db0856040518263ffffffff1660e01b81526004016000604051808303818588803b158015612cde57600080fd5b505af1158015612cf2573d6000803e3d6000fd5b505060405163a9059cbb60e01b81526001600160a01b038581166004830152602482018990527f000000000000000000000000000000000000000000000000000000000000000016935063a9059cbb92506044019050602060405180830381600087803b158015612d6257600080fd5b505af1158015612d76573d6000803e3d6000fd5b505050506040513d601f19601f82011682018060405250810190612d9a9190614873565b612db457634e487b7160e01b600052600160045260246000fd5b6040516335313c2160e11b81526001600160a01b038881166004830152821690636a62784290602401602060405180830381600087803b158015612df757600080fd5b505af1158015612e0b573d6000803e3d6000fd5b505050506040513d601f19601f82011682018060405250810190612e2f91906148dd565b925083341115612e4757612e4733611a428634614c10565b505096509650969350505050565b6000808411612eb85760405162461bcd60e51b815260206004820152602960248201527f534442737761704c6962726172793a20494e53554646494349454e545f494e50604482015268155517d05353d5539560ba1b60648201526084016107ec565b600083118015612ec85750600082115b612f235760405162461bcd60e51b815260206004820152602660248201527f534442737761704c6962726172793a20494e53554646494349454e545f4c495160448201526555494449545960d01b60648201526084016107ec565b6000612f31856103e5614317565b90506000612f3f8285614317565b90506000612f5983612f53886103e8614317565b906143b2565b9050612f658183614bd1565b979650505050505050565b6060600282511015612fc45760405162461bcd60e51b815260206004820152601c60248201527f534442737761704c6962726172793a20494e56414c49445f504154480000000060448201526064016107ec565b815167ffffffffffffffff811115612fec57634e487b7160e01b600052604160045260246000fd5b604051908082528060200260200182016040528015613015578160200160208202803683370190505b5090508281600183516130289190614c10565b8151811061304657634e487b7160e01b600052603260045260246000fd5b6020026020010181815250506000600183516130629190614c10565b90505b8015613152576000806130d1878661307e600187614c10565b8151811061309c57634e487b7160e01b600052603260045260246000fd5b60200260200101518786815181106130c457634e487b7160e01b600052603260045260246000fd5b6020026020010151614411565b915091506131078484815181106130f857634e487b7160e01b600052603260045260246000fd5b60200260200101518383613baf565b84613113600186614c10565b8151811061313157634e487b7160e01b600052603260045260246000fd5b6020026020010181815250505050808061314a90614c53565b915050613065565b509392505050565b60008060006131698585613f25565b604080516bffffffffffffffffffffffff19606094851b811660208084019190915293851b81166034830152825180830360280181526048830184528051908501207fff0000000000000000000000000000000000000000000000000000000000000060688401529a851b166069820152607d8101999099527fd0d4c4cd0848c93cb4fd1f498d7013ee6bfb25783ea21593d5834f5d250ece66609d808b01919091528151808b03909101815260bd9099019052875197019690962090951c95945050505050565b60606002825110156132855760405162461bcd60e51b815260206004820152601c60248201527f534442737761704c6962726172793a20494e56414c49445f504154480000000060448201526064016107ec565b815167ffffffffffffffff8111156132ad57634e487b7160e01b600052604160045260246000fd5b6040519080825280602002602001820160405280156132d6578160200160208202803683370190505b50905082816000815181106132fb57634e487b7160e01b600052603260045260246000fd5b60200260200101818152505060005b600183516133189190614c10565b8110156131525760008061337a8786858151811061334657634e487b7160e01b600052603260045260246000fd5b60200260200101518786600161335c9190614bb9565b815181106130c457634e487b7160e01b600052603260045260246000fd5b915091506133b08484815181106133a157634e487b7160e01b600052603260045260246000fd5b60200260200101518383612e55565b846133bc856001614bb9565b815181106133da57634e487b7160e01b600052603260045260246000fd5b602002602001018181525050505080806133f390614c6a565b91505061330a565b604080516001600160a01b0385811660248301528481166044830152606480830185905283518084039091018152608490920183526020820180517bffffffffffffffffffffffffffffffffffffffffffffffffffffffff166323b872dd60e01b17905291516000928392908816916134749190614b18565b6000604051808303816000865af19150503d80600081146134b1576040519150601f19603f3d011682016040523d82523d6000602084013e6134b6565b606091505b50915091508180156134e05750805115806134e05750808060200190518101906134e09190614873565b6135525760405162461bcd60e51b815260206004820152603160248201527f5472616e7366657248656c7065723a3a7472616e7366657246726f6d3a20747260448201527f616e7366657246726f6d206661696c656400000000000000000000000000000060648201526084016107ec565b505050505050565b60005b6001835161356b9190614c10565b8110156137945760008084838151811061359557634e487b7160e01b600052603260045260246000fd5b6020026020010151858460016135ab9190614bb9565b815181106135c957634e487b7160e01b600052603260045260246000fd5b60200260200101519150915060006135e18383613f25565b5090506000876135f2866001614bb9565b8151811061361057634e487b7160e01b600052603260045260246000fd5b60200260200101519050600080836001600160a01b0316866001600160a01b03161461363e57826000613642565b6000835b91509150600060028a516136569190614c10565b881061366257886136be565b6136be7f0000000000000000000000000000000000000000000000000000000000000000878c6136938c6002614bb9565b815181106136b157634e487b7160e01b600052603260045260246000fd5b602002602001015161315a565b90506136eb7f0000000000000000000000000000000000000000000000000000000000000000888861315a565b6001600160a01b031663022c0d9f84848460006040519080825280601f01601f191660200182016040528015613728576020820181803683370190505b506040518563ffffffff1660e01b81526004016137489493929190614b8b565b600060405180830381600087803b15801561376257600080fd5b505af1158015613776573d6000803e3d6000fd5b5050505050505050505050808061378c90614c6a565b91505061355d565b50505050565b60005b600183516137ab9190614c10565b811015613a85576000808483815181106137d557634e487b7160e01b600052603260045260246000fd5b6020026020010151858460016137eb9190614bb9565b8151811061380957634e487b7160e01b600052603260045260246000fd5b60200260200101519150915060006138218383613f25565b50905060006138517f0000000000000000000000000000000000000000000000000000000000000000858561315a565b9050600080600080846001600160a01b0316630902f1ac6040518163ffffffff1660e01b815260040160606040518083038186803b15801561389257600080fd5b505afa1580156138a6573d6000803e3d6000fd5b505050506040513d601f19601f820116820180604052508101906138ca919061488f565b506dffffffffffffffffffffffffffff1691506dffffffffffffffffffffffffffff169150600080876001600160a01b03168a6001600160a01b031614613912578284613915565b83835b6040516370a0823160e01b81526001600160a01b038a81166004830152929450909250613950918491908d16906370a0823190602401610e73565b955061395d868383612e55565b945050505050600080856001600160a01b0316886001600160a01b0316146139875782600061398b565b6000835b91509150600060028c5161399f9190614c10565b8a106139ab578a6139dc565b6139dc7f0000000000000000000000000000000000000000000000000000000000000000898e6136938e6002614bb9565b604080516000815260208101918290527f022c0d9f000000000000000000000000000000000000000000000000000000009091529091506001600160a01b0387169063022c0d9f90613a379086908690869060248101614b8b565b600060405180830381600087803b158015613a5157600080fd5b505af1158015613a65573d6000803e3d6000fd5b505050505050505050505050508080613a7d90614c6a565b91505061379d565b505050565b600061057f83836040518060400160405280601e81526020017f536166654d6174683a207375627472616374696f6e206f766572666c6f7700008152506144f8565b604080516000808252602082019092526001600160a01b038416908390604051613af69190614b18565b60006040518083038185875af1925050503d8060008114613b33576040519150601f19603f3d011682016040523d82523d6000602084013e613b38565b606091505b5050905080613a855760405162461bcd60e51b815260206004820152603460248201527f5472616e7366657248656c7065723a3a736166655472616e736665724554483a60448201527f20424e42207472616e73666572206661696c656400000000000000000000000060648201526084016107ec565b6000808411613c265760405162461bcd60e51b815260206004820152602a60248201527f534442737761704c6962726172793a20494e53554646494349454e545f4f555460448201527f5055545f414d4f554e540000000000000000000000000000000000000000000060648201526084016107ec565b600083118015613c365750600082115b613c915760405162461bcd60e51b815260206004820152602660248201527f534442737761704c6962726172793a20494e53554646494349454e545f4c495160448201526555494449545960d01b60648201526084016107ec565b6000613ca96103e8613ca38688614317565b90614317565b90506000613cbd6103e5613ca38689613a8a565b9050613cce6001612f538385614bd1565b9695505050505050565b6000808411613d4f5760405162461bcd60e51b815260206004820152602360248201527f534442737761704c6962726172793a20494e53554646494349454e545f414d4f60448201527f554e54000000000000000000000000000000000000000000000000000000000060648201526084016107ec565b600083118015613d5f5750600082115b613dba5760405162461bcd60e51b815260206004820152602660248201527f534442737761704c6962726172793a20494e53554646494349454e545f4c495160448201526555494449545960d01b60648201526084016107ec565b82613dc58584614317565b61054a9190614bd1565b604080516001600160a01b038481166024830152604480830185905283518084039091018152606490920183526020820180517bffffffffffffffffffffffffffffffffffffffffffffffffffffffff1663a9059cbb60e01b1790529151600092839290871691613e409190614b18565b6000604051808303816000865af19150503d8060008114613e7d576040519150601f19603f3d011682016040523d82523d6000602084013e613e82565b606091505b5091509150818015613eac575080511580613eac575080806020019051810190613eac9190614873565b613f1e5760405162461bcd60e51b815260206004820152602d60248201527f5472616e7366657248656c7065723a3a736166655472616e736665723a20747260448201527f616e73666572206661696c65640000000000000000000000000000000000000060648201526084016107ec565b5050505050565b600080826001600160a01b0316846001600160a01b03161415613fb05760405162461bcd60e51b815260206004820152602360248201527f534442737761704c6962726172793a204944454e544943414c5f41444452455360448201527f534553000000000000000000000000000000000000000000000000000000000060648201526084016107ec565b826001600160a01b0316846001600160a01b031610613fd0578284613fd3565b83835b90925090506001600160a01b03821661402e5760405162461bcd60e51b815260206004820152601c60248201527f534442737761704c6962726172793a205a45524f5f414444524553530000000060448201526064016107ec565b9250929050565b60405163e6a4390560e01b81526001600160a01b0387811660048301528681166024830152600091829182917f00000000000000000000000000000000000000000000000000000000000000009091169063e6a439059060440160206040518083038186803b1580156140a757600080fd5b505afa1580156140bb573d6000803e3d6000fd5b505050506040513d601f19601f820116820180604052508101906140df91906145d0565b6001600160a01b031614156141ac576040517fc9c653960000000000000000000000000000000000000000000000000000000081526001600160a01b03898116600483015288811660248301527f0000000000000000000000000000000000000000000000000000000000000000169063c9c6539690604401602060405180830381600087803b15801561417257600080fd5b505af1158015614186573d6000803e3d6000fd5b505050506040513d601f19601f820116820180604052508101906141aa91906145d0565b505b6000806141da7f00000000000000000000000000000000000000000000000000000000000000008b8b614411565b915091508160001480156141ec575080155b156141fc5787935086925061430a565b6000614209898484613cd8565b9050878111614279578581101561426e5760405162461bcd60e51b8152602060048201526024808201527f53444273776170526f757465723a20494e53554646494349454e545f425f414d60448201526313d5539560e21b60648201526084016107ec565b889450925082614308565b6000614286898486613cd8565b9050898111156142a657634e487b7160e01b600052600160045260246000fd5b878110156143025760405162461bcd60e51b8152602060048201526024808201527f53444273776170526f757465723a20494e53554646494349454e545f415f414d60448201526313d5539560e21b60648201526084016107ec565b94508793505b505b5050965096945050505050565b60008261432657506000610582565b60006143328385614bf1565b90508261433f8583614bd1565b1461057f5760405162461bcd60e51b815260206004820152602160248201527f536166654d6174683a206d756c7469706c69636174696f6e206f766572666c6f60448201527f770000000000000000000000000000000000000000000000000000000000000060648201526084016107ec565b6000806143bf8385614bb9565b90508381101561057f5760405162461bcd60e51b815260206004820152601b60248201527f536166654d6174683a206164646974696f6e206f766572666c6f77000000000060448201526064016107ec565b60008060006144208585613f25565b50905060008061443188888861315a565b6001600160a01b0316630902f1ac6040518163ffffffff1660e01b815260040160606040518083038186803b15801561446957600080fd5b505afa15801561447d573d6000803e3d6000fd5b505050506040513d601f19601f820116820180604052508101906144a1919061488f565b506dffffffffffffffffffffffffffff1691506dffffffffffffffffffffffffffff169150826001600160a01b0316876001600160a01b0316146144e65780826144e9565b81815b90999098509650505050505050565b6000818484111561451c5760405162461bcd60e51b81526004016107ec9190614b78565b5060006145298486614c10565b95945050505050565b803561453d81614cb1565b919050565b60008083601f840112614553578081fd5b50813567ffffffffffffffff81111561456a578182fd5b6020830191508360208260051b850101111561402e57600080fd5b80516dffffffffffffffffffffffffffff8116811461453d57600080fd5b803560ff8116811461453d57600080fd5b6000602082840312156145c5578081fd5b813561057f81614cb1565b6000602082840312156145e1578081fd5b815161057f81614cb1565b600080600080600080600060e0888a031215614606578283fd5b873561461181614cb1565b9650602088013561462181614cb1565b955060408801359450606088013593506080880135925060a088013561464681614cb1565b8092505060c0880135905092959891949750929550565b60008060008060008060008060008060006101608c8e03121561467e578384fd5b8b3561468981614cb1565b9a5060208c013561469981614cb1565b995060408c0135985060608c0135975060808c0135965060a08c01356146be81614cb1565b955060c08c0135945060e08c01356146d581614cc9565b93506146e46101008d016145a3565b92506101208c013591506101408c013590509295989b509295989b9093969950565b600080600080600080600080610100898b031215614722578384fd5b883561472d81614cb1565b9750602089013561473d81614cb1565b965060408901359550606089013594506080890135935060a0890135925060c089013561476981614cb1565b8092505060e089013590509295985092959890939650565b60008060008060008060c08789031215614799578182fd5b86356147a481614cb1565b955060208701359450604087013593506060870135925060808701356147c981614cb1565b8092505060a087013590509295509295509295565b6000806000806000806000806000806101408b8d0312156147fd578384fd5b8a3561480881614cb1565b995060208b0135985060408b0135975060608b0135965060808b013561482d81614cb1565b955060a08b0135945060c08b013561484481614cc9565b935061485260e08c016145a3565b92506101008b013591506101208b013590509295989b9194979a5092959850565b600060208284031215614884578081fd5b815161057f81614cc9565b6000806000606084860312156148a3578081fd5b6148ac84614585565b92506148ba60208501614585565b9150604084015163ffffffff811681146148d2578182fd5b809150509250925092565b6000602082840312156148ee578081fd5b5051919050565b60008060008060006080868803121561490c578283fd5b85359450602086013567ffffffffffffffff811115614929578384fd5b61493588828901614542565b909550935050604086013561494981614cb1565b949793965091946060013592915050565b6000806040838503121561496c578182fd5b8235915060208084013567ffffffffffffffff8082111561498b578384fd5b818601915086601f83011261499e578384fd5b8135818111156149b0576149b0614c9b565b8060051b604051601f19603f830116810181811085821117156149d5576149d5614c9b565b604052828152858101935084860182860187018b10156149f3578788fd5b8795505b83861015614a1c57614a0881614532565b8552600195909501949386019386016149f7565b508096505050505050509250929050565b60008060408385031215614a3f578182fd5b505080516020909101519092909150565b60008060008060008060a08789031215614a68578384fd5b8635955060208701359450604087013567ffffffffffffffff811115614a8c578485fd5b614a9889828a01614542565b9095509350506060870135614aac81614cb1565b80925050608087013590509295509295509295565b600080600060608486031215614ad5578081fd5b505081359360208301359350604090920135919050565b60008151808452614b04816020860160208601614c27565b601f01601f19169290920160200192915050565b60008251614b2a818460208701614c27565b9190910192915050565b6020808252825182820181905260009190848201906040850190845b81811015614b6c57835183529284019291840191600101614b50565b50909695505050505050565b60208152600061057f6020830184614aec565b8481528360208201526001600160a01b0383166040820152608060608201526000613cce6080830184614aec565b60008219821115614bcc57614bcc614c85565b500190565b600082614bec57634e487b7160e01b81526012600452602481fd5b500490565b6000816000190483118215151615614c0b57614c0b614c85565b500290565b600082821015614c2257614c22614c85565b500390565b60005b83811015614c42578181015183820152602001614c2a565b838111156137945750506000910152565b600081614c6257614c62614c85565b506000190190565b6000600019821415614c7e57614c7e614c85565b5060010190565b634e487b7160e01b600052601160045260246000fd5b634e487b7160e01b600052604160045260246000fd5b6001600160a01b0381168114614cc657600080fd5b50565b8015158114614cc657600080fdfea26469706673582212208830007f880b9cefc27b54eb910d6063b265ea4c4c3e22b651453520baf41e3e64736f6c63430008040033",
  "immutableReferences": {
    "2817": [
      {
        "length": 32,
        "start": 1101
      },
      {
        "length": 32,
        "start": 1369
      },
      {
        "length": 32,
        "start": 1426
      },
      {
        "length": 32,
        "start": 1683
      },
      {
        "length": 32,
        "start": 2042
      },
      {
        "length": 32,
        "start": 2346
      },
      {
        "length": 32,
        "start": 3039
      },
      {
        "length": 32,
        "start": 4028
      },
      {
        "length": 32,
        "start": 4738
      },
      {
        "length": 32,
        "start": 5328
      },
      {
        "length": 32,
        "start": 5860
      },
      {
        "length": 32,
        "start": 6293
      },
      {
        "length": 32,
        "start": 6831
      },
      {
        "length": 32,
        "start": 7319
      },
      {
        "length": 32,
        "start": 7768
      },
      {
        "length": 32,
        "start": 8581
      },
      {
        "length": 32,
        "start": 9176
      },
      {
        "length": 32,
        "start": 10235
      },
      {
        "length": 32,
        "start": 10885
      },
      {
        "length": 32,
        "start": 11311
      },
      {
        "length": 32,
        "start": 13927
      },
      {
        "length": 32,
        "start": 14021
      },
      {
        "length": 32,
        "start": 14379
      },
      {
        "length": 32,
        "start": 14768
      },
      {
        "length": 32,
        "start": 16483
      },
      {
        "length": 32,
        "start": 16686
      },
      {
        "length": 32,
        "start": 16820
      }
    ],
    "2820": [
      {
        "length": 32,
        "start": 415
      },
      {
        "length": 32,
        "start": 910
      },
      {
        "length": 32,
        "start": 1717
      },
      {
        "length": 32,
        "start": 2686
      },
      {
        "length": 32,
        "start": 2873
      },
      {
        "length": 32,
        "start": 2989
      },
      {
        "length": 32,
        "start": 4552
      },
      {
        "length": 32,
        "start": 5080
      },
      {
        "length": 32,
        "start": 5362
      },
      {
        "length": 32,
        "start": 5675
      },
      {
        "length": 32,
        "start": 6087
      },
      {
        "length": 32,
        "start": 6243
      },
      {
        "length": 32,
        "start": 7134
      },
      {
        "length": 32,
        "start": 7562
      },
      {
        "length": 32,
        "start": 7718
      },
      {
        "length": 32,
        "start": 8188
      },
      {
        "length": 32,
        "start": 8387
      },
      {
        "length": 32,
        "start": 9298
      },
      {
        "length": 32,
        "start": 9601
      },
      {
        "length": 32,
        "start": 9853
      },
      {
        "length": 32,
        "start": 10049
      },
      {
        "length": 32,
        "start": 10543
      },
      {
        "length": 32,
        "start": 10622
      },
      {
        "length": 32,
        "start": 11259
      },
      {
        "length": 32,
        "start": 11345
      },
      {
        "length": 32,
        "start": 11397
      },
      {
        "length": 32,
        "start": 11546
      }
    ]
  },
  "source": "//SPDX-License-Identifier: UNLICENSED\r\npragma solidity ^0.8.4;\r\n\r\nimport '../interface/ISDBswapRouter02.sol';\r\nimport '../library/SafeMath.sol';\r\nimport '../interface/ISDBswapPair.sol';\r\nimport '../interface/ISDBswapFactory.sol';\r\nimport '../library/TransferHelper.sol';\r\nimport '../interface/IWBNB.sol';\r\nimport '../library/SDBswapLibrary.sol';\r\nimport '../interface/IBEP20.sol';\r\n\r\n\r\ncontract SDBswapRouter is ISDBswapRouter02 {\r\n    using SafeMath for uint;\r\n\r\n    address public immutable override factory;\r\n    address public immutable override WBNB;\r\n\r\n    modifier ensure(uint deadline) {\r\n        require(deadline >= block.timestamp, 'SDBswapRouter: EXPIRED');\r\n        _;\r\n    }\r\n\r\n    constructor(address _factory, address _WBNB) public {\r\n        factory = _factory;\r\n        WBNB = _WBNB;\r\n    }\r\n\r\n    receive() external payable {\r\n        assert(msg.sender == WBNB); // only accept BNB via fallback from the WBNB contract\r\n    }\r\n\r\n    // **** ADD LIQUIDITY ****\r\n    function addLiquidityFirst(\r\n        address tokenA,\r\n        address tokenB,\r\n        uint amountADesired,\r\n        uint amountBDesired,\r\n        uint amountAMin,\r\n        uint amountBMin\r\n    ) internal virtual returns (uint amountA, uint amountB) {\r\n        // create the pair if it doesn't exist yet\r\n        if (ISDBswapFactory(factory).getPair(tokenA, tokenB) == address(0)) {\r\n            ISDBswapFactory(factory).createPair(tokenA, tokenB);\r\n        }\r\n        (uint reserveA, uint reserveB) = SDBswapLibrary.getReserves(factory, tokenA, tokenB);\r\n        if (reserveA == 0 && reserveB == 0) {\r\n            (amountA, amountB) = (amountADesired, amountBDesired);\r\n        } else {\r\n            uint amountBOptimal = SDBswapLibrary.quote(amountADesired, reserveA, reserveB);\r\n            if (amountBOptimal <= amountBDesired) {\r\n                require(amountBOptimal >= amountBMin, 'SDBswapRouter: INSUFFICIENT_B_AMOUNT');\r\n                (amountA, amountB) = (amountADesired, amountBOptimal);\r\n            } else {\r\n                uint amountAOptimal = SDBswapLibrary.quote(amountBDesired, reserveB, reserveA);\r\n                assert(amountAOptimal <= amountADesired);\r\n                require(amountAOptimal >= amountAMin, 'SDBswapRouter: INSUFFICIENT_A_AMOUNT');\r\n                (amountA, amountB) = (amountAOptimal, amountBDesired);\r\n            }\r\n        }\r\n    }\r\n    function addLiquidity(\r\n        address tokenA,\r\n        address tokenB,\r\n        uint amountADesired,\r\n        uint amountBDesired,\r\n        uint amountAMin,\r\n        uint amountBMin,\r\n        address to,\r\n        uint deadline\r\n    ) external virtual override ensure(deadline) returns (uint amountA, uint amountB, uint liquidity) {\r\n        (amountA, amountB) = addLiquidityFirst(tokenA, tokenB, amountADesired, amountBDesired, amountAMin, amountBMin);\r\n       address pair = ISDBswapFactory(factory).getPair(tokenA, tokenB);\r\n        TransferHelper.safeTransferFrom(tokenA, msg.sender, pair, amountA);\r\n        TransferHelper.safeTransferFrom(tokenB, msg.sender, pair, amountB);\r\n        liquidity = ISDBswapPair(pair).mint(to);\r\n    }\r\n    function addLiquidityBNB(\r\n        address token,\r\n        uint amountTokenDesired,\r\n        uint amountTokenMin,\r\n        uint amountBNBMin,\r\n        address to,\r\n        uint deadline\r\n    ) external virtual override payable ensure(deadline) returns (uint amountToken, uint amountBNB, uint liquidity) {\r\n        (amountToken, amountBNB) = addLiquidityFirst(\r\n            token,\r\n            WBNB,\r\n            amountTokenDesired,\r\n            msg.value,\r\n            amountTokenMin,\r\n            amountBNBMin\r\n        );\r\n        address pair = SDBswapLibrary.pairFor(factory, token, WBNB);\r\n        TransferHelper.safeTransferFrom(token, msg.sender, pair, amountToken);\r\n        IWBNB(WBNB).deposit{value: amountBNB}();\r\n        assert(IWBNB(WBNB).transfer(pair, amountBNB));\r\n        liquidity = ISDBswapPair(pair).mint(to);\r\n        // refund dust BNB, if any\r\n        if (msg.value > amountBNB) TransferHelper.safeTransferBNB(msg.sender, msg.value - amountBNB);\r\n    }\r\n\r\n    // **** REMOVE LIQUIDITY ****\r\n    function removeLiquidity(\r\n        address tokenA,\r\n        address tokenB,\r\n        uint liquidity,\r\n        uint amountAMin,\r\n        uint amountBMin,\r\n        address to,\r\n        uint deadline\r\n    ) public virtual override ensure(deadline) returns (uint amountA, uint amountB) {\r\n        address pair = SDBswapLibrary.pairFor(factory, tokenA, tokenB);\r\n        ISDBswapPair(pair).transferFrom(msg.sender, pair, liquidity); // send liquidity to pair\r\n        (uint amount0, uint amount1) = ISDBswapPair(pair).burn(to);\r\n        (address token0,) = SDBswapLibrary.sortTokens(tokenA, tokenB);\r\n        (amountA, amountB) = tokenA == token0 ? (amount0, amount1) : (amount1, amount0);\r\n        require(amountA >= amountAMin, 'SDBswapRouter: INSUFFICIENT_A_AMOUNT');\r\n        require(amountB >= amountBMin, 'SDBswapRouter: INSUFFICIENT_B_AMOUNT');\r\n    }\r\n    function removeLiquidityBNB(\r\n        address token,\r\n        uint liquidity,\r\n        uint amountTokenMin,\r\n        uint amountBNBMin,\r\n        address to,\r\n        uint deadline\r\n    ) public virtual override ensure(deadline) returns (uint amountToken, uint amountBNB) {\r\n        (amountToken, amountBNB) = removeLiquidity(\r\n            token,\r\n            WBNB,\r\n            liquidity,\r\n            amountTokenMin,\r\n            amountBNBMin,\r\n            address(this),\r\n            deadline\r\n        );\r\n        TransferHelper.safeTransfer(token, to, amountToken);\r\n        IWBNB(WBNB).withdraw(amountBNB);\r\n        TransferHelper.safeTransferBNB(to, amountBNB);\r\n    }\r\n    function removeLiquidityWithPermit(\r\n        address tokenA,\r\n        address tokenB,\r\n        uint liquidity,\r\n        uint amountAMin,\r\n        uint amountBMin,\r\n        address to,\r\n        uint deadline,\r\n        bool approveMax, uint8 v, bytes32 r, bytes32 s\r\n    ) external virtual override returns (uint amountA, uint amountB) {\r\n        address pair = SDBswapLibrary.pairFor(factory, tokenA, tokenB);\r\n        uint value = approveMax ? type(uint128).max : liquidity;\r\n        ISDBswapPair(pair).permit(msg.sender, address(this), value, deadline, v, r, s);\r\n        (amountA, amountB) = removeLiquidity(tokenA, tokenB, liquidity, amountAMin, amountBMin, to, deadline);\r\n    }\r\n    function removeLiquidityBNBWithPermit(\r\n        address token,\r\n        uint liquidity,\r\n        uint amountTokenMin,\r\n        uint amountBNBMin,\r\n        address to,\r\n        uint deadline,\r\n        bool approveMax, uint8 v, bytes32 r, bytes32 s\r\n    ) external virtual override returns (uint amountToken, uint amountBNB) {\r\n        address pair = SDBswapLibrary.pairFor(factory, token, WBNB);\r\n        uint value = approveMax ? type(uint128).max : liquidity;\r\n        ISDBswapPair(pair).permit(msg.sender, address(this), value, deadline, v, r, s);\r\n        (amountToken, amountBNB) = removeLiquidityBNB(token, liquidity, amountTokenMin, amountBNBMin, to, deadline);\r\n    }\r\n\r\n    // **** REMOVE LIQUIDITY (supporting fee-on-transfer tokens) ****\r\n    function removeLiquidityBNBSupportingFeeOnTransferTokens(\r\n        address token,\r\n        uint liquidity,\r\n        uint amountTokenMin,\r\n        uint amountBNBMin,\r\n        address to,\r\n        uint deadline\r\n    ) public virtual override ensure(deadline) returns (uint amountBNB) {\r\n        (, amountBNB) = removeLiquidity(\r\n            token,\r\n            WBNB,\r\n            liquidity,\r\n            amountTokenMin,\r\n            amountBNBMin,\r\n            address(this),\r\n            deadline\r\n        );\r\n        TransferHelper.safeTransfer(token, to, IBEP20(token).balanceOf(address(this)));\r\n        IWBNB(WBNB).withdraw(amountBNB);\r\n        TransferHelper.safeTransferBNB(to, amountBNB);\r\n    }\r\n    function removeLiquidityBNBWithPermitSupportingFeeOnTransferTokens(\r\n        address token,\r\n        uint liquidity,\r\n        uint amountTokenMin,\r\n        uint amountBNBMin,\r\n        address to,\r\n        uint deadline,\r\n        bool approveMax, uint8 v, bytes32 r, bytes32 s\r\n    ) external virtual override returns (uint amountBNB) {\r\n        address pair = SDBswapLibrary.pairFor(factory, token, WBNB);\r\n        uint value = approveMax ? type(uint128).max : liquidity;\r\n        ISDBswapPair(pair).permit(msg.sender, address(this), value, deadline, v, r, s);\r\n        amountBNB = removeLiquidityBNBSupportingFeeOnTransferTokens(\r\n            token, liquidity, amountTokenMin, amountBNBMin, to, deadline\r\n        );\r\n    }\r\n\r\n    // **** SWAP ****\r\n    // requires the initial amount to have already been sent to the first pair\r\n    function _swap(uint[] memory amounts, address[] memory path, address _to) internal virtual {\r\n        for (uint i; i < path.length - 1; i++) {\r\n            (address input, address output) = (path[i], path[i + 1]);\r\n            (address token0,) = SDBswapLibrary.sortTokens(input, output);\r\n            uint amountOut = amounts[i + 1];\r\n            (uint amount0Out, uint amount1Out) = input == token0 ? (uint(0), amountOut) : (amountOut, uint(0));\r\n            address to = i < path.length - 2 ? SDBswapLibrary.pairFor(factory, output, path[i + 2]) : _to;\r\n            ISDBswapPair(SDBswapLibrary.pairFor(factory, input, output)).swap(\r\n                amount0Out, amount1Out, to, new bytes(0)\r\n            );\r\n        }\r\n    }\r\n    function swapExactTokensForTokens(\r\n        uint amountIn,\r\n        uint amountOutMin,\r\n        address[] calldata path,\r\n        address to,\r\n        uint deadline\r\n    ) external virtual override ensure(deadline) returns (uint[] memory amounts) {\r\n        amounts = SDBswapLibrary.getAmountsOut(factory, amountIn, path);\r\n        require(amounts[amounts.length - 1] >= amountOutMin, 'SDBswapRouter: INSUFFICIENT_OUTPUT_AMOUNT');\r\n        TransferHelper.safeTransferFrom(\r\n            path[0], msg.sender, SDBswapLibrary.pairFor(factory, path[0], path[1]), amounts[0]\r\n        );\r\n        _swap(amounts, path, to);\r\n    }\r\n    function swapTokensForExactTokens(\r\n        uint amountOut,\r\n        uint amountInMax,\r\n        address[] calldata path,\r\n        address to,\r\n        uint deadline\r\n    ) external virtual override ensure(deadline) returns (uint[] memory amounts) {\r\n        amounts = SDBswapLibrary.getAmountsIn(factory, amountOut, path);\r\n        require(amounts[0] <= amountInMax, 'SDBswapRouter: EXCESSIVE_INPUT_AMOUNT');\r\n        TransferHelper.safeTransferFrom(\r\n            path[0], msg.sender, SDBswapLibrary.pairFor(factory, path[0], path[1]), amounts[0]\r\n        );\r\n        _swap(amounts, path, to);\r\n    }\r\n    function swapExactBNBForTokens(uint amountOutMin, address[] calldata path, address to, uint deadline)\r\n        external\r\n        virtual\r\n        override\r\n        payable\r\n        ensure(deadline)\r\n        returns (uint[] memory amounts)\r\n    {\r\n        require(path[0] == WBNB, 'SDBswapRouter: INVALID_PATH');\r\n        amounts = SDBswapLibrary.getAmountsOut(factory, msg.value, path);\r\n        require(amounts[amounts.length - 1] >= amountOutMin, 'SDBswapRouter: INSUFFICIENT_OUTPUT_AMOUNT');\r\n        IWBNB(WBNB).deposit{value: amounts[0]}();\r\n        assert(IWBNB(WBNB).transfer(SDBswapLibrary.pairFor(factory, path[0], path[1]), amounts[0]));\r\n        _swap(amounts, path, to);\r\n    }\r\n    function swapTokensForExactBNB(uint amountOut, uint amountInMax, address[] calldata path, address to, uint deadline)\r\n        external\r\n        virtual\r\n        override\r\n        ensure(deadline)\r\n        returns (uint[] memory amounts)\r\n    {\r\n        require(path[path.length - 1] == WBNB, 'SDBswapRouter: INVALID_PATH');\r\n        amounts = SDBswapLibrary.getAmountsIn(factory, amountOut, path);\r\n        require(amounts[0] <= amountInMax, 'SDBswapRouter: EXCESSIVE_INPUT_AMOUNT');\r\n        TransferHelper.safeTransferFrom(\r\n            path[0], msg.sender, SDBswapLibrary.pairFor(factory, path[0], path[1]), amounts[0]\r\n        );\r\n        _swap(amounts, path, address(this));\r\n        IWBNB(WBNB).withdraw(amounts[amounts.length - 1]);\r\n        TransferHelper.safeTransferBNB(to, amounts[amounts.length - 1]);\r\n    }\r\n    function swapExactTokensForBNB(uint amountIn, uint amountOutMin, address[] calldata path, address to, uint deadline)\r\n        external\r\n        virtual\r\n        override\r\n        ensure(deadline)\r\n        returns (uint[] memory amounts)\r\n    {\r\n        require(path[path.length - 1] == WBNB, 'SDBswapRouter: INVALID_PATH');\r\n        amounts = SDBswapLibrary.getAmountsOut(factory, amountIn, path);\r\n        require(amounts[amounts.length - 1] >= amountOutMin, 'SDBswapRouter: INSUFFICIENT_OUTPUT_AMOUNT');\r\n        TransferHelper.safeTransferFrom(\r\n            path[0], msg.sender, SDBswapLibrary.pairFor(factory, path[0], path[1]), amounts[0]\r\n        );\r\n        _swap(amounts, path, address(this));\r\n        IWBNB(WBNB).withdraw(amounts[amounts.length - 1]);\r\n        TransferHelper.safeTransferBNB(to, amounts[amounts.length - 1]);\r\n    }\r\n    function swapBNBForExactTokens(uint amountOut, address[] calldata path, address to, uint deadline)\r\n        external\r\n        virtual\r\n        override\r\n        payable\r\n        ensure(deadline)\r\n        returns (uint[] memory amounts)\r\n    {\r\n        require(path[0] == WBNB, 'SDBswapRouter: INVALID_PATH');\r\n        amounts = SDBswapLibrary.getAmountsIn(factory, amountOut, path);\r\n        require(amounts[0] <= msg.value, 'SDBswapRouter: EXCESSIVE_INPUT_AMOUNT');\r\n        IWBNB(WBNB).deposit{value: amounts[0]}();\r\n        assert(IWBNB(WBNB).transfer(SDBswapLibrary.pairFor(factory, path[0], path[1]), amounts[0]));\r\n        _swap(amounts, path, to);\r\n        // refund dust BNB, if any\r\n        if (msg.value > amounts[0]) TransferHelper.safeTransferBNB(msg.sender, msg.value - amounts[0]);\r\n    }\r\n\r\n    // **** SWAP (supporting fee-on-transfer tokens) ****\r\n    // requires the initial amount to have already been sent to the first pair\r\n    function _swapSupportingFeeOnTransferTokens(address[] memory path, address _to) internal virtual {\r\n        for (uint i; i < path.length - 1; i++) {\r\n            (address input, address output) = (path[i], path[i + 1]);\r\n            (address token0,) = SDBswapLibrary.sortTokens(input, output);\r\n            ISDBswapPair pair = ISDBswapPair(SDBswapLibrary.pairFor(factory, input, output));\r\n            uint amountInput;\r\n            uint amountOutput;\r\n            { // scope to avoid stack too deep errors\r\n            (uint reserve0, uint reserve1,) = pair.getReserves();\r\n            (uint reserveInput, uint reserveOutput) = input == token0 ? (reserve0, reserve1) : (reserve1, reserve0);\r\n            amountInput = IBEP20(input).balanceOf(address(pair)).sub(reserveInput);\r\n            amountOutput = SDBswapLibrary.getAmountOut(amountInput, reserveInput, reserveOutput);\r\n            }\r\n            (uint amount0Out, uint amount1Out) = input == token0 ? (uint(0), amountOutput) : (amountOutput, uint(0));\r\n            address to = i < path.length - 2 ? SDBswapLibrary.pairFor(factory, output, path[i + 2]) : _to;\r\n            pair.swap(amount0Out, amount1Out, to, new bytes(0));\r\n        }\r\n    }\r\n    function swapExactTokensForTokensSupportingFeeOnTransferTokens(\r\n        uint amountIn,\r\n        uint amountOutMin,\r\n        address[] calldata path,\r\n        address to,\r\n        uint deadline\r\n    ) external virtual override ensure(deadline) {\r\n        TransferHelper.safeTransferFrom(\r\n            path[0], msg.sender, SDBswapLibrary.pairFor(factory, path[0], path[1]), amountIn\r\n        );\r\n        uint balanceBefore = IBEP20(path[path.length - 1]).balanceOf(to);\r\n        _swapSupportingFeeOnTransferTokens(path, to);\r\n        require(\r\n            IBEP20(path[path.length - 1]).balanceOf(to).sub(balanceBefore) >= amountOutMin,\r\n            'SDBswapRouter: INSUFFICIENT_OUTPUT_AMOUNT'\r\n        );\r\n    }\r\n    function swapExactBNBForTokensSupportingFeeOnTransferTokens(\r\n        uint amountOutMin,\r\n        address[] calldata path,\r\n        address to,\r\n        uint deadline\r\n    )\r\n        external\r\n        virtual\r\n        override\r\n        payable\r\n        ensure(deadline)\r\n    {\r\n        require(path[0] == WBNB, 'SDBswapRouter: INVALID_PATH');\r\n        uint amountIn = msg.value;\r\n        IWBNB(WBNB).deposit{value: amountIn}();\r\n        assert(IWBNB(WBNB).transfer(SDBswapLibrary.pairFor(factory, path[0], path[1]), amountIn));\r\n        uint balanceBefore = IBEP20(path[path.length - 1]).balanceOf(to);\r\n        _swapSupportingFeeOnTransferTokens(path, to);\r\n        require(\r\n            IBEP20(path[path.length - 1]).balanceOf(to).sub(balanceBefore) >= amountOutMin,\r\n            'SDBswapRouter: INSUFFICIENT_OUTPUT_AMOUNT'\r\n        );\r\n    }\r\n    function swapExactTokensForBNBSupportingFeeOnTransferTokens(\r\n        uint amountIn,\r\n        uint amountOutMin,\r\n        address[] calldata path,\r\n        address to,\r\n        uint deadline\r\n    )\r\n        external\r\n        virtual\r\n        override\r\n        ensure(deadline)\r\n    {\r\n        require(path[path.length - 1] == WBNB, 'SDBswapRouter: INVALID_PATH');\r\n        TransferHelper.safeTransferFrom(\r\n            path[0], msg.sender, SDBswapLibrary.pairFor(factory, path[0], path[1]), amountIn\r\n        );\r\n        _swapSupportingFeeOnTransferTokens(path, address(this));\r\n        uint amountOut = IBEP20(WBNB).balanceOf(address(this));\r\n        require(amountOut >= amountOutMin, 'SDBswapRouter: INSUFFICIENT_OUTPUT_AMOUNT');\r\n        IWBNB(WBNB).withdraw(amountOut);\r\n        TransferHelper.safeTransferBNB(to, amountOut);\r\n    }\r\n\r\n    // **** LIBRARY FUNCTIONS ****\r\n    function quote(uint amountA, uint reserveA, uint reserveB) public pure virtual override returns (uint amountB) {\r\n        return SDBswapLibrary.quote(amountA, reserveA, reserveB);\r\n    }\r\n\r\n    function getAmountOut(uint amountIn, uint reserveIn, uint reserveOut)\r\n        public\r\n        pure\r\n        virtual\r\n        override\r\n        returns (uint amountOut)\r\n    {\r\n        return SDBswapLibrary.getAmountOut(amountIn, reserveIn, reserveOut);\r\n    }\r\n\r\n    function getAmountIn(uint amountOut, uint reserveIn, uint reserveOut)\r\n        public\r\n        pure\r\n        virtual\r\n        override\r\n        returns (uint amountIn)\r\n    {\r\n        return SDBswapLibrary.getAmountIn(amountOut, reserveIn, reserveOut);\r\n    }\r\n\r\n    function getAmountsOut(uint amountIn, address[] memory path)\r\n        public\r\n        view\r\n        virtual\r\n        override\r\n        returns (uint[] memory amounts)\r\n    {\r\n        return SDBswapLibrary.getAmountsOut(factory, amountIn, path);\r\n    }\r\n\r\n    function getAmountsIn(uint amountOut, address[] memory path)\r\n        public\r\n        view\r\n        virtual\r\n        override\r\n        returns (uint[] memory amounts)\r\n    {\r\n        return SDBswapLibrary.getAmountsIn(factory, amountOut, path);\r\n    }\r\n}",
  "sourcePath": "C:/Users/kolam/Desktop/safeSDB/safedepositbox-smartcontracts/contracts/SDB-swap-periphery/SDBswapRouter.sol",
  "compiler": {
    "name": "solc",
    "version": "0.8.4+commit.c7e474f2.Emscripten.clang"
  },
  "schemaVersion": "3.4.1",
  "updatedAt": "2021-07-21T08:49:56.470Z",
  "devdoc": {
    "kind": "dev",
    "methods": {},
    "version": 1
  },
  "userdoc": {
    "kind": "user",
    "methods": {},
    "version": 1
  }
}