{
  "contractName": "SDBswapRouter01",
  "abi": [
    {
      "inputs": [
        {
          "internalType": "address",
          "name": "_factory",
          "type": "address"
        },
        {
          "internalType": "address",
          "name": "_WBNB",
          "type": "address"
        }
      ],
      "stateMutability": "nonpayable",
      "type": "constructor"
    },
    {
      "inputs": [],
      "name": "MAX",
      "outputs": [
        {
          "internalType": "uint256",
          "name": "",
          "type": "uint256"
        }
      ],
      "stateMutability": "view",
      "type": "function"
    },
    {
      "inputs": [],
      "name": "WBNB",
      "outputs": [
        {
          "internalType": "address",
          "name": "",
          "type": "address"
        }
      ],
      "stateMutability": "view",
      "type": "function"
    },
    {
      "inputs": [],
      "name": "factory",
      "outputs": [
        {
          "internalType": "address",
          "name": "",
          "type": "address"
        }
      ],
      "stateMutability": "view",
      "type": "function"
    },
    {
      "stateMutability": "payable",
      "type": "receive"
    },
    {
      "inputs": [
        {
          "internalType": "address",
          "name": "tokenA",
          "type": "address"
        },
        {
          "internalType": "address",
          "name": "tokenB",
          "type": "address"
        },
        {
          "internalType": "uint256",
          "name": "amountADesired",
          "type": "uint256"
        },
        {
          "internalType": "uint256",
          "name": "amountBDesired",
          "type": "uint256"
        },
        {
          "internalType": "uint256",
          "name": "amountAMin",
          "type": "uint256"
        },
        {
          "internalType": "uint256",
          "name": "amountBMin",
          "type": "uint256"
        },
        {
          "internalType": "address",
          "name": "to",
          "type": "address"
        },
        {
          "internalType": "uint256",
          "name": "deadline",
          "type": "uint256"
        }
      ],
      "name": "addLiquidity",
      "outputs": [
        {
          "internalType": "uint256",
          "name": "amountA",
          "type": "uint256"
        },
        {
          "internalType": "uint256",
          "name": "amountB",
          "type": "uint256"
        },
        {
          "internalType": "uint256",
          "name": "liquidity",
          "type": "uint256"
        }
      ],
      "stateMutability": "nonpayable",
      "type": "function"
    },
    {
      "inputs": [
        {
          "internalType": "address",
          "name": "token",
          "type": "address"
        },
        {
          "internalType": "uint256",
          "name": "amountTokenDesired",
          "type": "uint256"
        },
        {
          "internalType": "uint256",
          "name": "amountTokenMin",
          "type": "uint256"
        },
        {
          "internalType": "uint256",
          "name": "amountBNBMin",
          "type": "uint256"
        },
        {
          "internalType": "address",
          "name": "to",
          "type": "address"
        },
        {
          "internalType": "uint256",
          "name": "deadline",
          "type": "uint256"
        }
      ],
      "name": "addLiquidityBNB",
      "outputs": [
        {
          "internalType": "uint256",
          "name": "amountToken",
          "type": "uint256"
        },
        {
          "internalType": "uint256",
          "name": "amountBNB",
          "type": "uint256"
        },
        {
          "internalType": "uint256",
          "name": "liquidity",
          "type": "uint256"
        }
      ],
      "stateMutability": "payable",
      "type": "function"
    },
    {
      "inputs": [
        {
          "internalType": "address",
          "name": "tokenA",
          "type": "address"
        },
        {
          "internalType": "address",
          "name": "tokenB",
          "type": "address"
        },
        {
          "internalType": "uint256",
          "name": "liquidity",
          "type": "uint256"
        },
        {
          "internalType": "uint256",
          "name": "amountAMin",
          "type": "uint256"
        },
        {
          "internalType": "uint256",
          "name": "amountBMin",
          "type": "uint256"
        },
        {
          "internalType": "address",
          "name": "to",
          "type": "address"
        },
        {
          "internalType": "uint256",
          "name": "deadline",
          "type": "uint256"
        }
      ],
      "name": "removeLiquidity",
      "outputs": [
        {
          "internalType": "uint256",
          "name": "amountA",
          "type": "uint256"
        },
        {
          "internalType": "uint256",
          "name": "amountB",
          "type": "uint256"
        }
      ],
      "stateMutability": "nonpayable",
      "type": "function"
    },
    {
      "inputs": [
        {
          "internalType": "address",
          "name": "token",
          "type": "address"
        },
        {
          "internalType": "uint256",
          "name": "liquidity",
          "type": "uint256"
        },
        {
          "internalType": "uint256",
          "name": "amountTokenMin",
          "type": "uint256"
        },
        {
          "internalType": "uint256",
          "name": "amountBNBMin",
          "type": "uint256"
        },
        {
          "internalType": "address",
          "name": "to",
          "type": "address"
        },
        {
          "internalType": "uint256",
          "name": "deadline",
          "type": "uint256"
        }
      ],
      "name": "removeLiquidityBNB",
      "outputs": [
        {
          "internalType": "uint256",
          "name": "amountToken",
          "type": "uint256"
        },
        {
          "internalType": "uint256",
          "name": "amountBNB",
          "type": "uint256"
        }
      ],
      "stateMutability": "nonpayable",
      "type": "function"
    },
    {
      "inputs": [
        {
          "internalType": "address",
          "name": "tokenA",
          "type": "address"
        },
        {
          "internalType": "address",
          "name": "tokenB",
          "type": "address"
        },
        {
          "internalType": "uint256",
          "name": "liquidity",
          "type": "uint256"
        },
        {
          "internalType": "uint256",
          "name": "amountAMin",
          "type": "uint256"
        },
        {
          "internalType": "uint256",
          "name": "amountBMin",
          "type": "uint256"
        },
        {
          "internalType": "address",
          "name": "to",
          "type": "address"
        },
        {
          "internalType": "uint256",
          "name": "deadline",
          "type": "uint256"
        },
        {
          "internalType": "bool",
          "name": "approveMax",
          "type": "bool"
        },
        {
          "internalType": "uint8",
          "name": "v",
          "type": "uint8"
        },
        {
          "internalType": "bytes32",
          "name": "r",
          "type": "bytes32"
        },
        {
          "internalType": "bytes32",
          "name": "s",
          "type": "bytes32"
        }
      ],
      "name": "removeLiquidityWithPermit",
      "outputs": [
        {
          "internalType": "uint256",
          "name": "amountA",
          "type": "uint256"
        },
        {
          "internalType": "uint256",
          "name": "amountB",
          "type": "uint256"
        }
      ],
      "stateMutability": "nonpayable",
      "type": "function"
    },
    {
      "inputs": [
        {
          "internalType": "address",
          "name": "token",
          "type": "address"
        },
        {
          "internalType": "uint256",
          "name": "liquidity",
          "type": "uint256"
        },
        {
          "internalType": "uint256",
          "name": "amountTokenMin",
          "type": "uint256"
        },
        {
          "internalType": "uint256",
          "name": "amountBNBMin",
          "type": "uint256"
        },
        {
          "internalType": "address",
          "name": "to",
          "type": "address"
        },
        {
          "internalType": "uint256",
          "name": "deadline",
          "type": "uint256"
        },
        {
          "internalType": "bool",
          "name": "approveMax",
          "type": "bool"
        },
        {
          "internalType": "uint8",
          "name": "v",
          "type": "uint8"
        },
        {
          "internalType": "bytes32",
          "name": "r",
          "type": "bytes32"
        },
        {
          "internalType": "bytes32",
          "name": "s",
          "type": "bytes32"
        }
      ],
      "name": "removeLiquidityBNBWithPermit",
      "outputs": [
        {
          "internalType": "uint256",
          "name": "amountToken",
          "type": "uint256"
        },
        {
          "internalType": "uint256",
          "name": "amountBNB",
          "type": "uint256"
        }
      ],
      "stateMutability": "nonpayable",
      "type": "function"
    },
    {
      "inputs": [
        {
          "internalType": "uint256",
          "name": "amountIn",
          "type": "uint256"
        },
        {
          "internalType": "uint256",
          "name": "amountOutMin",
          "type": "uint256"
        },
        {
          "internalType": "address[]",
          "name": "path",
          "type": "address[]"
        },
        {
          "internalType": "address",
          "name": "to",
          "type": "address"
        },
        {
          "internalType": "uint256",
          "name": "deadline",
          "type": "uint256"
        }
      ],
      "name": "swapExactTokensForTokens",
      "outputs": [
        {
          "internalType": "uint256[]",
          "name": "amounts",
          "type": "uint256[]"
        }
      ],
      "stateMutability": "nonpayable",
      "type": "function"
    },
    {
      "inputs": [
        {
          "internalType": "uint256",
          "name": "amountOut",
          "type": "uint256"
        },
        {
          "internalType": "uint256",
          "name": "amountInMax",
          "type": "uint256"
        },
        {
          "internalType": "address[]",
          "name": "path",
          "type": "address[]"
        },
        {
          "internalType": "address",
          "name": "to",
          "type": "address"
        },
        {
          "internalType": "uint256",
          "name": "deadline",
          "type": "uint256"
        }
      ],
      "name": "swapTokensForExactTokens",
      "outputs": [
        {
          "internalType": "uint256[]",
          "name": "amounts",
          "type": "uint256[]"
        }
      ],
      "stateMutability": "nonpayable",
      "type": "function"
    },
    {
      "inputs": [
        {
          "internalType": "uint256",
          "name": "amountOutMin",
          "type": "uint256"
        },
        {
          "internalType": "address[]",
          "name": "path",
          "type": "address[]"
        },
        {
          "internalType": "address",
          "name": "to",
          "type": "address"
        },
        {
          "internalType": "uint256",
          "name": "deadline",
          "type": "uint256"
        }
      ],
      "name": "swapExactBNBForTokens",
      "outputs": [
        {
          "internalType": "uint256[]",
          "name": "amounts",
          "type": "uint256[]"
        }
      ],
      "stateMutability": "payable",
      "type": "function"
    },
    {
      "inputs": [
        {
          "internalType": "uint256",
          "name": "amountOut",
          "type": "uint256"
        },
        {
          "internalType": "uint256",
          "name": "amountInMax",
          "type": "uint256"
        },
        {
          "internalType": "address[]",
          "name": "path",
          "type": "address[]"
        },
        {
          "internalType": "address",
          "name": "to",
          "type": "address"
        },
        {
          "internalType": "uint256",
          "name": "deadline",
          "type": "uint256"
        }
      ],
      "name": "swapTokensForExactBNB",
      "outputs": [
        {
          "internalType": "uint256[]",
          "name": "amounts",
          "type": "uint256[]"
        }
      ],
      "stateMutability": "nonpayable",
      "type": "function"
    },
    {
      "inputs": [
        {
          "internalType": "uint256",
          "name": "amountIn",
          "type": "uint256"
        },
        {
          "internalType": "uint256",
          "name": "amountOutMin",
          "type": "uint256"
        },
        {
          "internalType": "address[]",
          "name": "path",
          "type": "address[]"
        },
        {
          "internalType": "address",
          "name": "to",
          "type": "address"
        },
        {
          "internalType": "uint256",
          "name": "deadline",
          "type": "uint256"
        }
      ],
      "name": "swapExactTokensForBNB",
      "outputs": [
        {
          "internalType": "uint256[]",
          "name": "amounts",
          "type": "uint256[]"
        }
      ],
      "stateMutability": "nonpayable",
      "type": "function"
    },
    {
      "inputs": [
        {
          "internalType": "uint256",
          "name": "amountOut",
          "type": "uint256"
        },
        {
          "internalType": "address[]",
          "name": "path",
          "type": "address[]"
        },
        {
          "internalType": "address",
          "name": "to",
          "type": "address"
        },
        {
          "internalType": "uint256",
          "name": "deadline",
          "type": "uint256"
        }
      ],
      "name": "swapBNBForExactTokens",
      "outputs": [
        {
          "internalType": "uint256[]",
          "name": "amounts",
          "type": "uint256[]"
        }
      ],
      "stateMutability": "payable",
      "type": "function"
    },
    {
      "inputs": [
        {
          "internalType": "uint256",
          "name": "amountA",
          "type": "uint256"
        },
        {
          "internalType": "uint256",
          "name": "reserveA",
          "type": "uint256"
        },
        {
          "internalType": "uint256",
          "name": "reserveB",
          "type": "uint256"
        }
      ],
      "name": "quote",
      "outputs": [
        {
          "internalType": "uint256",
          "name": "amountB",
          "type": "uint256"
        }
      ],
      "stateMutability": "pure",
      "type": "function"
    },
    {
      "inputs": [
        {
          "internalType": "uint256",
          "name": "amountIn",
          "type": "uint256"
        },
        {
          "internalType": "uint256",
          "name": "reserveIn",
          "type": "uint256"
        },
        {
          "internalType": "uint256",
          "name": "reserveOut",
          "type": "uint256"
        }
      ],
      "name": "getAmountOut",
      "outputs": [
        {
          "internalType": "uint256",
          "name": "amountOut",
          "type": "uint256"
        }
      ],
      "stateMutability": "pure",
      "type": "function"
    },
    {
      "inputs": [
        {
          "internalType": "uint256",
          "name": "amountOut",
          "type": "uint256"
        },
        {
          "internalType": "uint256",
          "name": "reserveIn",
          "type": "uint256"
        },
        {
          "internalType": "uint256",
          "name": "reserveOut",
          "type": "uint256"
        }
      ],
      "name": "getAmountIn",
      "outputs": [
        {
          "internalType": "uint256",
          "name": "amountIn",
          "type": "uint256"
        }
      ],
      "stateMutability": "pure",
      "type": "function"
    },
    {
      "inputs": [
        {
          "internalType": "uint256",
          "name": "amountIn",
          "type": "uint256"
        },
        {
          "internalType": "address[]",
          "name": "path",
          "type": "address[]"
        }
      ],
      "name": "getAmountsOut",
      "outputs": [
        {
          "internalType": "uint256[]",
          "name": "amounts",
          "type": "uint256[]"
        }
      ],
      "stateMutability": "view",
      "type": "function"
    },
    {
      "inputs": [
        {
          "internalType": "uint256",
          "name": "amountOut",
          "type": "uint256"
        },
        {
          "internalType": "address[]",
          "name": "path",
          "type": "address[]"
        }
      ],
      "name": "getAmountsIn",
      "outputs": [
        {
          "internalType": "uint256[]",
          "name": "amounts",
          "type": "uint256[]"
        }
      ],
      "stateMutability": "view",
      "type": "function"
    }
  ],
  "bytecode": "0x60c06040523480156200001157600080fd5b5060405162003e2f38038062003e2f833981016040819052620000349162000070565b6001600160601b0319606092831b8116608052911b1660a052620000a7565b80516001600160a01b03811681146200006b57600080fd5b919050565b6000806040838503121562000083578182fd5b6200008e8362000053565b91506200009e6020840162000053565b90509250929050565b60805160601c60a05160601c613c52620001dd60003960008181610173015281816102ef015281816105de015281816109a301528181610bb301528181610cf101528181610e8d01528181610f29015281816112cd0152818161147901528181611515015281816119bc01528181611baa01528181611c1201528181611e1701528181611e6d01528181611ea10152611f3601526000818161038e01528181610490015281816104c9015281816105bc015281816107150152818161084501528181610a5d01528181610daa01528181610f5b0152818161119e0152818161138601528181611547015281816116ed0152818161194001528181611a7601528181611cf501528181611e4b01528181612883015281816128e101528181612e4201528181612f0d0152612f930152613c526000f3fe6080604052600436106101635760003560e01c80639cf68911116100c0578063d49d518111610074578063e058848811610059578063e058848814610406578063e8e3370014610426578063eaaed4421461046157600080fd5b8063d49d5181146103d0578063d67b571e146103e657600080fd5b8063baa2abde116100a5578063baa2abde1461035c578063c45a01551461037c578063d06ca61f146103b057600080fd5b80639cf6891114610329578063ad615dec1461033c57600080fd5b80635d616c5b1161011757806385f8c259116100fc57806385f8c259146101b55780638803dbee146102bd5780638dd95002146102dd57600080fd5b80635d616c5b1461028a5780638332a963146102aa57600080fd5b80632195995c116101485780632195995c1461021557806334a0772d1461024a57806338ed17391461026a57600080fd5b8063054d50d4146101b55780631f00ca74146101e857600080fd5b366101b057336001600160a01b037f000000000000000000000000000000000000000000000000000000000000000016146101ae57634e487b7160e01b600052600160045260246000fd5b005b600080fd5b3480156101c157600080fd5b506101d56101d0366004613a06565b610474565b6040519081526020015b60405180910390f35b3480156101f457600080fd5b5061020861020336600461389f565b610489565b6040516101df9190613a79565b34801561022157600080fd5b506102356102303660046135a2565b6104bf565b604080519283526020830191909152016101df565b34801561025657600080fd5b50610235610265366004613723565b6105b2565b34801561027657600080fd5b50610208610285366004613995565b6106bf565b34801561029657600080fd5b506102086102a5366004613995565b61094d565b6102086102b836600461383a565b610ca3565b3480156102c957600080fd5b506102086102d8366004613995565b61114d565b3480156102e957600080fd5b506103117f000000000000000000000000000000000000000000000000000000000000000081565b6040516001600160a01b0390911681526020016101df565b61020861033736600461383a565b61127f565b34801561034857600080fd5b506101d5610357366004613a06565b61168c565b34801561036857600080fd5b50610235610377366004613531565b611699565b34801561038857600080fd5b506103117f000000000000000000000000000000000000000000000000000000000000000081565b3480156103bc57600080fd5b506102086103cb36600461389f565b611939565b3480156103dc57600080fd5b506101d560001981565b3480156103f257600080fd5b50610208610401366004613995565b611966565b34801561041257600080fd5b506102356104213660046136c6565b611b57565b34801561043257600080fd5b5061044661044136600461364b565b611c8c565b604080519384526020840192909252908201526060016101df565b61044661046f3660046136c6565b611dc2565b6000610481848484612071565b949350505050565b60606104b67f0000000000000000000000000000000000000000000000000000000000000000848461218c565b90505b92915050565b60008060006104ef7f00000000000000000000000000000000000000000000000000000000000000008f8f612376565b90506000876104fe578c610502565b6000195b60405163d505accf60e01b815233600482015230602482015260448101829052606481018b905260ff8916608482015260a4810188905260c481018790529091506001600160a01b0383169063d505accf9060e401600060405180830381600087803b15801561057157600080fd5b505af1158015610585573d6000803e3d6000fd5b505050506105988f8f8f8f8f8f8f611699565b809450819550505050509b509b9950505050505050505050565b60008060006106027f00000000000000000000000000000000000000000000000000000000000000008e7f0000000000000000000000000000000000000000000000000000000000000000612376565b9050600087610611578c610615565b6000195b60405163d505accf60e01b815233600482015230602482015260448101829052606481018b905260ff8916608482015260a4810188905260c481018790529091506001600160a01b0383169063d505accf9060e401600060405180830381600087803b15801561068457600080fd5b505af1158015610698573d6000803e3d6000fd5b505050506106aa8e8e8e8e8e8e611b57565b909f909e509c50505050505050505050505050565b606081428110156107105760405162461bcd60e51b815260206004820152601660248201527514d1189cddd85c149bdd5d195c8e881156141254915160521b60448201526064015b60405180910390fd5b61076e7f00000000000000000000000000000000000000000000000000000000000000008988888080602002602001604051908101604052809392919081815260200183836020028082843760009201919091525061244d92505050565b91508682600184516107809190613b55565b8151811061079e57634e487b7160e01b600052603260045260246000fd5b602002602001015110156108065760405162461bcd60e51b815260206004820152602960248201527f53446273776170526f757465723a20494e53554646494349454e545f4f555450604482015268155517d05353d5539560ba1b6064820152608401610707565b6109038686600081811061082a57634e487b7160e01b600052603260045260246000fd5b905060200201602081019061083f91906134f9565b336108d57f00000000000000000000000000000000000000000000000000000000000000008a8a600081811061088557634e487b7160e01b600052603260045260246000fd5b905060200201602081019061089a91906134f9565b8b8b60018181106108bb57634e487b7160e01b600052603260045260246000fd5b90506020020160208101906108d091906134f9565b612376565b856000815181106108f657634e487b7160e01b600052603260045260246000fd5b6020026020010151612617565b61094282878780806020026020016040519081016040528093929190818152602001838360200280828437600092019190915250899250612776915050565b509695505050505050565b606081428110156109995760405162461bcd60e51b815260206004820152601660248201527514d1189cddd85c149bdd5d195c8e881156141254915160521b6044820152606401610707565b6001600160a01b037f00000000000000000000000000000000000000000000000000000000000000001686866109d0600182613b55565b8181106109ed57634e487b7160e01b600052603260045260246000fd5b9050602002016020810190610a0291906134f9565b6001600160a01b031614610a585760405162461bcd60e51b815260206004820152601b60248201527f50616e63616b65526f757465723a20494e56414c49445f5041544800000000006044820152606401610707565b610ab67f00000000000000000000000000000000000000000000000000000000000000008988888080602002602001604051908101604052809392919081815260200183836020028082843760009201919091525061244d92505050565b9150868260018451610ac89190613b55565b81518110610ae657634e487b7160e01b600052603260045260246000fd5b60200260200101511015610b4e5760405162461bcd60e51b815260206004820152602960248201527f50616e63616b65526f757465723a20494e53554646494349454e545f4f555450604482015268155517d05353d5539560ba1b6064820152608401610707565b610b728686600081811061082a57634e487b7160e01b600052603260045260246000fd5b610bb182878780806020026020016040519081016040528093929190818152602001838360200280828437600092019190915250309250612776915050565b7f00000000000000000000000000000000000000000000000000000000000000006001600160a01b0316632e1a7d4d8360018551610bef9190613b55565b81518110610c0d57634e487b7160e01b600052603260045260246000fd5b60200260200101516040518263ffffffff1660e01b8152600401610c3391815260200190565b600060405180830381600087803b158015610c4d57600080fd5b505af1158015610c61573d6000803e3d6000fd5b50505050610942848360018551610c789190613b55565b81518110610c9657634e487b7160e01b600052603260045260246000fd5b60200260200101516129b6565b60608142811015610cef5760405162461bcd60e51b815260206004820152601660248201527514d1189cddd85c149bdd5d195c8e881156141254915160521b6044820152606401610707565b7f00000000000000000000000000000000000000000000000000000000000000006001600160a01b031686866000818110610d3a57634e487b7160e01b600052603260045260246000fd5b9050602002016020810190610d4f91906134f9565b6001600160a01b031614610da55760405162461bcd60e51b815260206004820152601b60248201527f50616e63616b65526f757465723a20494e56414c49445f5041544800000000006044820152606401610707565b610e037f00000000000000000000000000000000000000000000000000000000000000008888888080602002602001604051908101604052809392919081815260200183836020028082843760009201919091525061218c92505050565b91503482600081518110610e2757634e487b7160e01b600052603260045260246000fd5b60200260200101511115610e8b5760405162461bcd60e51b815260206004820152602560248201527f50616e63616b65526f757465723a204558434553534956455f494e5055545f416044820152641353d5539560da1b6064820152608401610707565b7f00000000000000000000000000000000000000000000000000000000000000006001600160a01b031663d0e30db083600081518110610edb57634e487b7160e01b600052603260045260246000fd5b60200260200101516040518263ffffffff1660e01b81526004016000604051808303818588803b158015610f0e57600080fd5b505af1158015610f22573d6000803e3d6000fd5b50505050507f00000000000000000000000000000000000000000000000000000000000000006001600160a01b031663a9059cbb610fd17f000000000000000000000000000000000000000000000000000000000000000089896000818110610f9b57634e487b7160e01b600052603260045260246000fd5b9050602002016020810190610fb091906134f9565b8a8a60018181106108bb57634e487b7160e01b600052603260045260246000fd5b84600081518110610ff257634e487b7160e01b600052603260045260246000fd5b60200260200101516040518363ffffffff1660e01b815260040161102b9291906001600160a01b03929092168252602082015260400190565b602060405180830381600087803b15801561104557600080fd5b505af1158015611059573d6000803e3d6000fd5b505050506040513d601f19601f8201168201806040525081019061107d91906137b8565b61109757634e487b7160e01b600052600160045260246000fd5b6110d682878780806020026020016040519081016040528093929190818152602001838360200280828437600092019190915250899250612776915050565b816000815181106110f757634e487b7160e01b600052603260045260246000fd5b602002602001015134111561114357611143338360008151811061112b57634e487b7160e01b600052603260045260246000fd5b60200260200101513461113e9190613b55565b6129b6565b5095945050505050565b606081428110156111995760405162461bcd60e51b815260206004820152601660248201527514d1189cddd85c149bdd5d195c8e881156141254915160521b6044820152606401610707565b6111f77f00000000000000000000000000000000000000000000000000000000000000008988888080602002602001604051908101604052809392919081815260200183836020028082843760009201919091525061218c92505050565b9150868260008151811061121b57634e487b7160e01b600052603260045260246000fd5b602002602001015111156108065760405162461bcd60e51b815260206004820152602560248201527f50616e63616b65526f757465723a204558434553534956455f494e5055545f416044820152641353d5539560da1b6064820152608401610707565b606081428110156112cb5760405162461bcd60e51b815260206004820152601660248201527514d1189cddd85c149bdd5d195c8e881156141254915160521b6044820152606401610707565b7f00000000000000000000000000000000000000000000000000000000000000006001600160a01b03168686600081811061131657634e487b7160e01b600052603260045260246000fd5b905060200201602081019061132b91906134f9565b6001600160a01b0316146113815760405162461bcd60e51b815260206004820152601b60248201527f50616e63616b65526f757465723a20494e56414c49445f5041544800000000006044820152606401610707565b6113df7f00000000000000000000000000000000000000000000000000000000000000003488888080602002602001604051908101604052809392919081815260200183836020028082843760009201919091525061244d92505050565b91508682600184516113f19190613b55565b8151811061140f57634e487b7160e01b600052603260045260246000fd5b602002602001015110156114775760405162461bcd60e51b815260206004820152602960248201527f53444273776170526f757465723a20494e53554646494349454e545f4f555450604482015268155517d05353d5539560ba1b6064820152608401610707565b7f00000000000000000000000000000000000000000000000000000000000000006001600160a01b031663d0e30db0836000815181106114c757634e487b7160e01b600052603260045260246000fd5b60200260200101516040518263ffffffff1660e01b81526004016000604051808303818588803b1580156114fa57600080fd5b505af115801561150e573d6000803e3d6000fd5b50505050507f00000000000000000000000000000000000000000000000000000000000000006001600160a01b031663a9059cbb6115877f000000000000000000000000000000000000000000000000000000000000000089896000818110610f9b57634e487b7160e01b600052603260045260246000fd5b846000815181106115a857634e487b7160e01b600052603260045260246000fd5b60200260200101516040518363ffffffff1660e01b81526004016115e19291906001600160a01b03929092168252602082015260400190565b602060405180830381600087803b1580156115fb57600080fd5b505af115801561160f573d6000803e3d6000fd5b505050506040513d601f19601f8201168201806040525081019061163391906137b8565b61164d57634e487b7160e01b600052600160045260246000fd5b61114382878780806020026020016040519081016040528093929190818152602001838360200280828437600092019190915250899250612776915050565b6000610481848484612a9e565b60008082428110156116e65760405162461bcd60e51b815260206004820152601660248201527514d1189cddd85c149bdd5d195c8e881156141254915160521b6044820152606401610707565b60006117137f00000000000000000000000000000000000000000000000000000000000000008c8c612376565b6040516323b872dd60e01b81523360048201526001600160a01b03821660248201819052604482018c90529192506323b872dd90606401602060405180830381600087803b15801561176457600080fd5b505af1158015611778573d6000803e3d6000fd5b505050506040513d601f19601f8201168201806040525081019061179c91906137b8565b506040517f89afcb440000000000000000000000000000000000000000000000000000000081526001600160a01b03878116600483015260009182918416906389afcb44906024016040805180830381600087803b1580156117fd57600080fd5b505af1158015611811573d6000803e3d6000fd5b505050506040513d601f19601f820116820180604052508101906118359190613972565b9150915060006118458e8e612b95565b509050806001600160a01b03168e6001600160a01b03161461186857818361186b565b82825b90975095508a8710156118cc5760405162461bcd60e51b8152602060048201526024808201527f53446273776170526f757465723a20494e53554646494349454e545f415f414d60448201526313d5539560e21b6064820152608401610707565b898610156119285760405162461bcd60e51b8152602060048201526024808201527f73646273776170526f757465723a20494e53554646494349454e545f425f414d60448201526313d5539560e21b6064820152608401610707565b505050505097509795505050505050565b60606104b67f0000000000000000000000000000000000000000000000000000000000000000848461244d565b606081428110156119b25760405162461bcd60e51b815260206004820152601660248201527514d1189cddd85c149bdd5d195c8e881156141254915160521b6044820152606401610707565b6001600160a01b037f00000000000000000000000000000000000000000000000000000000000000001686866119e9600182613b55565b818110611a0657634e487b7160e01b600052603260045260246000fd5b9050602002016020810190611a1b91906134f9565b6001600160a01b031614611a715760405162461bcd60e51b815260206004820152601b60248201527f50616e63616b65526f757465723a20494e56414c49445f5041544800000000006044820152606401610707565b611acf7f00000000000000000000000000000000000000000000000000000000000000008988888080602002602001604051908101604052809392919081815260200183836020028082843760009201919091525061218c92505050565b91508682600081518110611af357634e487b7160e01b600052603260045260246000fd5b60200260200101511115610b4e5760405162461bcd60e51b815260206004820152602560248201527f50616e63616b65526f757465723a204558434553534956455f494e5055545f416044820152641353d5539560da1b6064820152608401610707565b6000808242811015611ba45760405162461bcd60e51b815260206004820152601660248201527514d1189cddd85c149bdd5d195c8e881156141254915160521b6044820152606401610707565b611bd3897f00000000000000000000000000000000000000000000000000000000000000008a8a8a308a611699565b9093509150611be3898685612ca5565b6040517f2e1a7d4d000000000000000000000000000000000000000000000000000000008152600481018390527f00000000000000000000000000000000000000000000000000000000000000006001600160a01b031690632e1a7d4d90602401600060405180830381600087803b158015611c5e57600080fd5b505af1158015611c72573d6000803e3d6000fd5b50505050611c8085836129b6565b50965096945050505050565b60008060008342811015611cdb5760405162461bcd60e51b815260206004820152601660248201527514d1189cddd85c149bdd5d195c8e881156141254915160521b6044820152606401610707565b611ce98c8c8c8c8c8c612dfb565b90945092506000611d1b7f00000000000000000000000000000000000000000000000000000000000000008e8e612376565b9050611d298d338388612617565b611d358c338387612617565b6040516335313c2160e11b81526001600160a01b038881166004830152821690636a62784290602401602060405180830381600087803b158015611d7857600080fd5b505af1158015611d8c573d6000803e3d6000fd5b505050506040513d601f19601f82011682018060405250810190611db09190613822565b92505050985098509895505050505050565b60008060008342811015611e115760405162461bcd60e51b815260206004820152601660248201527514d1189cddd85c149bdd5d195c8e881156141254915160521b6044820152606401610707565b611e3f8a7f00000000000000000000000000000000000000000000000000000000000000008b348c8c612dfb565b90945092506000611e917f00000000000000000000000000000000000000000000000000000000000000008c7f0000000000000000000000000000000000000000000000000000000000000000612376565b9050611e9f8b338388612617565b7f00000000000000000000000000000000000000000000000000000000000000006001600160a01b031663d0e30db0856040518263ffffffff1660e01b81526004016000604051808303818588803b158015611efa57600080fd5b505af1158015611f0e573d6000803e3d6000fd5b505060405163a9059cbb60e01b81526001600160a01b038581166004830152602482018990527f000000000000000000000000000000000000000000000000000000000000000016935063a9059cbb92506044019050602060405180830381600087803b158015611f7e57600080fd5b505af1158015611f92573d6000803e3d6000fd5b505050506040513d601f19601f82011682018060405250810190611fb691906137b8565b611fd057634e487b7160e01b600052600160045260246000fd5b6040516335313c2160e11b81526001600160a01b038881166004830152821690636a62784290602401602060405180830381600087803b15801561201357600080fd5b505af1158015612027573d6000803e3d6000fd5b505050506040513d601f19601f8201168201806040525081019061204b9190613822565b925083341115612063576120633361113e8634613b55565b505096509650969350505050565b60008084116120d45760405162461bcd60e51b815260206004820152602960248201527f534442737761704c6962726172793a20494e53554646494349454e545f494e50604482015268155517d05353d5539560ba1b6064820152608401610707565b6000831180156120e45750600082115b61213f5760405162461bcd60e51b815260206004820152602660248201527f534442737761704c6962726172793a20494e53554646494349454e545f4c495160448201526555494449545960d01b6064820152608401610707565b600061214d856103e56130f6565b9050600061215b82856130f6565b905060006121758361216f886103e86130f6565b90613191565b90506121818183613b16565b979650505050505050565b60606002825110156121e05760405162461bcd60e51b815260206004820152601c60248201527f534442737761704c6962726172793a20494e56414c49445f50415448000000006044820152606401610707565b815167ffffffffffffffff81111561220857634e487b7160e01b600052604160045260246000fd5b604051908082528060200260200182016040528015612231578160200160208202803683370190505b5090508281600183516122449190613b55565b8151811061226257634e487b7160e01b600052603260045260246000fd5b60200260200101818152505060006001835161227e9190613b55565b90505b801561236e576000806122ed878661229a600187613b55565b815181106122b857634e487b7160e01b600052603260045260246000fd5b60200260200101518786815181106122e057634e487b7160e01b600052603260045260246000fd5b60200260200101516131f0565b9150915061232384848151811061231457634e487b7160e01b600052603260045260246000fd5b602002602001015183836132d7565b8461232f600186613b55565b8151811061234d57634e487b7160e01b600052603260045260246000fd5b6020026020010181815250505050808061236690613b98565b915050612281565b509392505050565b60008060006123858585612b95565b604080516bffffffffffffffffffffffff19606094851b811660208084019190915293851b81166034830152825180830360280181526048830184528051908501207fff0000000000000000000000000000000000000000000000000000000000000060688401529a851b166069820152607d8101999099527fd0d4c4cd0848c93cb4fd1f498d7013ee6bfb25783ea21593d5834f5d250ece66609d808b01919091528151808b03909101815260bd9099019052875197019690962090951c95945050505050565b60606002825110156124a15760405162461bcd60e51b815260206004820152601c60248201527f534442737761704c6962726172793a20494e56414c49445f50415448000000006044820152606401610707565b815167ffffffffffffffff8111156124c957634e487b7160e01b600052604160045260246000fd5b6040519080825280602002602001820160405280156124f2578160200160208202803683370190505b509050828160008151811061251757634e487b7160e01b600052603260045260246000fd5b60200260200101818152505060005b600183516125349190613b55565b81101561236e576000806125968786858151811061256257634e487b7160e01b600052603260045260246000fd5b6020026020010151878660016125789190613afe565b815181106122e057634e487b7160e01b600052603260045260246000fd5b915091506125cc8484815181106125bd57634e487b7160e01b600052603260045260246000fd5b60200260200101518383612071565b846125d8856001613afe565b815181106125f657634e487b7160e01b600052603260045260246000fd5b6020026020010181815250505050808061260f90613baf565b915050612526565b604080516001600160a01b0385811660248301528481166044830152606480830185905283518084039091018152608490920183526020820180517bffffffffffffffffffffffffffffffffffffffffffffffffffffffff166323b872dd60e01b17905291516000928392908816916126909190613a5d565b6000604051808303816000865af19150503d80600081146126cd576040519150601f19603f3d011682016040523d82523d6000602084013e6126d2565b606091505b50915091508180156126fc5750805115806126fc5750808060200190518101906126fc91906137b8565b61276e5760405162461bcd60e51b815260206004820152603160248201527f5472616e7366657248656c7065723a3a7472616e7366657246726f6d3a20747260448201527f616e7366657246726f6d206661696c65640000000000000000000000000000006064820152608401610707565b505050505050565b60005b600183516127879190613b55565b8110156129b0576000808483815181106127b157634e487b7160e01b600052603260045260246000fd5b6020026020010151858460016127c79190613afe565b815181106127e557634e487b7160e01b600052603260045260246000fd5b60200260200101519150915060006127fd8383612b95565b50905060008761280e866001613afe565b8151811061282c57634e487b7160e01b600052603260045260246000fd5b60200260200101519050600080836001600160a01b0316866001600160a01b03161461285a5782600061285e565b6000835b91509150600060028a516128729190613b55565b881061287e57886128da565b6128da7f0000000000000000000000000000000000000000000000000000000000000000878c6128af8c6002613afe565b815181106128cd57634e487b7160e01b600052603260045260246000fd5b6020026020010151612376565b90506129077f00000000000000000000000000000000000000000000000000000000000000008888612376565b6001600160a01b031663022c0d9f84848460006040519080825280601f01601f191660200182016040528015612944576020820181803683370190505b506040518563ffffffff1660e01b81526004016129649493929190613ad0565b600060405180830381600087803b15801561297e57600080fd5b505af1158015612992573d6000803e3d6000fd5b505050505050505050505080806129a890613baf565b915050612779565b50505050565b604080516000808252602082019092526001600160a01b0384169083906040516129e09190613a5d565b60006040518083038185875af1925050503d8060008114612a1d576040519150601f19603f3d011682016040523d82523d6000602084013e612a22565b606091505b5050905080612a995760405162461bcd60e51b815260206004820152603460248201527f5472616e7366657248656c7065723a3a736166655472616e736665724554483a60448201527f20424e42207472616e73666572206661696c65640000000000000000000000006064820152608401610707565b505050565b6000808411612b155760405162461bcd60e51b815260206004820152602360248201527f534442737761704c6962726172793a20494e53554646494349454e545f414d4f60448201527f554e5400000000000000000000000000000000000000000000000000000000006064820152608401610707565b600083118015612b255750600082115b612b805760405162461bcd60e51b815260206004820152602660248201527f534442737761704c6962726172793a20494e53554646494349454e545f4c495160448201526555494449545960d01b6064820152608401610707565b82612b8b85846130f6565b6104819190613b16565b600080826001600160a01b0316846001600160a01b03161415612c205760405162461bcd60e51b815260206004820152602360248201527f534442737761704c6962726172793a204944454e544943414c5f41444452455360448201527f53455300000000000000000000000000000000000000000000000000000000006064820152608401610707565b826001600160a01b0316846001600160a01b031610612c40578284612c43565b83835b90925090506001600160a01b038216612c9e5760405162461bcd60e51b815260206004820152601c60248201527f534442737761704c6962726172793a205a45524f5f41444452455353000000006044820152606401610707565b9250929050565b604080516001600160a01b038481166024830152604480830185905283518084039091018152606490920183526020820180517bffffffffffffffffffffffffffffffffffffffffffffffffffffffff1663a9059cbb60e01b1790529151600092839290871691612d169190613a5d565b6000604051808303816000865af19150503d8060008114612d53576040519150601f19603f3d011682016040523d82523d6000602084013e612d58565b606091505b5091509150818015612d82575080511580612d82575080806020019051810190612d8291906137b8565b612df45760405162461bcd60e51b815260206004820152602d60248201527f5472616e7366657248656c7065723a3a736166655472616e736665723a20747260448201527f616e73666572206661696c6564000000000000000000000000000000000000006064820152608401610707565b5050505050565b6040517fe6a439050000000000000000000000000000000000000000000000000000000081526001600160a01b0387811660048301528681166024830152600091829182917f00000000000000000000000000000000000000000000000000000000000000009091169063e6a439059060440160206040518083038186803b158015612e8657600080fd5b505afa158015612e9a573d6000803e3d6000fd5b505050506040513d601f19601f82011682018060405250810190612ebe9190613515565b6001600160a01b03161415612f8b576040517fc9c653960000000000000000000000000000000000000000000000000000000081526001600160a01b03898116600483015288811660248301527f0000000000000000000000000000000000000000000000000000000000000000169063c9c6539690604401602060405180830381600087803b158015612f5157600080fd5b505af1158015612f65573d6000803e3d6000fd5b505050506040513d601f19601f82011682018060405250810190612f899190613515565b505b600080612fb97f00000000000000000000000000000000000000000000000000000000000000008b8b6131f0565b91509150816000148015612fcb575080155b15612fdb578793508692506130e9565b6000612fe8898484612a9e565b9050878111613058578581101561304d5760405162461bcd60e51b8152602060048201526024808201527f53444273776170526f757465723a20494e53554646494349454e545f425f414d60448201526313d5539560e21b6064820152608401610707565b8894509250826130e7565b6000613065898486612a9e565b90508981111561308557634e487b7160e01b600052600160045260246000fd5b878110156130e15760405162461bcd60e51b8152602060048201526024808201527f53444273776170526f757465723a20494e53554646494349454e545f415f414d60448201526313d5539560e21b6064820152608401610707565b94508793505b505b5050965096945050505050565b600082613105575060006104b9565b60006131118385613b36565b90508261311e8583613b16565b146104b65760405162461bcd60e51b815260206004820152602160248201527f536166654d6174683a206d756c7469706c69636174696f6e206f766572666c6f60448201527f77000000000000000000000000000000000000000000000000000000000000006064820152608401610707565b60008061319e8385613afe565b9050838110156104b65760405162461bcd60e51b815260206004820152601b60248201527f536166654d6174683a206164646974696f6e206f766572666c6f7700000000006044820152606401610707565b60008060006131ff8585612b95565b509050600080613210888888612376565b6001600160a01b0316630902f1ac6040518163ffffffff1660e01b815260040160606040518083038186803b15801561324857600080fd5b505afa15801561325c573d6000803e3d6000fd5b505050506040513d601f19601f8201168201806040525081019061328091906137d4565b506dffffffffffffffffffffffffffff1691506dffffffffffffffffffffffffffff169150826001600160a01b0316876001600160a01b0316146132c55780826132c8565b81815b90999098509650505050505050565b600080841161334e5760405162461bcd60e51b815260206004820152602a60248201527f534442737761704c6962726172793a20494e53554646494349454e545f4f555460448201527f5055545f414d4f554e54000000000000000000000000000000000000000000006064820152608401610707565b60008311801561335e5750600082115b6133b95760405162461bcd60e51b815260206004820152602660248201527f534442737761704c6962726172793a20494e53554646494349454e545f4c495160448201526555494449545960d01b6064820152608401610707565b60006133d16103e86133cb86886130f6565b906130f6565b905060006133e56103e56133cb8689613400565b90506133f6600161216f8385613b16565b9695505050505050565b60006104b683836040518060400160405280601e81526020017f536166654d6174683a207375627472616374696f6e206f766572666c6f770000815250600081848411156134615760405162461bcd60e51b81526004016107079190613abd565b50600061346e8486613b55565b95945050505050565b803561348281613bf6565b919050565b60008083601f840112613498578081fd5b50813567ffffffffffffffff8111156134af578182fd5b6020830191508360208260051b8501011115612c9e57600080fd5b80516dffffffffffffffffffffffffffff8116811461348257600080fd5b803560ff8116811461348257600080fd5b60006020828403121561350a578081fd5b81356104b681613bf6565b600060208284031215613526578081fd5b81516104b681613bf6565b600080600080600080600060e0888a03121561354b578283fd5b873561355681613bf6565b9650602088013561356681613bf6565b955060408801359450606088013593506080880135925060a088013561358b81613bf6565b8092505060c0880135905092959891949750929550565b60008060008060008060008060008060006101608c8e0312156135c3578384fd5b8b356135ce81613bf6565b9a5060208c01356135de81613bf6565b995060408c0135985060608c0135975060808c0135965060a08c013561360381613bf6565b955060c08c0135945060e08c013561361a81613c0e565b93506136296101008d016134e8565b92506101208c013591506101408c013590509295989b509295989b9093969950565b600080600080600080600080610100898b031215613667578384fd5b883561367281613bf6565b9750602089013561368281613bf6565b965060408901359550606089013594506080890135935060a0890135925060c08901356136ae81613bf6565b8092505060e089013590509295985092959890939650565b60008060008060008060c087890312156136de578182fd5b86356136e981613bf6565b9550602087013594506040870135935060608701359250608087013561370e81613bf6565b8092505060a087013590509295509295509295565b6000806000806000806000806000806101408b8d031215613742578384fd5b8a3561374d81613bf6565b995060208b0135985060408b0135975060608b0135965060808b013561377281613bf6565b955060a08b0135945060c08b013561378981613c0e565b935061379760e08c016134e8565b92506101008b013591506101208b013590509295989b9194979a5092959850565b6000602082840312156137c9578081fd5b81516104b681613c0e565b6000806000606084860312156137e8578081fd5b6137f1846134ca565b92506137ff602085016134ca565b9150604084015163ffffffff81168114613817578182fd5b809150509250925092565b600060208284031215613833578081fd5b5051919050565b600080600080600060808688031215613851578283fd5b85359450602086013567ffffffffffffffff81111561386e578384fd5b61387a88828901613487565b909550935050604086013561388e81613bf6565b949793965091946060013592915050565b600080604083850312156138b1578182fd5b8235915060208084013567ffffffffffffffff808211156138d0578384fd5b818601915086601f8301126138e3578384fd5b8135818111156138f5576138f5613be0565b8060051b604051601f19603f8301168101818110858211171561391a5761391a613be0565b604052828152858101935084860182860187018b1015613938578788fd5b8795505b838610156139615761394d81613477565b85526001959095019493860193860161393c565b508096505050505050509250929050565b60008060408385031215613984578182fd5b505080516020909101519092909150565b60008060008060008060a087890312156139ad578384fd5b8635955060208701359450604087013567ffffffffffffffff8111156139d1578485fd5b6139dd89828a01613487565b90955093505060608701356139f181613bf6565b80925050608087013590509295509295509295565b600080600060608486031215613a1a578081fd5b505081359360208301359350604090920135919050565b60008151808452613a49816020860160208601613b6c565b601f01601f19169290920160200192915050565b60008251613a6f818460208701613b6c565b9190910192915050565b6020808252825182820181905260009190848201906040850190845b81811015613ab157835183529284019291840191600101613a95565b50909695505050505050565b6020815260006104b66020830184613a31565b8481528360208201526001600160a01b03831660408201526080606082015260006133f66080830184613a31565b60008219821115613b1157613b11613bca565b500190565b600082613b3157634e487b7160e01b81526012600452602481fd5b500490565b6000816000190483118215151615613b5057613b50613bca565b500290565b600082821015613b6757613b67613bca565b500390565b60005b83811015613b87578181015183820152602001613b6f565b838111156129b05750506000910152565b600081613ba757613ba7613bca565b506000190190565b6000600019821415613bc357613bc3613bca565b5060010190565b634e487b7160e01b600052601160045260246000fd5b634e487b7160e01b600052604160045260246000fd5b6001600160a01b0381168114613c0b57600080fd5b50565b8015158114613c0b57600080fdfea26469706673582212206a473c4171758cdf5bbc7940b8d71e2d95be29d54f7c4abf9c0a2f3a6c9d000364736f6c63430008040033",
  "immutableReferences": {
    "7144": [
      {
        "length": 32,
        "start": 910
      },
      {
        "length": 32,
        "start": 1168
      },
      {
        "length": 32,
        "start": 1225
      },
      {
        "length": 32,
        "start": 1468
      },
      {
        "length": 32,
        "start": 1813
      },
      {
        "length": 32,
        "start": 2117
      },
      {
        "length": 32,
        "start": 2653
      },
      {
        "length": 32,
        "start": 3498
      },
      {
        "length": 32,
        "start": 3931
      },
      {
        "length": 32,
        "start": 4510
      },
      {
        "length": 32,
        "start": 4998
      },
      {
        "length": 32,
        "start": 5447
      },
      {
        "length": 32,
        "start": 5869
      },
      {
        "length": 32,
        "start": 6464
      },
      {
        "length": 32,
        "start": 6774
      },
      {
        "length": 32,
        "start": 7413
      },
      {
        "length": 32,
        "start": 7755
      },
      {
        "length": 32,
        "start": 10371
      },
      {
        "length": 32,
        "start": 10465
      },
      {
        "length": 32,
        "start": 11842
      },
      {
        "length": 32,
        "start": 12045
      },
      {
        "length": 32,
        "start": 12179
      }
    ],
    "7147": [
      {
        "length": 32,
        "start": 371
      },
      {
        "length": 32,
        "start": 751
      },
      {
        "length": 32,
        "start": 1502
      },
      {
        "length": 32,
        "start": 2467
      },
      {
        "length": 32,
        "start": 2995
      },
      {
        "length": 32,
        "start": 3313
      },
      {
        "length": 32,
        "start": 3725
      },
      {
        "length": 32,
        "start": 3881
      },
      {
        "length": 32,
        "start": 4813
      },
      {
        "length": 32,
        "start": 5241
      },
      {
        "length": 32,
        "start": 5397
      },
      {
        "length": 32,
        "start": 6588
      },
      {
        "length": 32,
        "start": 7082
      },
      {
        "length": 32,
        "start": 7186
      },
      {
        "length": 32,
        "start": 7703
      },
      {
        "length": 32,
        "start": 7789
      },
      {
        "length": 32,
        "start": 7841
      },
      {
        "length": 32,
        "start": 7990
      }
    ]
  },
  "source": "//SPDX-License-Identifier: UNLICENSED\r\npragma solidity ^0.8.4;\r\n\r\nimport './interface/ISDBswapFactory.sol';\r\nimport './library/TransferHelper.sol';\r\n\r\nimport './library/SDBswapLibrary.sol';\r\nimport './interface/ISDBswapRouter01.sol';\r\nimport './interface/IBEP20.sol';\r\nimport './interface/IWBNB.sol';\r\n\r\ncontract SDBswapRouter01 is ISDBswapRouter01 {\r\n    address public immutable override factory;\r\n    address public immutable override WBNB;\r\n    uint256 public constant MAX = type(uint256).max;\r\n\r\n    modifier ensure(uint deadline) {\r\n        require(deadline >= block.timestamp, 'SDbswapRouter: EXPIRED');\r\n        _;\r\n    }\r\n\r\n    constructor(address _factory, address _WBNB) public {\r\n        factory = _factory;\r\n        WBNB = _WBNB;\r\n    }\r\n\r\n    receive() external payable {\r\n        assert(msg.sender == WBNB); // only accept ETH via fallback from the WETH contract\r\n    }\r\n\r\n    // **** ADD LIQUIDITY ****\r\n    function _addLiquidity(\r\n        address tokenA,\r\n        address tokenB,\r\n        uint amountADesired,\r\n        uint amountBDesired,\r\n        uint amountAMin,\r\n        uint amountBMin\r\n    ) private returns (uint amountA, uint amountB) {\r\n        // create the pair if it doesn't exist yet\r\n        if (ISDBswapFactory(factory).getPair(tokenA, tokenB) == address(0)) {\r\n            ISDBswapFactory(factory).createPair(tokenA, tokenB);\r\n        }\r\n        (uint reserveA, uint reserveB) = SDBswapLibrary.getReserves(factory, tokenA, tokenB);\r\n        if (reserveA == 0 && reserveB == 0) {\r\n            (amountA, amountB) = (amountADesired, amountBDesired);\r\n        } else {\r\n            uint amountBOptimal = SDBswapLibrary.quote(amountADesired, reserveA, reserveB);\r\n            if (amountBOptimal <= amountBDesired) {\r\n                require(amountBOptimal >= amountBMin, 'SDBswapRouter: INSUFFICIENT_B_AMOUNT');\r\n                (amountA, amountB) = (amountADesired, amountBOptimal);\r\n            } else {\r\n                uint amountAOptimal = SDBswapLibrary.quote(amountBDesired, reserveB, reserveA);\r\n                assert(amountAOptimal <= amountADesired);\r\n                require(amountAOptimal >= amountAMin, 'SDBswapRouter: INSUFFICIENT_A_AMOUNT');\r\n                (amountA, amountB) = (amountAOptimal, amountBDesired);\r\n            }\r\n        }\r\n    }\r\n    function addLiquidity(\r\n        address tokenA,\r\n        address tokenB,\r\n        uint amountADesired,\r\n        uint amountBDesired,\r\n        uint amountAMin,\r\n        uint amountBMin,\r\n        address to,\r\n        uint deadline\r\n    ) external override ensure(deadline) returns (uint amountA, uint amountB, uint liquidity) {\r\n        (amountA, amountB) = _addLiquidity(tokenA, tokenB, amountADesired, amountBDesired, amountAMin, amountBMin);\r\n        address pair = SDBswapLibrary.pairFor(factory, tokenA, tokenB);\r\n        TransferHelper.safeTransferFrom(tokenA, msg.sender, pair, amountA);\r\n        TransferHelper.safeTransferFrom(tokenB, msg.sender, pair, amountB);\r\n        liquidity = SDBswapPair(pair).mint(to);\r\n    }\r\n    function addLiquidityBNB(\r\n        address token,\r\n        uint amountTokenDesired,\r\n        uint amountTokenMin,\r\n        uint amountBNBMin,\r\n        address to,\r\n        uint deadline\r\n    ) external override payable ensure(deadline) returns (uint amountToken, uint amountBNB, uint liquidity) {\r\n        (amountToken, amountBNB) = _addLiquidity(\r\n            token,\r\n            WBNB,\r\n            amountTokenDesired,\r\n            msg.value,\r\n            amountTokenMin,\r\n            amountBNBMin\r\n        );\r\n        address pair = SDBswapLibrary.pairFor(factory, token, WBNB);\r\n        TransferHelper.safeTransferFrom(token, msg.sender, pair, amountToken);\r\n        IWBNB(WBNB).deposit{value: amountBNB}();\r\n        assert(IWBNB(WBNB).transfer(pair, amountBNB));\r\n        liquidity = SDBswapPair(pair).mint(to);\r\n        if (msg.value > amountBNB) TransferHelper.safeTransferBNB(msg.sender, msg.value - amountBNB); // refund dust eth, if any\r\n    }\r\n\r\n    // **** REMOVE LIQUIDITY ****\r\n    function removeLiquidity(\r\n        address tokenA,\r\n        address tokenB,\r\n        uint liquidity,\r\n        uint amountAMin,\r\n        uint amountBMin,\r\n        address to,\r\n        uint deadline\r\n    ) public override ensure(deadline) returns (uint amountA, uint amountB) {\r\n        address pair = SDBswapLibrary.pairFor(factory, tokenA, tokenB);\r\n        SDBswapPair(pair).transferFrom(msg.sender, pair, liquidity); // send liquidity to pair\r\n        (uint amount0, uint amount1) = SDBswapPair(pair).burn(to);\r\n        (address token0,) = SDBswapLibrary.sortTokens(tokenA, tokenB);\r\n        (amountA, amountB) = tokenA == token0 ? (amount0, amount1) : (amount1, amount0);\r\n        require(amountA >= amountAMin, 'SDbswapRouter: INSUFFICIENT_A_AMOUNT');\r\n        require(amountB >= amountBMin, 'sdbswapRouter: INSUFFICIENT_B_AMOUNT');\r\n    }\r\n    function removeLiquidityBNB(\r\n        address token,\r\n        uint liquidity,\r\n        uint amountTokenMin,\r\n        uint amountBNBMin,\r\n        address to,\r\n        uint deadline\r\n    ) public override ensure(deadline) returns (uint amountToken, uint amountBNB) {\r\n        (amountToken, amountBNB) = removeLiquidity(\r\n            token,\r\n            WBNB,\r\n            liquidity,\r\n            amountTokenMin,\r\n            amountBNBMin,\r\n            address(this),\r\n            deadline\r\n        );\r\n        TransferHelper.safeTransfer(token, to, amountToken);\r\n        IWBNB(WBNB).withdraw(amountBNB);\r\n        TransferHelper.safeTransferBNB(to, amountBNB);\r\n    }\r\n    function removeLiquidityWithPermit(\r\n        address tokenA,\r\n        address tokenB,\r\n        uint liquidity,\r\n        uint amountAMin,\r\n        uint amountBMin,\r\n        address to,\r\n        uint deadline,\r\n        bool approveMax, uint8 v, bytes32 r, bytes32 s\r\n    ) external override returns (uint amountA, uint amountB) {\r\n        address pair = SDBswapLibrary.pairFor(factory, tokenA, tokenB);\r\n        uint value = approveMax ? MAX : liquidity;\r\n        SDBswapPair(pair).permit(msg.sender, address(this), value, deadline, v, r, s);\r\n        (amountA, amountB) = removeLiquidity(tokenA, tokenB, liquidity, amountAMin, amountBMin, to, deadline);\r\n    }\r\n    function removeLiquidityBNBWithPermit(\r\n        address token,\r\n        uint liquidity,\r\n        uint amountTokenMin,\r\n        uint amountBNBMin,\r\n        address to,\r\n        uint deadline,\r\n        bool approveMax, uint8 v, bytes32 r, bytes32 s\r\n    ) external override returns (uint amountToken, uint amountBNB) {\r\n        address pair = SDBswapLibrary.pairFor(factory, token, WBNB);\r\n        uint value = approveMax ? MAX : liquidity;\r\n        SDBswapPair(pair).permit(msg.sender, address(this), value, deadline, v, r, s);\r\n        (amountToken, amountBNB) = removeLiquidityBNB(token, liquidity, amountTokenMin, amountBNBMin, to, deadline);\r\n    }\r\n\r\n    // **** SWAP ****\r\n    // requires the initial amount to have already been sent to the first pair\r\n    function _swap(uint[] memory amounts, address[] memory path, address _to) private {\r\n        for (uint i; i < path.length - 1; i++) {\r\n            (address input, address output) = (path[i], path[i + 1]);\r\n            (address token0,) = SDBswapLibrary.sortTokens(input, output);\r\n            uint amountOut = amounts[i + 1];\r\n            (uint amount0Out, uint amount1Out) = input == token0 ? (uint(0), amountOut) : (amountOut, uint(0));\r\n            address to = i < path.length - 2 ? SDBswapLibrary.pairFor(factory, output, path[i + 2]) : _to;\r\n            SDBswapPair(SDBswapLibrary.pairFor(factory, input, output)).swap(amount0Out, amount1Out, to, new bytes(0));\r\n        }\r\n    }\r\n    function swapExactTokensForTokens(\r\n        uint amountIn,\r\n        uint amountOutMin,\r\n        address[] calldata path,\r\n        address to,\r\n        uint deadline\r\n    ) external override ensure(deadline) returns (uint[] memory amounts) {\r\n        amounts = SDBswapLibrary.getAmountsOut(factory, amountIn, path);\r\n        require(amounts[amounts.length - 1] >= amountOutMin, 'SDbswapRouter: INSUFFICIENT_OUTPUT_AMOUNT');\r\n        TransferHelper.safeTransferFrom(path[0], msg.sender, SDBswapLibrary.pairFor(factory, path[0], path[1]), amounts[0]);\r\n        _swap(amounts, path, to);\r\n    }\r\n    function swapTokensForExactTokens(\r\n        uint amountOut,\r\n        uint amountInMax,\r\n        address[] calldata path,\r\n        address to,\r\n        uint deadline\r\n    ) external override ensure(deadline) returns (uint[] memory amounts) {\r\n        amounts = SDBswapLibrary.getAmountsIn(factory, amountOut, path);\r\n        require(amounts[0] <= amountInMax, 'PancakeRouter: EXCESSIVE_INPUT_AMOUNT');\r\n        TransferHelper.safeTransferFrom(path[0], msg.sender, SDBswapLibrary.pairFor(factory, path[0], path[1]), amounts[0]);\r\n        _swap(amounts, path, to);\r\n    }\r\n    function swapExactBNBForTokens(uint amountOutMin, address[] calldata path, address to, uint deadline)\r\n        external\r\n        override\r\n        payable\r\n        ensure(deadline)\r\n        returns (uint[] memory amounts)\r\n    {\r\n        require(path[0] == WBNB, 'PancakeRouter: INVALID_PATH');\r\n        amounts = SDBswapLibrary.getAmountsOut(factory, msg.value, path);\r\n        require(amounts[amounts.length - 1] >= amountOutMin, 'SDBswapRouter: INSUFFICIENT_OUTPUT_AMOUNT');\r\n        IWBNB(WBNB).deposit{value: amounts[0]}();\r\n        assert(IWBNB(WBNB).transfer(SDBswapLibrary.pairFor(factory, path[0], path[1]), amounts[0]));\r\n        _swap(amounts, path, to);\r\n    }\r\n    function swapTokensForExactBNB(uint amountOut, uint amountInMax, address[] calldata path, address to, uint deadline)\r\n        external\r\n        override\r\n        ensure(deadline)\r\n        returns (uint[] memory amounts)\r\n    {\r\n        require(path[path.length - 1] == WBNB, 'PancakeRouter: INVALID_PATH');\r\n        amounts = SDBswapLibrary.getAmountsIn(factory, amountOut, path);\r\n        require(amounts[0] <= amountInMax, 'PancakeRouter: EXCESSIVE_INPUT_AMOUNT');\r\n        TransferHelper.safeTransferFrom(path[0], msg.sender, SDBswapLibrary.pairFor(factory, path[0], path[1]), amounts[0]);\r\n        _swap(amounts, path, address(this));\r\n        IWBNB(WBNB).withdraw(amounts[amounts.length - 1]);\r\n        TransferHelper.safeTransferBNB(to, amounts[amounts.length - 1]);\r\n    }\r\n    function swapExactTokensForBNB(uint amountIn, uint amountOutMin, address[] calldata path, address to, uint deadline)\r\n        external\r\n        override\r\n        ensure(deadline)\r\n        returns (uint[] memory amounts)\r\n    {\r\n        require(path[path.length - 1] == WBNB, 'PancakeRouter: INVALID_PATH');\r\n        amounts = SDBswapLibrary.getAmountsOut(factory, amountIn, path);\r\n        require(amounts[amounts.length - 1] >= amountOutMin, 'PancakeRouter: INSUFFICIENT_OUTPUT_AMOUNT');\r\n        TransferHelper.safeTransferFrom(path[0], msg.sender, SDBswapLibrary.pairFor(factory, path[0], path[1]), amounts[0]);\r\n        _swap(amounts, path, address(this));\r\n        IWBNB(WBNB).withdraw(amounts[amounts.length - 1]);\r\n        TransferHelper.safeTransferBNB(to, amounts[amounts.length - 1]);\r\n    }\r\n    function swapBNBForExactTokens(uint amountOut, address[] calldata path, address to, uint deadline)\r\n        external\r\n        override\r\n        payable\r\n        ensure(deadline)\r\n        returns (uint[] memory amounts)\r\n    {\r\n        require(path[0] == WBNB, 'PancakeRouter: INVALID_PATH');\r\n        amounts = SDBswapLibrary.getAmountsIn(factory, amountOut, path);\r\n        require(amounts[0] <= msg.value, 'PancakeRouter: EXCESSIVE_INPUT_AMOUNT');\r\n        IWBNB(WBNB).deposit{value: amounts[0]}();\r\n        assert(IWBNB(WBNB).transfer(SDBswapLibrary.pairFor(factory, path[0], path[1]), amounts[0]));\r\n        _swap(amounts, path, to);\r\n        if (msg.value > amounts[0]) TransferHelper.safeTransferBNB(msg.sender, msg.value - amounts[0]); // refund dust eth, if any\r\n    }\r\n\r\n    function quote(uint amountA, uint reserveA, uint reserveB) public pure override returns (uint amountB) {\r\n        return SDBswapLibrary.quote(amountA, reserveA, reserveB);\r\n    }\r\n\r\n    function getAmountOut(uint amountIn, uint reserveIn, uint reserveOut) public pure override returns (uint amountOut) {\r\n        return SDBswapLibrary.getAmountOut(amountIn, reserveIn, reserveOut);\r\n    }\r\n\r\n    function getAmountIn(uint amountOut, uint reserveIn, uint reserveOut) public pure override returns (uint amountIn) {\r\n        return SDBswapLibrary.getAmountOut(amountOut, reserveIn, reserveOut);\r\n    }\r\n\r\n    function getAmountsOut(uint amountIn, address[] memory path) public view override returns (uint[] memory amounts) {\r\n        return SDBswapLibrary.getAmountsOut(factory, amountIn, path);\r\n    }\r\n\r\n    function getAmountsIn(uint amountOut, address[] memory path) public view override returns (uint[] memory amounts) {\r\n        return SDBswapLibrary.getAmountsIn(factory, amountOut, path);\r\n    }\r\n}",
  "sourcePath": "C:/Users/kolam/Desktop/safeSDB/safedepositbox-smartcontracts/contracts/SDBswapRouter01.sol",
  "compiler": {
    "name": "solc",
    "version": "0.8.4+commit.c7e474f2.Emscripten.clang"
  },
  "schemaVersion": "3.4.1",
  "updatedAt": "2021-07-21T08:49:56.516Z",
  "devdoc": {
    "kind": "dev",
    "methods": {},
    "version": 1
  },
  "userdoc": {
    "kind": "user",
    "methods": {},
    "version": 1
  }
}