{
  "contractName": "SDBswapPair",
  "abi": [
    {
      "inputs": [],
      "stateMutability": "nonpayable",
      "type": "constructor"
    },
    {
      "anonymous": false,
      "inputs": [
        {
          "indexed": true,
          "internalType": "address",
          "name": "owner",
          "type": "address"
        },
        {
          "indexed": true,
          "internalType": "address",
          "name": "spender",
          "type": "address"
        },
        {
          "indexed": false,
          "internalType": "uint256",
          "name": "value",
          "type": "uint256"
        }
      ],
      "name": "Approval",
      "type": "event"
    },
    {
      "anonymous": false,
      "inputs": [
        {
          "indexed": true,
          "internalType": "address",
          "name": "sender",
          "type": "address"
        },
        {
          "indexed": false,
          "internalType": "uint256",
          "name": "amount0",
          "type": "uint256"
        },
        {
          "indexed": false,
          "internalType": "uint256",
          "name": "amount1",
          "type": "uint256"
        },
        {
          "indexed": true,
          "internalType": "address",
          "name": "to",
          "type": "address"
        }
      ],
      "name": "Burn",
      "type": "event"
    },
    {
      "anonymous": false,
      "inputs": [
        {
          "indexed": true,
          "internalType": "address",
          "name": "sender",
          "type": "address"
        },
        {
          "indexed": false,
          "internalType": "uint256",
          "name": "amount0",
          "type": "uint256"
        },
        {
          "indexed": false,
          "internalType": "uint256",
          "name": "amount1",
          "type": "uint256"
        }
      ],
      "name": "Mint",
      "type": "event"
    },
    {
      "anonymous": false,
      "inputs": [
        {
          "indexed": true,
          "internalType": "address",
          "name": "sender",
          "type": "address"
        },
        {
          "indexed": false,
          "internalType": "uint256",
          "name": "amount0In",
          "type": "uint256"
        },
        {
          "indexed": false,
          "internalType": "uint256",
          "name": "amount1In",
          "type": "uint256"
        },
        {
          "indexed": false,
          "internalType": "uint256",
          "name": "amount0Out",
          "type": "uint256"
        },
        {
          "indexed": false,
          "internalType": "uint256",
          "name": "amount1Out",
          "type": "uint256"
        },
        {
          "indexed": true,
          "internalType": "address",
          "name": "to",
          "type": "address"
        }
      ],
      "name": "Swap",
      "type": "event"
    },
    {
      "anonymous": false,
      "inputs": [
        {
          "indexed": false,
          "internalType": "uint112",
          "name": "reserve0",
          "type": "uint112"
        },
        {
          "indexed": false,
          "internalType": "uint112",
          "name": "reserve1",
          "type": "uint112"
        }
      ],
      "name": "Sync",
      "type": "event"
    },
    {
      "anonymous": false,
      "inputs": [
        {
          "indexed": true,
          "internalType": "address",
          "name": "from",
          "type": "address"
        },
        {
          "indexed": true,
          "internalType": "address",
          "name": "to",
          "type": "address"
        },
        {
          "indexed": false,
          "internalType": "uint256",
          "name": "value",
          "type": "uint256"
        }
      ],
      "name": "Transfer",
      "type": "event"
    },
    {
      "inputs": [],
      "name": "DOMAIN_SEPARATOR",
      "outputs": [
        {
          "internalType": "bytes32",
          "name": "",
          "type": "bytes32"
        }
      ],
      "stateMutability": "view",
      "type": "function"
    },
    {
      "inputs": [],
      "name": "MAX",
      "outputs": [
        {
          "internalType": "uint256",
          "name": "",
          "type": "uint256"
        }
      ],
      "stateMutability": "view",
      "type": "function"
    },
    {
      "inputs": [],
      "name": "MINIMUM_LIQUIDITY",
      "outputs": [
        {
          "internalType": "uint256",
          "name": "",
          "type": "uint256"
        }
      ],
      "stateMutability": "view",
      "type": "function"
    },
    {
      "inputs": [],
      "name": "PERMIT_TYPEHASH",
      "outputs": [
        {
          "internalType": "bytes32",
          "name": "",
          "type": "bytes32"
        }
      ],
      "stateMutability": "view",
      "type": "function"
    },
    {
      "inputs": [
        {
          "internalType": "address",
          "name": "to",
          "type": "address"
        },
        {
          "internalType": "uint256",
          "name": "value",
          "type": "uint256"
        }
      ],
      "name": "_mint",
      "outputs": [],
      "stateMutability": "nonpayable",
      "type": "function"
    },
    {
      "inputs": [
        {
          "internalType": "address",
          "name": "",
          "type": "address"
        },
        {
          "internalType": "address",
          "name": "",
          "type": "address"
        }
      ],
      "name": "allowance",
      "outputs": [
        {
          "internalType": "uint256",
          "name": "",
          "type": "uint256"
        }
      ],
      "stateMutability": "view",
      "type": "function"
    },
    {
      "inputs": [
        {
          "internalType": "address",
          "name": "spender",
          "type": "address"
        },
        {
          "internalType": "uint256",
          "name": "value",
          "type": "uint256"
        }
      ],
      "name": "approve",
      "outputs": [
        {
          "internalType": "bool",
          "name": "",
          "type": "bool"
        }
      ],
      "stateMutability": "nonpayable",
      "type": "function"
    },
    {
      "inputs": [
        {
          "internalType": "address",
          "name": "",
          "type": "address"
        }
      ],
      "name": "balanceOf",
      "outputs": [
        {
          "internalType": "uint256",
          "name": "",
          "type": "uint256"
        }
      ],
      "stateMutability": "view",
      "type": "function"
    },
    {
      "inputs": [],
      "name": "decimals",
      "outputs": [
        {
          "internalType": "uint8",
          "name": "",
          "type": "uint8"
        }
      ],
      "stateMutability": "view",
      "type": "function"
    },
    {
      "inputs": [],
      "name": "factory",
      "outputs": [
        {
          "internalType": "address",
          "name": "",
          "type": "address"
        }
      ],
      "stateMutability": "view",
      "type": "function"
    },
    {
      "inputs": [],
      "name": "kLast",
      "outputs": [
        {
          "internalType": "uint256",
          "name": "",
          "type": "uint256"
        }
      ],
      "stateMutability": "view",
      "type": "function"
    },
    {
      "inputs": [],
      "name": "name",
      "outputs": [
        {
          "internalType": "string",
          "name": "",
          "type": "string"
        }
      ],
      "stateMutability": "view",
      "type": "function"
    },
    {
      "inputs": [
        {
          "internalType": "address",
          "name": "",
          "type": "address"
        }
      ],
      "name": "nonces",
      "outputs": [
        {
          "internalType": "uint256",
          "name": "",
          "type": "uint256"
        }
      ],
      "stateMutability": "view",
      "type": "function"
    },
    {
      "inputs": [
        {
          "internalType": "address",
          "name": "owner",
          "type": "address"
        },
        {
          "internalType": "address",
          "name": "spender",
          "type": "address"
        },
        {
          "internalType": "uint256",
          "name": "value",
          "type": "uint256"
        },
        {
          "internalType": "uint256",
          "name": "deadline",
          "type": "uint256"
        },
        {
          "internalType": "uint8",
          "name": "v",
          "type": "uint8"
        },
        {
          "internalType": "bytes32",
          "name": "r",
          "type": "bytes32"
        },
        {
          "internalType": "bytes32",
          "name": "s",
          "type": "bytes32"
        }
      ],
      "name": "permit",
      "outputs": [],
      "stateMutability": "nonpayable",
      "type": "function"
    },
    {
      "inputs": [],
      "name": "price0CumulativeLast",
      "outputs": [
        {
          "internalType": "uint256",
          "name": "",
          "type": "uint256"
        }
      ],
      "stateMutability": "view",
      "type": "function"
    },
    {
      "inputs": [],
      "name": "price1CumulativeLast",
      "outputs": [
        {
          "internalType": "uint256",
          "name": "",
          "type": "uint256"
        }
      ],
      "stateMutability": "view",
      "type": "function"
    },
    {
      "inputs": [],
      "name": "symbol",
      "outputs": [
        {
          "internalType": "string",
          "name": "",
          "type": "string"
        }
      ],
      "stateMutability": "view",
      "type": "function"
    },
    {
      "inputs": [],
      "name": "token0",
      "outputs": [
        {
          "internalType": "address",
          "name": "",
          "type": "address"
        }
      ],
      "stateMutability": "view",
      "type": "function"
    },
    {
      "inputs": [],
      "name": "token1",
      "outputs": [
        {
          "internalType": "address",
          "name": "",
          "type": "address"
        }
      ],
      "stateMutability": "view",
      "type": "function"
    },
    {
      "inputs": [],
      "name": "totalSupply",
      "outputs": [
        {
          "internalType": "uint256",
          "name": "",
          "type": "uint256"
        }
      ],
      "stateMutability": "view",
      "type": "function"
    },
    {
      "inputs": [
        {
          "internalType": "address",
          "name": "to",
          "type": "address"
        },
        {
          "internalType": "uint256",
          "name": "value",
          "type": "uint256"
        }
      ],
      "name": "transfer",
      "outputs": [
        {
          "internalType": "bool",
          "name": "",
          "type": "bool"
        }
      ],
      "stateMutability": "nonpayable",
      "type": "function"
    },
    {
      "inputs": [
        {
          "internalType": "address",
          "name": "from",
          "type": "address"
        },
        {
          "internalType": "address",
          "name": "to",
          "type": "address"
        },
        {
          "internalType": "uint256",
          "name": "value",
          "type": "uint256"
        }
      ],
      "name": "transferFrom",
      "outputs": [
        {
          "internalType": "bool",
          "name": "",
          "type": "bool"
        }
      ],
      "stateMutability": "nonpayable",
      "type": "function"
    },
    {
      "inputs": [],
      "name": "getReserves",
      "outputs": [
        {
          "internalType": "uint112",
          "name": "_reserve0",
          "type": "uint112"
        },
        {
          "internalType": "uint112",
          "name": "_reserve1",
          "type": "uint112"
        },
        {
          "internalType": "uint32",
          "name": "_blockTimestampLast",
          "type": "uint32"
        }
      ],
      "stateMutability": "view",
      "type": "function"
    },
    {
      "inputs": [
        {
          "internalType": "address",
          "name": "_token0",
          "type": "address"
        },
        {
          "internalType": "address",
          "name": "_token1",
          "type": "address"
        }
      ],
      "name": "initialize",
      "outputs": [],
      "stateMutability": "nonpayable",
      "type": "function"
    },
    {
      "inputs": [
        {
          "internalType": "address",
          "name": "to",
          "type": "address"
        }
      ],
      "name": "mint",
      "outputs": [
        {
          "internalType": "uint256",
          "name": "liquidity",
          "type": "uint256"
        }
      ],
      "stateMutability": "nonpayable",
      "type": "function"
    },
    {
      "inputs": [
        {
          "internalType": "address",
          "name": "to",
          "type": "address"
        }
      ],
      "name": "burn",
      "outputs": [
        {
          "internalType": "uint256",
          "name": "amount0",
          "type": "uint256"
        },
        {
          "internalType": "uint256",
          "name": "amount1",
          "type": "uint256"
        }
      ],
      "stateMutability": "nonpayable",
      "type": "function"
    },
    {
      "inputs": [
        {
          "internalType": "uint256",
          "name": "amount0Out",
          "type": "uint256"
        },
        {
          "internalType": "uint256",
          "name": "amount1Out",
          "type": "uint256"
        },
        {
          "internalType": "address",
          "name": "to",
          "type": "address"
        },
        {
          "internalType": "bytes",
          "name": "data",
          "type": "bytes"
        }
      ],
      "name": "swap",
      "outputs": [],
      "stateMutability": "nonpayable",
      "type": "function"
    },
    {
      "inputs": [
        {
          "internalType": "address",
          "name": "to",
          "type": "address"
        }
      ],
      "name": "skim",
      "outputs": [],
      "stateMutability": "nonpayable",
      "type": "function"
    },
    {
      "inputs": [],
      "name": "sync",
      "outputs": [],
      "stateMutability": "nonpayable",
      "type": "function"
    }
  ],
  "bytecode": "0x60806040526001600c5534801561001557600080fd5b50604080518082018252601081526f29a22139bbb0b8102628102a37b5b2b760811b6020918201528151808301835260018152603160f81b9082015281517f8b73c3c69bb8fe3d512ecc4cf759cc79239f7b179b0ffacaa9a75d522b39400f818301527fa565085f0deeec044ea232e6896de939137e021972f379bb5b5fcdfee7a10b93818401527fc89efdaa54c0f20c7adf612882df0950f5a951637e0307cdcb4c672f298b8bc660608201524660808201523060a0808301919091528351808303909101815260c09091019092528151910120600355600580546001600160a01b031916331790556125888061010e6000396000f3fe608060405234801561001057600080fd5b50600436106101cf5760003560e01c80636a62784211610104578063ba9a7a56116100a2578063d49d518111610071578063d49d518114610485578063d505accf1461049c578063dd62ed3e146104af578063fff6cae9146104da57600080fd5b8063ba9a7a5614610443578063bc25cf771461044c578063c45a01551461045f578063d21220a71461047257600080fd5b80637ecebe00116100de5780637ecebe00146103ac57806389afcb44146103cc57806395d89b41146103f4578063a9059cbb1461043057600080fd5b80636a6278421461037057806370a08231146103835780637464fc3d146103a357600080fd5b806330adf81f11610171578063485cc9551161014b578063485cc955146103385780634e6ec2471461034b5780635909c0d51461035e5780635a3d54931461036757600080fd5b806330adf81f146102ee578063313ce567146103155780633644e5151461032f57600080fd5b8063095ea7b3116101ad578063095ea7b3146102765780630dfe16811461029957806318160ddd146102c457806323b872dd146102db57600080fd5b8063022c0d9f146101d457806306fdde03146101e95780630902f1ac1461023b575b600080fd5b6101e76101e23660046122a6565b6104e2565b005b6102256040518060400160405280601081526020017f53444273776170204c5020546f6b656e0000000000000000000000000000000081525081565b60405161023291906123a0565b60405180910390f35b600854604080516001600160701b038084168252600160701b8404166020820152600160e01b90920463ffffffff1690820152606001610232565b610289610284366004612243565b610aa4565b6040519015158152602001610232565b6006546102ac906001600160a01b031681565b6040516001600160a01b039091168152602001610232565b6102cd60005481565b604051908152602001610232565b6102896102e936600461218e565b610abb565b6102cd7f6e71edae12b1b97f4d1f60370fef10105fa2faae0126114a169c64845d6126c981565b61031d601281565b60405160ff9091168152602001610232565b6102cd60035481565b6101e7610346366004612156565b610b5d565b6101e7610359366004612243565b610bfd565b6102cd60095481565b6102cd600a5481565b6102cd61037e36600461211e565b610c8c565b6102cd61039136600461211e565b60016020526000908152604090205481565b6102cd600b5481565b6102cd6103ba36600461211e565b60046020526000908152604090205481565b6103df6103da36600461211e565b610fb2565b60408051928352602083019190915201610232565b6102256040518060400160405280600381526020017f534442000000000000000000000000000000000000000000000000000000000081525081565b61028961043e366004612243565b61139b565b6102cd6103e881565b6101e761045a36600461211e565b6113a8565b6005546102ac906001600160a01b031681565b6007546102ac906001600160a01b031681565b6102cd6fffffffffffffffffffffffffffffffff81565b6101e76104aa3660046121ce565b6114ed565b6102cd6104bd366004612156565b600260209081526000928352604080842090915290825290205481565b6101e7611727565b600c5460011461052b5760405162461bcd60e51b815260206004820152600f60248201526e14d1109cddd85c0e881313d0d2d151608a1b60448201526064015b60405180910390fd5b6000600c558415158061053e5750600084115b6105b05760405162461bcd60e51b815260206004820152602360248201527f534442737761703a20494e53554646494349454e545f4f55545055545f414d4f60448201527f554e5400000000000000000000000000000000000000000000000000000000006064820152608401610522565b6000806105e16008546001600160701b0380821692600160701b83049091169163ffffffff600160e01b9091041690565b5091509150816001600160701b0316871080156106065750806001600160701b031686105b6106525760405162461bcd60e51b815260206004820152601f60248201527f534442737761703a20494e53554646494349454e545f4c4951554944495459006044820152606401610522565b60065460075460009182916001600160a01b039182169190811690891682148015906106905750806001600160a01b0316896001600160a01b031614155b6106dc5760405162461bcd60e51b815260206004820152601360248201527f534442737761703a20494e56414c49445f544f000000000000000000000000006044820152606401610522565b8a156106ed576106ed828a8d61188b565b89156106fe576106fe818a8c61188b565b8615610784576040517f36db55c70000000000000000000000000000000000000000000000000000000081526001600160a01b038a16906336db55c7906107519033908f908f908e908e90600401612353565b600060405180830381600087803b15801561076b57600080fd5b505af115801561077f573d6000803e3d6000fd5b505050505b6040516370a0823160e01b81523060048201526001600160a01b038316906370a082319060240160206040518083038186803b1580156107c357600080fd5b505afa1580156107d7573d6000803e3d6000fd5b505050506040513d601f19601f820116820180604052508101906107fb919061228e565b6040516370a0823160e01b81523060048201529094506001600160a01b038216906370a082319060240160206040518083038186803b15801561083d57600080fd5b505afa158015610851573d6000803e3d6000fd5b505050506040513d601f19601f82011682018060405250810190610875919061228e565b92505050600089856001600160701b03166108909190612473565b831161089d5760006108ba565b6108b08a6001600160701b038716612473565b6108ba9084612473565b905060006108d18a6001600160701b038716612473565b83116108de5760006108fb565b6108f18a6001600160701b038716612473565b6108fb9084612473565b9050600082118061090c5750600081115b61097e5760405162461bcd60e51b815260206004820152602260248201527f534442737761703a20494e53554646494349454e545f494e5055545f414d4f5560448201527f4e540000000000000000000000000000000000000000000000000000000000006064820152608401610522565b60006109a061098e8460036119ef565b61099a876103e86119ef565b90611a91565b905060006109b261098e8460036119ef565b90506109d7620f42406109d16001600160701b038b8116908b166119ef565b906119ef565b6109e183836119ef565b1015610a2f5760405162461bcd60e51b815260206004820152600a60248201527f534442737761703a204b000000000000000000000000000000000000000000006044820152606401610522565b5050610a3d84848888611ad3565b60408051838152602081018390529081018c9052606081018b90526001600160a01b038a169033907fd78ad95fa46c994b6551d0da85fc275fe613ce37657fb8d5e3d130840159d8229060800160405180910390a350506001600c55505050505050505050565b6000610ab1338484611cf3565b5060015b92915050565b6001600160a01b03831660009081526002602090815260408083203384529091528120546fffffffffffffffffffffffffffffffff14610b48576001600160a01b0384166000908152600260209081526040808320338452909152902054610b239083611a91565b6001600160a01b03851660009081526002602090815260408083203384529091529020555b610b53848484611d55565b5060019392505050565b6005546001600160a01b03163314610bb75760405162461bcd60e51b815260206004820152601260248201527f534442737761703a20464f5242494444454e00000000000000000000000000006044820152606401610522565b600680546001600160a01b039384167fffffffffffffffffffffffff00000000000000000000000000000000000000009182161790915560078054929093169116179055565b600054610c0a9082611dfb565b60009081556001600160a01b038316815260016020526040902054610c2f9082611dfb565b6001600160a01b0383166000818152600160205260408082209390935591519091907fddf252ad1be2c89b69c2b068fc378daa952ba7f163c4a11628f55a4df523b3ef90610c809085815260200190565b60405180910390a35050565b6000600c54600114610cd25760405162461bcd60e51b815260206004820152600f60248201526e14d1109cddd85c0e881313d0d2d151608a1b6044820152606401610522565b6000600c819055600854600654604080516370a0823160e01b815230600482015290516001600160701b0380851695600160701b9095041693926001600160a01b0316916370a08231916024808301926020929190829003018186803b158015610d3b57600080fd5b505afa158015610d4f573d6000803e3d6000fd5b505050506040513d601f19601f82011682018060405250810190610d73919061228e565b6007546040516370a0823160e01b81523060048201529192506000916001600160a01b03909116906370a082319060240160206040518083038186803b158015610dbc57600080fd5b505afa158015610dd0573d6000803e3d6000fd5b505050506040513d601f19601f82011682018060405250810190610df4919061228e565b90506000610e0b836001600160701b038716611a91565b90506000610e22836001600160701b038716611a91565b90506000610e308787611e5a565b60005490915080610e6757610e536103e861099a610e4e87876119ef565b611fa6565b9850610e6260006103e8610bfd565b610eae565b610eab6001600160701b038916610e7e86846119ef565b610e889190612411565b6001600160701b038916610e9c86856119ef565b610ea69190612411565b612016565b98505b60008911610f245760405162461bcd60e51b815260206004820152602660248201527f534442737761703a20494e53554646494349454e545f4c49515549444954595f60448201527f4d494e54454400000000000000000000000000000000000000000000000000006064820152608401610522565b610f2e8a8a610bfd565b610f3a86868a8a611ad3565b8115610f6457600854610f60906001600160701b0380821691600160701b9004166119ef565b600b555b604080518581526020810185905233917f4c209b5fc8ad50758f13e2e1088ba56a560dff690a1c6fef26394f4c03821c4f910160405180910390a250506001600c5550949695505050505050565b600080600c54600114610ff95760405162461bcd60e51b815260206004820152600f60248201526e14d1109cddd85c0e881313d0d2d151608a1b6044820152606401610522565b6000600c819055600854600654600754604080516370a0823160e01b815230600482015290516001600160701b0380861696600160701b90960416946001600160a01b0394851694909316929184916370a0823191602480820192602092909190829003018186803b15801561106e57600080fd5b505afa158015611082573d6000803e3d6000fd5b505050506040513d601f19601f820116820180604052508101906110a6919061228e565b6040516370a0823160e01b81523060048201529091506000906001600160a01b038416906370a082319060240160206040518083038186803b1580156110eb57600080fd5b505afa1580156110ff573d6000803e3d6000fd5b505050506040513d601f19601f82011682018060405250810190611123919061228e565b306000908152600160205260408120549192506111408888611e5a565b6000549091508061115184876119ef565b61115b9190612411565b9a508061116884866119ef565b6111729190612411565b995060008b118015611184575060008a115b6111f65760405162461bcd60e51b815260206004820152602660248201527f534442737761703a20494e53554646494349454e545f4c49515549444954595f60448201527f4255524e454400000000000000000000000000000000000000000000000000006064820152608401610522565b611200308461202c565b61120b878d8d61188b565b611216868d8c61188b565b6040516370a0823160e01b81523060048201526001600160a01b038816906370a082319060240160206040518083038186803b15801561125557600080fd5b505afa158015611269573d6000803e3d6000fd5b505050506040513d601f19601f8201168201806040525081019061128d919061228e565b6040516370a0823160e01b81523060048201529095506001600160a01b038716906370a082319060240160206040518083038186803b1580156112cf57600080fd5b505afa1580156112e3573d6000803e3d6000fd5b505050506040513d601f19601f82011682018060405250810190611307919061228e565b935061131585858b8b611ad3565b811561133f5760085461133b906001600160701b0380821691600160701b9004166119ef565b600b555b604080518c8152602081018c90526001600160a01b038e169133917fdccd412f0b1252819cb1fd330b93224ca42612892bb3f4f789976e6d81936496910160405180910390a35050505050505050506001600c81905550915091565b6000610ab1338484611d55565b600c546001146113ec5760405162461bcd60e51b815260206004820152600f60248201526e14d1109cddd85c0e881313d0d2d151608a1b6044820152606401610522565b6000600c556006546007546008546040516370a0823160e01b81523060048201526001600160a01b0393841693909216916114969184918691611491916001600160701b039091169084906370a08231906024015b60206040518083038186803b15801561145957600080fd5b505afa15801561146d573d6000803e3d6000fd5b505050506040513d601f19601f8201168201806040525081019061099a919061228e565b61188b565b6008546040516370a0823160e01b81523060048201526114e3918391869161149191600160701b9091046001600160701b0316906001600160a01b038516906370a0823190602401611441565b50506001600c5550565b4284101561153d5760405162461bcd60e51b815260206004820152601060248201527f534442737761703a2045585049524544000000000000000000000000000000006044820152606401610522565b6003546001600160a01b038816600090815260046020526040812080549192917f6e71edae12b1b97f4d1f60370fef10105fa2faae0126114a169c64845d6126c9918b918b918b919087611590836124df565b909155506040805160208101969096526001600160a01b0394851690860152929091166060840152608083015260a082015260c0810187905260e001604051602081830303815290604052805190602001206040516020016116249291907f190100000000000000000000000000000000000000000000000000000000000081526002810192909252602282015260420190565b60408051601f198184030181528282528051602091820120600080855291840180845281905260ff88169284019290925260608301869052608083018590529092509060019060a0016020604051602081039080840390855afa15801561168f573d6000803e3d6000fd5b5050604051601f1901519150506001600160a01b038116158015906116c55750886001600160a01b0316816001600160a01b0316145b6117115760405162461bcd60e51b815260206004820152601a60248201527f534442737761703a20494e56414c49445f5349474e41545552450000000000006044820152606401610522565b61171c898989611cf3565b505050505050505050565b600c5460011461176b5760405162461bcd60e51b815260206004820152600f60248201526e14d1109cddd85c0e881313d0d2d151608a1b6044820152606401610522565b6000600c556006546040516370a0823160e01b8152306004820152611884916001600160a01b0316906370a082319060240160206040518083038186803b1580156117b557600080fd5b505afa1580156117c9573d6000803e3d6000fd5b505050506040513d601f19601f820116820180604052508101906117ed919061228e565b6007546040516370a0823160e01b81523060048201526001600160a01b03909116906370a082319060240160206040518083038186803b15801561183057600080fd5b505afa158015611844573d6000803e3d6000fd5b505050506040513d601f19601f82011682018060405250810190611868919061228e565b6008546001600160701b0380821691600160701b900416611ad3565b6001600c55565b604080518082018252601981527f7472616e7366657228616464726573732c75696e74323536290000000000000060209182015281516001600160a01b0385811660248301526044808301869052845180840390910181526064909201845291810180516001600160e01b03167fa9059cbb00000000000000000000000000000000000000000000000000000000179052915160009283928716916119309190612337565b6000604051808303816000865af19150503d806000811461196d576040519150601f19603f3d011682016040523d82523d6000602084013e611972565b606091505b509150915081801561199c57508051158061199c57508080602001905181019061199c919061226e565b6119e85760405162461bcd60e51b815260206004820152601860248201527f534442737761703a205452414e534645525f4641494c454400000000000000006044820152606401610522565b5050505050565b6000826119fe57506000610ab5565b6000611a0a8385612454565b905082611a178583612411565b14611a8a5760405162461bcd60e51b815260206004820152602160248201527f536166654d6174683a206d756c7469706c69636174696f6e206f766572666c6f60448201527f77000000000000000000000000000000000000000000000000000000000000006064820152608401610522565b9392505050565b6000611a8a83836040518060400160405280601e81526020017f536166654d6174683a207375627472616374696f6e206f766572666c6f7700008152506120b6565b6fffffffffffffffffffffffffffffffff8411801590611b0357506fffffffffffffffffffffffffffffffff8311155b611b4f5760405162461bcd60e51b815260206004820152601160248201527f534442737761703a204f564552464c4f570000000000000000000000000000006044820152606401610522565b6000611b60640100000000426124fa565b600854909150600090611b8090600160e01b900463ffffffff168361248a565b905060008163ffffffff16118015611ba057506001600160701b03841615155b8015611bb457506001600160701b03831615155b15611c43578063ffffffff16611bdc85611bcd866120f0565b6001600160e01b031690612109565b6001600160e01b0316611bef9190612454565b60096000828254611c0091906123d3565b909155505063ffffffff8116611c1984611bcd876120f0565b6001600160e01b0316611c2c9190612454565b600a6000828254611c3d91906123d3565b90915550505b6008805463ffffffff8416600160e01b026001600160e01b036001600160701b03898116600160701b9081027fffffffff000000000000000000000000000000000000000000000000000000009095168c83161794909417918216831794859055604080519382169282169290921783529290930490911660208201527f1c411e9a96e071241c2f21f7726b17ae89e3cab4c78be50e062b03a9fffbbad1910160405180910390a1505050505050565b6001600160a01b0383811660008181526002602090815260408083209487168084529482529182902085905590518481527f8c5be1e5ebec7d5bd14f71427d1e84f3dd0314c0f7b2291e5b200ac8c7c3b92591015b60405180910390a3505050565b6001600160a01b038316600090815260016020526040902054611d789082611a91565b6001600160a01b038085166000908152600160205260408082209390935590841681522054611da79082611dfb565b6001600160a01b0380841660008181526001602052604090819020939093559151908516907fddf252ad1be2c89b69c2b068fc378daa952ba7f163c4a11628f55a4df523b3ef90611d489085815260200190565b600080611e0883856123d3565b905083811015611a8a5760405162461bcd60e51b815260206004820152601b60248201527f536166654d6174683a206164646974696f6e206f766572666c6f7700000000006044820152606401610522565b600080600560009054906101000a90046001600160a01b03166001600160a01b031663017e7e586040518163ffffffff1660e01b815260040160206040518083038186803b158015611eab57600080fd5b505afa158015611ebf573d6000803e3d6000fd5b505050506040513d601f19601f82011682018060405250810190611ee3919061213a565b600b546001600160a01b038216158015945091925090611f92578015611f8d576000611f1e610e4e6001600160701b038881169088166119ef565b90506000611f2b83611fa6565b905080821115611f8a576000611f4d611f448484611a91565b600054906119ef565b90506000611f6683611f608660056119ef565b90611dfb565b90506000611f748284612411565b90508015611f8657611f868782610bfd565b5050505b50505b611f9e565b8015611f9e576000600b555b505092915050565b600060038211156120075750806000611fc0600283612411565b611fcb9060016123d3565b90505b8181101561200157905080600281611fe68186612411565b611ff091906123d3565b611ffa9190612411565b9050611fce565b50919050565b8115612011575060015b919050565b60008183106120255781611a8a565b5090919050565b6001600160a01b03821660009081526001602052604090205461204f9082611a91565b6001600160a01b038316600090815260016020526040812091909155546120769082611a91565b60009081556040518281526001600160a01b038416907fddf252ad1be2c89b69c2b068fc378daa952ba7f163c4a11628f55a4df523b3ef90602001610c80565b600081848411156120da5760405162461bcd60e51b815260040161052291906123a0565b5060006120e78486612473565b95945050505050565b6000610ab5600160701b6001600160701b038416612425565b6000611a8a6001600160701b038316846123eb565b60006020828403121561212f578081fd5b8135611a8a8161253a565b60006020828403121561214b578081fd5b8151611a8a8161253a565b60008060408385031215612168578081fd5b82356121738161253a565b915060208301356121838161253a565b809150509250929050565b6000806000606084860312156121a2578081fd5b83356121ad8161253a565b925060208401356121bd8161253a565b929592945050506040919091013590565b600080600080600080600060e0888a0312156121e8578283fd5b87356121f38161253a565b965060208801356122038161253a565b95506040880135945060608801359350608088013560ff81168114612226578384fd5b9699959850939692959460a0840135945060c09093013592915050565b60008060408385031215612255578182fd5b82356122608161253a565b946020939093013593505050565b60006020828403121561227f578081fd5b81518015158114611a8a578182fd5b60006020828403121561229f578081fd5b5051919050565b6000806000806000608086880312156122bd578081fd5b853594506020860135935060408601356122d68161253a565b9250606086013567ffffffffffffffff808211156122f2578283fd5b818801915088601f830112612305578283fd5b813581811115612313578384fd5b896020828501011115612324578384fd5b9699959850939650602001949392505050565b600082516123498184602087016124af565b9190910192915050565b6001600160a01b038616815284602082015283604082015260806060820152816080820152818360a0830137600081830160a090810191909152601f909201601f19160101949350505050565b60208152600082518060208401526123bf8160408501602087016124af565b601f01601f19169190910160400192915050565b600082198211156123e6576123e661250e565b500190565b60006001600160e01b038084168061240557612405612524565b92169190910492915050565b60008261242057612420612524565b500490565b60006001600160e01b038083168185168183048111821515161561244b5761244b61250e565b02949350505050565b600081600019048311821515161561246e5761246e61250e565b500290565b6000828210156124855761248561250e565b500390565b600063ffffffff838116908316818110156124a7576124a761250e565b039392505050565b60005b838110156124ca5781810151838201526020016124b2565b838111156124d9576000848401525b50505050565b60006000198214156124f3576124f361250e565b5060010190565b60008261250957612509612524565b500690565b634e487b7160e01b600052601160045260246000fd5b634e487b7160e01b600052601260045260246000fd5b6001600160a01b038116811461254f57600080fd5b5056fea2646970667358221220bf20a0cf89cf15cd4a7265865df034852f8a2ad03fed1b96feadcd976242c13364736f6c63430008040033",
  "immutableReferences": {},
  "source": "//SPDX-License-Identifier: UNLICENSED\r\npragma solidity ^0.8.4;\r\n\r\nimport './SDBswapBEP20.sol';\r\nimport './library/UQ112x112.sol';\r\nimport './interface/ISDBswapFactory.sol';\r\nimport './library/SafeMath.sol';\r\nimport './interface/ISDBswapCallee.sol';\r\n\r\ncontract SDBswapPair is SDBswapBEP20 {\r\n    using SafeMath  for uint;\r\n    using UQ112x112 for uint224;\r\n\r\n    uint public constant MINIMUM_LIQUIDITY = 10**3;\r\n    bytes4 private constant SELECTOR = bytes4(keccak256(bytes('transfer(address,uint256)')));\r\n\r\n\r\n    address public factory;\r\n    address public token0;\r\n    address public token1;\r\n   \r\n\r\n    uint112 private reserve0;           // uses single storage slot, accessible via getReserves\r\n    uint112 private reserve1;           // uses single storage slot, accessible via getReserves\r\n    uint32  private blockTimestampLast; // uses single storage slot, accessible via getReserves\r\n\r\n    uint public price0CumulativeLast;\r\n    uint public price1CumulativeLast;\r\n    uint public kLast; // reserve0 * reserve1, as of immediately after the most recent liquidity event\r\n    //0 * 1     \r\n\r\n    uint private unlocked = 1;\r\n    modifier lock() {\r\n        require(unlocked == 1, 'SDBswap: LOCKED');\r\n        unlocked = 0;\r\n        _;\r\n        unlocked = 1;\r\n    }\r\n\r\n    function getReserves() public view returns (uint112 _reserve0, uint112 _reserve1, uint32 _blockTimestampLast) {\r\n        _reserve0 = reserve0;\r\n        _reserve1 = reserve1;\r\n        _blockTimestampLast = blockTimestampLast;\r\n    }\r\n\r\n    function _safeTransfer(address token, address to, uint value) private {\r\n        (bool success, bytes memory data) = token.call(abi.encodeWithSelector(SELECTOR, to, value));\r\n        require(success && (data.length == 0 || abi.decode(data, (bool))), 'SDBswap: TRANSFER_FAILED');\r\n    }\r\n\r\n    event Mint(address indexed sender, uint amount0, uint amount1);\r\n    event Burn(address indexed sender, uint amount0, uint amount1, address indexed to);\r\n    event Swap(\r\n        address indexed sender,\r\n        uint amount0In,\r\n        uint amount1In,\r\n        uint amount0Out,\r\n        uint amount1Out,\r\n        address indexed to\r\n    );\r\n    event Sync(uint112 reserve0, uint112 reserve1);\r\n\r\n    constructor() public {\r\n        factory = msg.sender;\r\n    }\r\n\r\n    // called once by the factory at time of deployment\r\n    function initialize(address _token0, address _token1) external {\r\n        require(msg.sender == factory, 'SDBswap: FORBIDDEN'); // sufficient check\r\n        token0 = _token0;\r\n        token1 = _token1;\r\n    }\r\n\r\n    // update reserves and, on the first call per block, price accumulators\r\n    //  ,     ,  \r\n    function _update(uint balance0, uint balance1, uint112 _reserve0, uint112 _reserve1) private {\r\n        require(balance0 <= MAX && balance1 <= MAX, 'SDBswap: OVERFLOW');\r\n        uint32 blockTimestamp = uint32(block.timestamp % 2**32);\r\n        uint32 timeElapsed = blockTimestamp - blockTimestampLast; // overflow is desired\r\n        if (timeElapsed > 0 && _reserve0 != 0 && _reserve1 != 0) {\r\n            // * never overflows, and + overflow is desired\r\n            price0CumulativeLast += uint(UQ112x112.encode(_reserve1).uqdiv(_reserve0)) * timeElapsed;\r\n            price1CumulativeLast += uint(UQ112x112.encode(_reserve0).uqdiv(_reserve1)) * timeElapsed;\r\n        }\r\n        reserve0 = uint112(balance0);\r\n        reserve1 = uint112(balance1);\r\n        blockTimestampLast = blockTimestamp;\r\n        emit Sync(reserve0, reserve1);\r\n    }\r\n\r\n    // if fee is on, mint liquidity equivalent to 1/6th of the growth in sqrt(k)\r\n    ////   ,     1/6   sqrt (k)\r\n    function _mintFee(uint112 _reserve0, uint112 _reserve1) private returns (bool feeOn) {\r\n        address feeTo = ISDBswapFactory(factory).feeTo();\r\n        feeOn = feeTo != address(0);\r\n        uint _kLast = kLast; // gas savings\r\n        if (feeOn) {\r\n            if (_kLast != 0) {\r\n                uint rootK = SafeMath.sqrt(uint(_reserve0).mul(_reserve1));\r\n                uint rootKLast = SafeMath.sqrt(_kLast);\r\n                if (rootK > rootKLast) {\r\n                    uint numerator = totalSupply.mul(rootK.sub(rootKLast));\r\n                    uint denominator = rootK.mul(5).add(rootKLast);\r\n                    uint liquidity = numerator / denominator;\r\n                    if (liquidity > 0) _mint(feeTo, liquidity);\r\n                }\r\n            }\r\n        } else if (_kLast != 0) {\r\n            kLast = 0;\r\n        }\r\n    }\r\n\r\n    // this low-level function should be called from a contract which performs // important safety checks\r\n    //       ,\r\n     //    \r\n    function mint(address to) external lock returns (uint liquidity) {\r\n        (uint112 _reserve0, uint112 _reserve1,) = getReserves(); // gas savings\r\n        uint balance0 = SDBswapBEP20(token0).balanceOf(address(this));\r\n        uint balance1 = SDBswapBEP20(token1).balanceOf(address(this));\r\n        uint amount0 = balance0.sub(_reserve0);\r\n        uint amount1 = balance1.sub(_reserve1);\r\n\r\n        bool feeOn = _mintFee(_reserve0, _reserve1);\r\n        uint _totalSupply = totalSupply; // gas savings, must be defined here since totalSupply can update in _mintFee\r\n        if (_totalSupply == 0) {\r\n            liquidity = SafeMath.sqrt(amount0.mul(amount1)).sub(MINIMUM_LIQUIDITY);\r\n           _mint(address(0), MINIMUM_LIQUIDITY); // permanently lock the first MINIMUM_LIQUIDITY tokens\r\n        } else {\r\n            liquidity = SafeMath.min(amount0.mul(_totalSupply) / _reserve0, amount1.mul(_totalSupply) / _reserve1);\r\n        }\r\n        require(liquidity > 0, 'SDBswap: INSUFFICIENT_LIQUIDITY_MINTED');\r\n        _mint(to, liquidity);\r\n\r\n        _update(balance0, balance1, _reserve0, _reserve1);\r\n        if (feeOn) kLast = uint(reserve0).mul(reserve1); // reserve0 and reserve1 are up-to-date\r\n        emit Mint(msg.sender, amount0, amount1);\r\n    }\r\n\r\n    // this low-level function should be called from a contract which performs // important safety checks\r\n    function burn(address to) external lock returns (uint amount0, uint amount1) {\r\n        (uint112 _reserve0, uint112 _reserve1,) = getReserves(); // gas savings\r\n        address _token0 = token0;                                // gas savings\r\n        address _token1 = token1;                                // gas savings\r\n        uint balance0 = IBEP20BSCswap(_token0).balanceOf(address(this));\r\n        uint balance1 = IBEP20BSCswap(_token1).balanceOf(address(this));\r\n        uint liquidity = balanceOf[address(this)];\r\n\r\n        bool feeOn = _mintFee(_reserve0, _reserve1);\r\n        uint _totalSupply = totalSupply; // gas savings, must be defined here since totalSupply can update in _mintFee\r\n        amount0 = liquidity.mul(balance0) / _totalSupply; // using balances ensures pro-rata distribution\r\n        amount1 = liquidity.mul(balance1) / _totalSupply; // using balances ensures pro-rata distribution\r\n        require(amount0 > 0 && amount1 > 0, 'SDBswap: INSUFFICIENT_LIQUIDITY_BURNED');\r\n        _burn(address(this), liquidity);\r\n        _safeTransfer(_token0, to, amount0);\r\n        _safeTransfer(_token1, to, amount1);\r\n        balance0 = IBEP20BSCswap(_token0).balanceOf(address(this));\r\n        balance1 = IBEP20BSCswap(_token1).balanceOf(address(this));\r\n\r\n        _update(balance0, balance1, _reserve0, _reserve1);\r\n        if (feeOn) kLast = uint(reserve0).mul(reserve1); // reserve0 and reserve1 are up-to-date\r\n        emit Burn(msg.sender, amount0, amount1, to);\r\n    }\r\n\r\n    // this low-level function should be called from a contract which performs // important safety checks\r\n    function swap(uint amount0Out, uint amount1Out, address to, bytes calldata data) external lock {\r\n        require(amount0Out > 0 || amount1Out > 0, 'SDBswap: INSUFFICIENT_OUTPUT_AMOUNT');\r\n        (uint112 _reserve0, uint112 _reserve1,) = getReserves(); // gas savings\r\n        require(amount0Out < _reserve0 && amount1Out < _reserve1, 'SDBswap: INSUFFICIENT_LIQUIDITY');\r\n\r\n        uint balance0;\r\n        uint balance1;\r\n        { // scope for _token{0,1}, avoids stack too deep errors\r\n        address _token0 = token0;\r\n        address _token1 = token1;\r\n        require(to != _token0 && to != _token1, 'SDBswap: INVALID_TO');\r\n        if (amount0Out > 0) _safeTransfer(_token0, to, amount0Out); // optimistically transfer tokens\r\n        if (amount1Out > 0) _safeTransfer(_token1, to, amount1Out); // optimistically transfer tokens\r\n        if (data.length > 0) ISDBswapCallee(to).SDBswapCall(msg.sender, amount0Out, amount1Out, data);\r\n        balance0 = IBEP20BSCswap(_token0).balanceOf(address(this));\r\n        balance1 = IBEP20BSCswap(_token1).balanceOf(address(this));\r\n        }\r\n        uint amount0In = balance0 > _reserve0 - amount0Out ? balance0 - (_reserve0 - amount0Out) : 0;\r\n        uint amount1In = balance1 > _reserve1 - amount1Out ? balance1 - (_reserve1 - amount1Out) : 0;\r\n        require(amount0In > 0 || amount1In > 0, 'SDBswap: INSUFFICIENT_INPUT_AMOUNT');\r\n        { // scope for reserve{0,1}Adjusted, avoids stack too deep errors\r\n        uint balance0Adjusted = balance0.mul(1000).sub(amount0In.mul(3));\r\n        uint balance1Adjusted = balance1.mul(1000).sub(amount1In.mul(3));\r\n        require(balance0Adjusted.mul(balance1Adjusted) >= uint(_reserve0).mul(_reserve1).mul(1000**2), 'SDBswap: K');\r\n        }\r\n\r\n        _update(balance0, balance1, _reserve0, _reserve1);\r\n        emit Swap(msg.sender, amount0In, amount1In, amount0Out, amount1Out, to);\r\n    }\r\n\r\n    // force balances to match reserves\r\n    function skim(address to) external lock {\r\n        address _token0 = token0; // gas savings\r\n        address _token1 = token1; // gas savings\r\n        _safeTransfer(_token0, to, IBEP20BSCswap(_token0).balanceOf(address(this)).sub(reserve0));\r\n        _safeTransfer(_token1, to, IBEP20BSCswap(_token1).balanceOf(address(this)).sub(reserve1));\r\n    }\r\n\r\n    // force reserves to match balances\r\n    function sync() external lock {\r\n        _update(IBEP20BSCswap(token0).balanceOf(address(this)), IBEP20BSCswap(token1).balanceOf(address(this)), reserve0, reserve1);\r\n    }\r\n}\r\n",
  "sourcePath": "C:\\Users\\kolam\\Desktop\\safeSDB\\safedepositbox-smartcontracts\\contracts\\SDBswapPair.sol",
  "compiler": {
    "name": "solc",
    "version": "0.8.4+commit.c7e474f2.Emscripten.clang"
  },
  "schemaVersion": "3.4.1",
  "updatedAt": "2021-07-21T08:49:56.504Z",
  "devdoc": {
    "kind": "dev",
    "methods": {},
    "version": 1
  },
  "userdoc": {
    "kind": "user",
    "methods": {},
    "version": 1
  }
}