{
  "contractName": "SDBStaking",
  "abi": [
    {
      "inputs": [
        {
          "internalType": "contract IBEP20",
          "name": "_lp",
          "type": "address"
        },
        {
          "internalType": "contract IBEP20",
          "name": "_rewardToken",
          "type": "address"
        },
        {
          "internalType": "uint256",
          "name": "_rewardPerBlock",
          "type": "uint256"
        },
        {
          "internalType": "uint256",
          "name": "_startBlock",
          "type": "uint256"
        },
        {
          "internalType": "uint256",
          "name": "_bonusEndBlock",
          "type": "uint256"
        },
        {
          "internalType": "address",
          "name": "_adminAddress",
          "type": "address"
        },
        {
          "internalType": "address",
          "name": "_wbnb",
          "type": "address"
        }
      ],
      "stateMutability": "nonpayable",
      "type": "constructor"
    },
    {
      "anonymous": false,
      "inputs": [
        {
          "indexed": true,
          "internalType": "address",
          "name": "user",
          "type": "address"
        },
        {
          "indexed": false,
          "internalType": "uint256",
          "name": "amount",
          "type": "uint256"
        }
      ],
      "name": "Deposit",
      "type": "event"
    },
    {
      "anonymous": false,
      "inputs": [
        {
          "indexed": true,
          "internalType": "address",
          "name": "user",
          "type": "address"
        },
        {
          "indexed": false,
          "internalType": "uint256",
          "name": "amount",
          "type": "uint256"
        }
      ],
      "name": "EmergencyWithdraw",
      "type": "event"
    },
    {
      "anonymous": false,
      "inputs": [
        {
          "indexed": true,
          "internalType": "address",
          "name": "previousOwner",
          "type": "address"
        },
        {
          "indexed": true,
          "internalType": "address",
          "name": "newOwner",
          "type": "address"
        }
      ],
      "name": "OwnershipTransferred",
      "type": "event"
    },
    {
      "anonymous": false,
      "inputs": [
        {
          "indexed": true,
          "internalType": "address",
          "name": "user",
          "type": "address"
        },
        {
          "indexed": false,
          "internalType": "uint256",
          "name": "amount",
          "type": "uint256"
        }
      ],
      "name": "Withdraw",
      "type": "event"
    },
    {
      "inputs": [],
      "name": "WBNB",
      "outputs": [
        {
          "internalType": "address",
          "name": "",
          "type": "address"
        }
      ],
      "stateMutability": "view",
      "type": "function"
    },
    {
      "inputs": [],
      "name": "adminAddress",
      "outputs": [
        {
          "internalType": "address",
          "name": "",
          "type": "address"
        }
      ],
      "stateMutability": "view",
      "type": "function"
    },
    {
      "inputs": [],
      "name": "bonusEndBlock",
      "outputs": [
        {
          "internalType": "uint256",
          "name": "",
          "type": "uint256"
        }
      ],
      "stateMutability": "view",
      "type": "function"
    },
    {
      "inputs": [],
      "name": "limitAmount",
      "outputs": [
        {
          "internalType": "uint256",
          "name": "",
          "type": "uint256"
        }
      ],
      "stateMutability": "view",
      "type": "function"
    },
    {
      "inputs": [],
      "name": "owner",
      "outputs": [
        {
          "internalType": "address",
          "name": "",
          "type": "address"
        }
      ],
      "stateMutability": "view",
      "type": "function"
    },
    {
      "inputs": [
        {
          "internalType": "uint256",
          "name": "",
          "type": "uint256"
        }
      ],
      "name": "poolInfo",
      "outputs": [
        {
          "internalType": "contract IBEP20",
          "name": "lpToken",
          "type": "address"
        },
        {
          "internalType": "uint256",
          "name": "allocPoint",
          "type": "uint256"
        },
        {
          "internalType": "uint256",
          "name": "lastRewardBlock",
          "type": "uint256"
        },
        {
          "internalType": "uint256",
          "name": "accSDBPerShare",
          "type": "uint256"
        }
      ],
      "stateMutability": "view",
      "type": "function"
    },
    {
      "inputs": [],
      "name": "renounceOwnership",
      "outputs": [],
      "stateMutability": "nonpayable",
      "type": "function"
    },
    {
      "inputs": [],
      "name": "rewardPerBlock",
      "outputs": [
        {
          "internalType": "uint256",
          "name": "",
          "type": "uint256"
        }
      ],
      "stateMutability": "view",
      "type": "function"
    },
    {
      "inputs": [],
      "name": "rewardToken",
      "outputs": [
        {
          "internalType": "contract IBEP20",
          "name": "",
          "type": "address"
        }
      ],
      "stateMutability": "view",
      "type": "function"
    },
    {
      "inputs": [],
      "name": "startBlock",
      "outputs": [
        {
          "internalType": "uint256",
          "name": "",
          "type": "uint256"
        }
      ],
      "stateMutability": "view",
      "type": "function"
    },
    {
      "inputs": [],
      "name": "totalAllocPoint",
      "outputs": [
        {
          "internalType": "uint256",
          "name": "",
          "type": "uint256"
        }
      ],
      "stateMutability": "view",
      "type": "function"
    },
    {
      "inputs": [
        {
          "internalType": "address",
          "name": "newOwner",
          "type": "address"
        }
      ],
      "name": "transferOwnership",
      "outputs": [],
      "stateMutability": "nonpayable",
      "type": "function"
    },
    {
      "inputs": [
        {
          "internalType": "address",
          "name": "",
          "type": "address"
        }
      ],
      "name": "userInfo",
      "outputs": [
        {
          "internalType": "uint256",
          "name": "amount",
          "type": "uint256"
        },
        {
          "internalType": "uint256",
          "name": "rewardDebt",
          "type": "uint256"
        },
        {
          "internalType": "bool",
          "name": "inBlackList",
          "type": "bool"
        }
      ],
      "stateMutability": "view",
      "type": "function"
    },
    {
      "stateMutability": "payable",
      "type": "receive"
    },
    {
      "inputs": [
        {
          "internalType": "address",
          "name": "_adminAddress",
          "type": "address"
        }
      ],
      "name": "setAdmin",
      "outputs": [],
      "stateMutability": "nonpayable",
      "type": "function"
    },
    {
      "inputs": [
        {
          "internalType": "address",
          "name": "_blacklistAddress",
          "type": "address"
        }
      ],
      "name": "setBlackList",
      "outputs": [],
      "stateMutability": "nonpayable",
      "type": "function"
    },
    {
      "inputs": [
        {
          "internalType": "address",
          "name": "_blacklistAddress",
          "type": "address"
        }
      ],
      "name": "removeBlackList",
      "outputs": [],
      "stateMutability": "nonpayable",
      "type": "function"
    },
    {
      "inputs": [
        {
          "internalType": "uint256",
          "name": "_amount",
          "type": "uint256"
        }
      ],
      "name": "setLimitAmount",
      "outputs": [],
      "stateMutability": "nonpayable",
      "type": "function"
    },
    {
      "inputs": [
        {
          "internalType": "uint256",
          "name": "_from",
          "type": "uint256"
        },
        {
          "internalType": "uint256",
          "name": "_to",
          "type": "uint256"
        }
      ],
      "name": "getMultiplier",
      "outputs": [
        {
          "internalType": "uint256",
          "name": "",
          "type": "uint256"
        }
      ],
      "stateMutability": "view",
      "type": "function"
    },
    {
      "inputs": [
        {
          "internalType": "address",
          "name": "_user",
          "type": "address"
        }
      ],
      "name": "pendingReward",
      "outputs": [
        {
          "internalType": "uint256",
          "name": "",
          "type": "uint256"
        }
      ],
      "stateMutability": "view",
      "type": "function"
    },
    {
      "inputs": [
        {
          "internalType": "uint256",
          "name": "_pid",
          "type": "uint256"
        }
      ],
      "name": "updatePool",
      "outputs": [],
      "stateMutability": "nonpayable",
      "type": "function"
    },
    {
      "inputs": [],
      "name": "massUpdatePools",
      "outputs": [],
      "stateMutability": "nonpayable",
      "type": "function"
    },
    {
      "inputs": [],
      "name": "deposit",
      "outputs": [],
      "stateMutability": "payable",
      "type": "function"
    },
    {
      "inputs": [
        {
          "internalType": "uint256",
          "name": "_amount",
          "type": "uint256"
        }
      ],
      "name": "withdraw",
      "outputs": [],
      "stateMutability": "nonpayable",
      "type": "function"
    },
    {
      "inputs": [],
      "name": "emergencyWithdraw",
      "outputs": [],
      "stateMutability": "nonpayable",
      "type": "function"
    },
    {
      "inputs": [
        {
          "internalType": "uint256",
          "name": "_amount",
          "type": "uint256"
        }
      ],
      "name": "emergencyRewardWithdraw",
      "outputs": [],
      "stateMutability": "nonpayable",
      "type": "function"
    }
  ],
  "bytecode": "0x60a0604052678ac7230489e8000060065560006007553480156200002257600080fd5b5060405162001c1f38038062001c1f8339810160408190526200004591620001c3565b600080546001600160a01b031916339081178255604051909182917f8be0079c531659141344cd1fd0a4f28419497f9722a3daafe3b4186f6b6457e0908290a350600180546001600160a01b03199081166001600160a01b03988916178255600396909655600885905560099390935560028054861692871692909217909155606090811b6001600160601b031916608090815260408051918201815296861681526103e86020820181815297820194855260009282018381526004805495860181559384905291517f8a35acfbc15ff81a39ae7d344fd709f28e8600b4aa8c65c6b64bfe7fe36bd19b949093029384018054909616929096169190911790935593517f8a35acfbc15ff81a39ae7d344fd709f28e8600b4aa8c65c6b64bfe7fe36bd19c850155517f8a35acfbc15ff81a39ae7d344fd709f28e8600b4aa8c65c6b64bfe7fe36bd19d840155517f8a35acfbc15ff81a39ae7d344fd709f28e8600b4aa8c65c6b64bfe7fe36bd19e9092019190915560075562000263565b600080600080600080600060e0888a031215620001de578283fd5b8751620001eb816200024a565b6020890151909750620001fe816200024a565b8096505060408801519450606088015193506080880151925060a088015162000227816200024a565b60c08901519092506200023a816200024a565b8091505092959891949750929550565b6001600160a01b03811681146200026057600080fd5b50565b60805160601c6119816200029e600039600081816101aa01528181610461015281816107a701528181610f3f0152610fc901526119816000f3fe60806040526004361061019a5760003560e01c806372700241116100e1578063d0e30db01161008a578063f2fde38b11610064578063f2fde38b146104c0578063f40f0f52146104e0578063f7c618c114610500578063fc6f94681461052057600080fd5b8063d0e30db014610483578063db2e21bc1461048b578063e4997dc5146104a057600080fd5b80638da5cb5b116100bb5780638da5cb5b146103fd5780638dbb1e3a1461042f5780638dd950021461044f57600080fd5b806372700241146103b157806378abafaf146103d15780638ae39cac146103e757600080fd5b80633279beab11610143578063630b5ba11161011d578063630b5ba114610367578063704b6c021461037c578063715018a61461039c57600080fd5b80633279beab1461031157806348cd4cb11461033157806351eb05a61461034757600080fd5b80631aed6553116101745780631aed6553146102bb5780631f107a45146102d15780632e1a7d4d146102f157600080fd5b80631526fe27146101ec57806317caf6f11461023b5780631959a0021461025f57600080fd5b366101e757336001600160a01b037f000000000000000000000000000000000000000000000000000000000000000016146101e557634e487b7160e01b600052600160045260246000fd5b005b600080fd5b3480156101f857600080fd5b5061020c610207366004611808565b610540565b604080516001600160a01b03909516855260208501939093529183015260608201526080015b60405180910390f35b34801561024757600080fd5b5061025160075481565b604051908152602001610232565b34801561026b57600080fd5b5061029e61027a3660046117c1565b60056020526000908152604090208054600182015460029092015490919060ff1683565b604080519384526020840192909252151590820152606001610232565b3480156102c757600080fd5b5061025160095481565b3480156102dd57600080fd5b506101e56102ec366004611808565b610584565b3480156102fd57600080fd5b506101e561030c366004611808565b6105e8565b34801561031d57600080fd5b506101e561032c366004611808565b610870565b34801561033d57600080fd5b5061025160085481565b34801561035357600080fd5b506101e5610362366004611808565b610a1b565b34801561037357600080fd5b506101e5610b5f565b34801561038857600080fd5b506101e56103973660046117c1565b610b86565b3480156103a857600080fd5b506101e5610c0f565b3480156103bd57600080fd5b506101e56103cc3660046117c1565b610cc0565b3480156103dd57600080fd5b5061025160065481565b3480156103f357600080fd5b5061025160035481565b34801561040957600080fd5b506000546001600160a01b03165b6040516001600160a01b039091168152602001610232565b34801561043b57600080fd5b5061025161044a366004611838565b610d2f565b34801561045b57600080fd5b506104177f000000000000000000000000000000000000000000000000000000000000000081565b6101e5610d6f565b34801561049757600080fd5b506101e56110d3565b3480156104ac57600080fd5b506101e56104bb3660046117c1565b6111e5565b3480156104cc57600080fd5b506101e56104db3660046117c1565b611251565b3480156104ec57600080fd5b506102516104fb3660046117c1565b61138f565b34801561050c57600080fd5b50600154610417906001600160a01b031681565b34801561052c57600080fd5b50600254610417906001600160a01b031681565b6004818154811061055057600080fd5b600091825260209091206004909102018054600182015460028301546003909301546001600160a01b039092169350919084565b6000546001600160a01b031633146105e35760405162461bcd60e51b815260206004820181905260248201527f4f776e61626c653a2063616c6c6572206973206e6f7420746865206f776e657260448201526064015b60405180910390fd5b600655565b6000600460008154811061060c57634e487b7160e01b600052603260045260246000fd5b600091825260208083203384526005909152604090922080546004909202909201925083111561067e5760405162461bcd60e51b815260206004820152601260248201527f77697468647261773a206e6f7420676f6f64000000000000000000000000000060448201526064016105da565b6106886000610a1b565b60006106c282600101546106bc64e8d4a510006106b68760030154876000015461150290919063ffffffff16565b906115a4565b906115e6565b90506000811180156106d95750600282015460ff16155b156107645760015460405163a9059cbb60e01b8152336004820152602481018390526001600160a01b039091169063a9059cbb90604401602060405180830381600087803b15801561072a57600080fd5b505af115801561073e573d6000803e3d6000fd5b505050506040513d601f19601f8201168201806040525081019061076291906117e8565b505b831561081557815461077690856115e6565b82556040517f2e1a7d4d000000000000000000000000000000000000000000000000000000008152600481018590527f00000000000000000000000000000000000000000000000000000000000000006001600160a01b031690632e1a7d4d90602401600060405180830381600087803b1580156107f357600080fd5b505af1158015610807573d6000803e3d6000fd5b505050506108153385611628565b600383015482546108309164e8d4a51000916106b691611502565b600183015560405184815233907f884edad9ce6fa2440d8a54cc123490eb96d2768479d49ff9c7366125a94243649060200160405180910390a250505050565b6000546001600160a01b031633146108ca5760405162461bcd60e51b815260206004820181905260248201527f4f776e61626c653a2063616c6c6572206973206e6f7420746865206f776e657260448201526064016105da565b6001546040516370a0823160e01b81523060048201526001600160a01b03909116906370a082319060240160206040518083038186803b15801561090d57600080fd5b505afa158015610921573d6000803e3d6000fd5b505050506040513d601f19601f820116820180604052508101906109459190611820565b81106109935760405162461bcd60e51b815260206004820152601060248201527f6e6f7420656e6f75676820746f6b656e0000000000000000000000000000000060448201526064016105da565b60015460405163a9059cbb60e01b8152336004820152602481018390526001600160a01b039091169063a9059cbb90604401602060405180830381600087803b1580156109df57600080fd5b505af11580156109f3573d6000803e3d6000fd5b505050506040513d601f19601f82011682018060405250810190610a1791906117e8565b5050565b600060048281548110610a3e57634e487b7160e01b600052603260045260246000fd5b9060005260206000209060040201905080600201544311610a5d575050565b80546040516370a0823160e01b81523060048201526000916001600160a01b0316906370a082319060240160206040518083038186803b158015610aa057600080fd5b505afa158015610ab4573d6000803e3d6000fd5b505050506040513d601f19601f82011682018060405250810190610ad89190611820565b905080610aea57504360029091015550565b6000610afa836002015443610d2f565b90506000610b276007546106b68660010154610b216003548761150290919063ffffffff16565b90611502565b9050610b4a610b3f846106b68464e8d4a51000611502565b6003860154906116fa565b60038501555050436002909201919091555050565b60045460005b81811015610a1757610b7681610a1b565b610b7f8161191a565b9050610b65565b6000546001600160a01b03163314610be05760405162461bcd60e51b815260206004820181905260248201527f4f776e61626c653a2063616c6c6572206973206e6f7420746865206f776e657260448201526064016105da565b6002805473ffffffffffffffffffffffffffffffffffffffff19166001600160a01b0392909216919091179055565b6000546001600160a01b03163314610c695760405162461bcd60e51b815260206004820181905260248201527f4f776e61626c653a2063616c6c6572206973206e6f7420746865206f776e657260448201526064016105da565b600080546040516001600160a01b03909116907f8be0079c531659141344cd1fd0a4f28419497f9722a3daafe3b4186f6b6457e0908390a36000805473ffffffffffffffffffffffffffffffffffffffff19169055565b6002546001600160a01b03163314610d085760405162461bcd60e51b815260206004820152600b60248201526a61646d696e3a207775743f60a81b60448201526064016105da565b6001600160a01b03166000908152600560205260409020600201805460ff19166001179055565b60006009548211610d4b57610d4482846115e6565b9050610d69565b6009548310610d5c57506000610d69565b600954610d4490846115e6565b92915050565b60006004600081548110610d9357634e487b7160e01b600052603260045260246000fd5b60009182526020808320338452600590915260409092206006548154600490930290930193509190610dc590346116fa565b1115610e135760405162461bcd60e51b815260206004820152600e60248201527f6578636565642074686520746f7000000000000000000000000000000000000060448201526064016105da565b600281015460ff1615610e685760405162461bcd60e51b815260206004820152600d60248201527f696e20626c61636b206c6973740000000000000000000000000000000000000060448201526064016105da565b610e726000610a1b565b805415610f37576000610ea782600101546106bc64e8d4a510006106b68760030154876000015461150290919063ffffffff16565b90508015610f355760015460405163a9059cbb60e01b8152336004820152602481018390526001600160a01b039091169063a9059cbb90604401602060405180830381600087803b158015610efb57600080fd5b505af1158015610f0f573d6000803e3d6000fd5b505050506040513d601f19601f82011682018060405250810190610f3391906117e8565b505b505b341561107a577f00000000000000000000000000000000000000000000000000000000000000006001600160a01b031663d0e30db0346040518263ffffffff1660e01b81526004016000604051808303818588803b158015610f9857600080fd5b505af1158015610fac573d6000803e3d6000fd5b505060405163a9059cbb60e01b81523060048201523460248201527f00000000000000000000000000000000000000000000000000000000000000006001600160a01b0316935063a9059cbb92506044019050602060405180830381600087803b15801561101957600080fd5b505af115801561102d573d6000803e3d6000fd5b505050506040513d601f19601f8201168201806040525081019061105191906117e8565b61106b57634e487b7160e01b600052600160045260246000fd5b805461107790346116fa565b81555b600382015481546110959164e8d4a51000916106b691611502565b600182015560405134815233907fe1fffcc4923d04b559f4d29a8bfc6cda04eb5b0d3c460751c2402c5c5cc9109c9060200160405180910390a25050565b600060046000815481106110f757634e487b7160e01b600052603260045260246000fd5b60009182526020808320338085526005909252604093849020600493840290910180548254955163a9059cbb60e01b81529485019390935260248401949094529293506001600160a01b03169063a9059cbb90604401602060405180830381600087803b15801561116757600080fd5b505af115801561117b573d6000803e3d6000fd5b505050506040513d601f19601f8201168201806040525081019061119f91906117e8565b50805460405190815233907f5fafa99d0643513820be26656b45130b01e1c03062e1266bf36f88cbd3bd96959060200160405180910390a2600080825560019091015550565b6002546001600160a01b0316331461122d5760405162461bcd60e51b815260206004820152600b60248201526a61646d696e3a207775743f60a81b60448201526064016105da565b6001600160a01b03166000908152600560205260409020600201805460ff19169055565b6000546001600160a01b031633146112ab5760405162461bcd60e51b815260206004820181905260248201527f4f776e61626c653a2063616c6c6572206973206e6f7420746865206f776e657260448201526064016105da565b6001600160a01b0381166113275760405162461bcd60e51b815260206004820152602660248201527f4f776e61626c653a206e6577206f776e657220697320746865207a65726f206160448201527f646472657373000000000000000000000000000000000000000000000000000060648201526084016105da565b600080546040516001600160a01b03808516939216917f8be0079c531659141344cd1fd0a4f28419497f9722a3daafe3b4186f6b6457e091a36000805473ffffffffffffffffffffffffffffffffffffffff19166001600160a01b0392909216919091179055565b60008060046000815481106113b457634e487b7160e01b600052603260045260246000fd5b600091825260208083206001600160a01b0387811685526005909252604080852060049485029092016003810154815492516370a0823160e01b8152309681019690965290965091949193919216906370a082319060240160206040518083038186803b15801561142457600080fd5b505afa158015611438573d6000803e3d6000fd5b505050506040513d601f19601f8201168201806040525081019061145c9190611820565b905083600201544311801561147057508015155b156114d0576000611485856002015443610d2f565b905060006114ac6007546106b68860010154610b216003548761150290919063ffffffff16565b90506114cb6114c4846106b68464e8d4a51000611502565b85906116fa565b935050505b6114f883600101546106bc64e8d4a510006106b686886000015461150290919063ffffffff16565b9695505050505050565b60008261151157506000610d69565b600061151d83856118e4565b90508261152a85836118c4565b1461159d5760405162461bcd60e51b815260206004820152602160248201527f536166654d6174683a206d756c7469706c69636174696f6e206f766572666c6f60448201527f770000000000000000000000000000000000000000000000000000000000000060648201526084016105da565b9392505050565b600061159d83836040518060400160405280601a81526020017f536166654d6174683a206469766973696f6e206279207a65726f000000000000815250611759565b600061159d83836040518060400160405280601e81526020017f536166654d6174683a207375627472616374696f6e206f766572666c6f770000815250611790565b6000826001600160a01b03166159d883604051600060405180830381858888f193505050503d8060008114611679576040519150601f19603f3d011682016040523d82523d6000602084013e61167e565b606091505b50509050806116f55760405162461bcd60e51b815260206004820152602360248201527f5472616e7366657248656c7065723a204554485f5452414e534645525f46414960448201527f4c4544000000000000000000000000000000000000000000000000000000000060648201526084016105da565b505050565b60008061170783856118ac565b90508381101561159d5760405162461bcd60e51b815260206004820152601b60248201527f536166654d6174683a206164646974696f6e206f766572666c6f77000000000060448201526064016105da565b6000818361177a5760405162461bcd60e51b81526004016105da9190611859565b50600061178784866118c4565b95945050505050565b600081848411156117b45760405162461bcd60e51b81526004016105da9190611859565b5060006117878486611903565b6000602082840312156117d2578081fd5b81356001600160a01b038116811461159d578182fd5b6000602082840312156117f9578081fd5b8151801515811461159d578182fd5b600060208284031215611819578081fd5b5035919050565b600060208284031215611831578081fd5b5051919050565b6000806040838503121561184a578081fd5b50508035926020909101359150565b6000602080835283518082850152825b8181101561188557858101830151858201604001528201611869565b818111156118965783604083870101525b50601f01601f1916929092016040019392505050565b600082198211156118bf576118bf611935565b500190565b6000826118df57634e487b7160e01b81526012600452602481fd5b500490565b60008160001904831182151516156118fe576118fe611935565b500290565b60008282101561191557611915611935565b500390565b600060001982141561192e5761192e611935565b5060010190565b634e487b7160e01b600052601160045260246000fdfea26469706673582212203571d718cec79c127cd5d879a0691d602f127da7c825ecddba7c351ecd29a35b64736f6c63430008040033",
  "immutableReferences": {
    "2008": [
      {
        "length": 32,
        "start": 426
      },
      {
        "length": 32,
        "start": 1121
      },
      {
        "length": 32,
        "start": 1959
      },
      {
        "length": 32,
        "start": 3903
      },
      {
        "length": 32,
        "start": 4041
      }
    ]
  },
  "source": "//SPDX-License-Identifier: UNLICENSED\r\npragma solidity ^0.8.4;\r\n\r\n import \"../interface/IWBNB.sol\";\r\n import \"../library/Ownable.sol\";\r\n import \"./MasterChef.sol\";\r\n import '../interface/IBEP20.sol';\r\n \r\n\r\n\r\ncontract SDBStaking is Ownable {\r\n    using SafeMath for uint256;\r\n    // using BEP20 for IBEP20;\r\n\r\n    // Info of each user.\r\n    struct UserInfo {\r\n        uint256 amount;     // How many LP tokens the user has provided.\r\n        uint256 rewardDebt; // Reward debt. See explanation below.\r\n        bool inBlackList;\r\n    }\r\n\r\n    // Info of each pool.\r\n    struct PoolInfo {\r\n        IBEP20 lpToken;           // Address of LP token contract.\r\n        uint256 allocPoint;       // How many allocation points assigned to this pool. SDBs to distribute per block.\r\n        uint256 lastRewardBlock;  // Last block number that SDBs distribution occurs.\r\n        uint256 accSDBPerShare; // Accumulated SDBs per share, times 1e12. See below.\r\n    }\r\n\r\n    // The REWARD TOKEN\r\n    IBEP20 public rewardToken;\r\n\r\n    // adminAddress\r\n    address public adminAddress;\r\n\r\n    // WBNB\r\n    address public immutable WBNB;\r\n\r\n    // CAKE tokens created per block.\r\n    uint256 public rewardPerBlock;\r\n\r\n    // Info of each pool.\r\n    PoolInfo[] public poolInfo;\r\n    // Info of each user that stakes LP tokens.\r\n    mapping (address => UserInfo) public userInfo;\r\n    // limit 10 BNB here\r\n    uint256 public limitAmount = 10000000000000000000;\r\n    // Total allocation poitns. Must be the sum of all allocation points in all pools.\r\n    uint256 public totalAllocPoint = 0;\r\n    // The block number when SDB mining starts.\r\n    uint256 public startBlock;\r\n    // The block number when SDB mining ends.\r\n    uint256 public bonusEndBlock;\r\n\r\n    event Deposit(address indexed user, uint256 amount);\r\n    event Withdraw(address indexed user, uint256 amount);\r\n    event EmergencyWithdraw(address indexed user, uint256 amount);\r\n\r\n    constructor(\r\n        IBEP20 _lp,\r\n        IBEP20 _rewardToken,\r\n        uint256 _rewardPerBlock,\r\n        uint256 _startBlock,\r\n        uint256 _bonusEndBlock,\r\n        address _adminAddress,\r\n        address _wbnb\r\n    ) public {\r\n        rewardToken = _rewardToken;\r\n        rewardPerBlock = _rewardPerBlock;\r\n        startBlock = _startBlock;\r\n        bonusEndBlock = _bonusEndBlock;\r\n        adminAddress = _adminAddress;\r\n        WBNB = _wbnb;\r\n\r\n        // staking pool\r\n        poolInfo.push(PoolInfo({\r\n            lpToken: _lp,\r\n            allocPoint: 1000,\r\n            lastRewardBlock: startBlock,\r\n            accSDBPerShare: 0\r\n        }));\r\n\r\n        totalAllocPoint = 1000;\r\n\r\n    }\r\n\r\n    modifier onlyAdmin() {\r\n        require(msg.sender == adminAddress, \"admin: wut?\");\r\n        _;\r\n    }\r\n\r\n    receive() external payable {\r\n        assert(msg.sender == WBNB); // only accept BNB via fallback from the WBNB contract\r\n    }\r\n\r\n    // Update admin address by the previous dev.\r\n    function setAdmin(address _adminAddress) public onlyOwner {\r\n        adminAddress = _adminAddress;\r\n    }\r\n\r\n    function setBlackList(address _blacklistAddress) public onlyAdmin {\r\n        userInfo[_blacklistAddress].inBlackList = true;\r\n    }\r\n\r\n    function removeBlackList(address _blacklistAddress) public onlyAdmin {\r\n        userInfo[_blacklistAddress].inBlackList = false;\r\n    }\r\n\r\n    // Set the limit amount. Can only be called by the owner.\r\n    function setLimitAmount(uint256 _amount) public onlyOwner {\r\n        limitAmount = _amount;\r\n    }\r\n\r\n    // Return reward multiplier over the given _from to _to block.\r\n    function getMultiplier(uint256 _from, uint256 _to) public view returns (uint256) {\r\n        if (_to <= bonusEndBlock) {\r\n            return _to.sub(_from);\r\n        } else if (_from >= bonusEndBlock) {\r\n            return 0;\r\n        } else {\r\n            return bonusEndBlock.sub(_from);\r\n        }\r\n    }\r\n\r\n    // View function to see pending Reward on frontend.\r\n    function pendingReward(address _user) external view returns (uint256) {\r\n        PoolInfo storage pool = poolInfo[0];\r\n        UserInfo storage user = userInfo[_user];\r\n        uint256 accSDBPerShare = pool.accSDBPerShare;\r\n        uint256 lpSupply = pool.lpToken.balanceOf(address(this));\r\n        if (block.number > pool.lastRewardBlock && lpSupply != 0) {\r\n            uint256 multiplier = getMultiplier(pool.lastRewardBlock, block.number);\r\n            uint256 sdbReward = multiplier.mul(rewardPerBlock).mul(pool.allocPoint).div(totalAllocPoint);\r\n            accSDBPerShare = accSDBPerShare.add(sdbReward.mul(1e12).div(lpSupply));\r\n        }\r\n        return user.amount.mul(accSDBPerShare).div(1e12).sub(user.rewardDebt);\r\n    }\r\n\r\n    // Update reward variables of the given pool to be up-to-date.\r\n    function updatePool(uint256 _pid) public {\r\n        PoolInfo storage pool = poolInfo[_pid];\r\n        if (block.number <= pool.lastRewardBlock) {\r\n            return;\r\n        }\r\n        uint256 lpSupply = pool.lpToken.balanceOf(address(this));\r\n        if (lpSupply == 0) {\r\n            pool.lastRewardBlock = block.number;\r\n            return;\r\n        }\r\n        uint256 multiplier = getMultiplier(pool.lastRewardBlock, block.number);\r\n        uint256 sdbReward = multiplier.mul(rewardPerBlock).mul(pool.allocPoint).div(totalAllocPoint);\r\n        pool.accSDBPerShare = pool.accSDBPerShare.add(sdbReward.mul(1e12).div(lpSupply));\r\n        pool.lastRewardBlock = block.number;\r\n    }\r\n\r\n    // Update reward variables for all pools. Be careful of gas spending!\r\n    function massUpdatePools() public {\r\n        uint256 length = poolInfo.length;\r\n        for (uint256 pid = 0; pid < length; ++pid) {\r\n            updatePool(pid);\r\n        }\r\n    }\r\n\r\n\r\n    // Stake tokens to SmartChef\r\n    function deposit() public payable {\r\n        PoolInfo storage pool = poolInfo[0];\r\n        UserInfo storage user = userInfo[msg.sender];\r\n\r\n        require (user.amount.add(msg.value) <= limitAmount, 'exceed the top');\r\n        require (!user.inBlackList, 'in black list');\r\n\r\n        updatePool(0);\r\n        if (user.amount > 0) {\r\n            uint256 pending = user.amount.mul(pool.accSDBPerShare).div(1e12).sub(user.rewardDebt);\r\n            if(pending > 0) {\r\n                rewardToken.transfer(address(msg.sender), pending);\r\n            }\r\n        }\r\n        if(msg.value > 0) {\r\n            IWBNB(WBNB).deposit{value: msg.value}();\r\n            assert(IWBNB(WBNB).transfer(address(this), msg.value));\r\n            user.amount = user.amount.add(msg.value);\r\n        }\r\n        user.rewardDebt = user.amount.mul(pool.accSDBPerShare).div(1e12);\r\n\r\n        emit Deposit(msg.sender, msg.value);\r\n    }\r\n\r\n    function safeTransferBNB(address to, uint256 value) internal {\r\n        (bool success, ) = to.call{gas: 23000, value: value}(\"\");\r\n        // (bool success,) = to.call{value:value}(new bytes(0));\r\n        require(success, 'TransferHelper: ETH_TRANSFER_FAILED');\r\n    }\r\n\r\n    // Withdraw tokens from STAKING.\r\n    function withdraw(uint256 _amount) public {\r\n        PoolInfo storage pool = poolInfo[0];\r\n        UserInfo storage user = userInfo[msg.sender];\r\n        require(user.amount >= _amount, \"withdraw: not good\");\r\n        updatePool(0);\r\n        uint256 pending = user.amount.mul(pool.accSDBPerShare).div(1e12).sub(user.rewardDebt);\r\n        if(pending > 0 && !user.inBlackList) {\r\n            rewardToken.transfer(address(msg.sender), pending);\r\n        }\r\n        if(_amount > 0) {\r\n            user.amount = user.amount.sub(_amount);\r\n            IWBNB(WBNB).withdraw(_amount);\r\n            safeTransferBNB(address(msg.sender), _amount);\r\n        }\r\n        user.rewardDebt = user.amount.mul(pool.accSDBPerShare).div(1e12);\r\n\r\n        emit Withdraw(msg.sender, _amount);\r\n    }\r\n\r\n    // Withdraw without caring about rewards. EMERGENCY ONLY.\r\n    function emergencyWithdraw() public {\r\n        PoolInfo storage pool = poolInfo[0];\r\n        UserInfo storage user = userInfo[msg.sender];\r\n        pool.lpToken.transfer(address(msg.sender), user.amount);\r\n        emit EmergencyWithdraw(msg.sender, user.amount);\r\n        user.amount = 0;\r\n        user.rewardDebt = 0;\r\n    }\r\n\r\n    // Withdraw reward. EMERGENCY ONLY.\r\n    function emergencyRewardWithdraw(uint256 _amount) public onlyOwner {\r\n        require(_amount < rewardToken.balanceOf(address(this)), 'not enough token');\r\n        rewardToken.transfer(address(msg.sender), _amount);\r\n    }\r\n\r\n}",
  "sourcePath": "C:/Users/kolam/Desktop/safeSDB/safedepositbox-smartcontracts/contracts/SDB-swap-periphery/SDBStaking.sol",
  "compiler": {
    "name": "solc",
    "version": "0.8.4+commit.c7e474f2.Emscripten.clang"
  },
  "schemaVersion": "3.4.1",
  "updatedAt": "2021-07-21T08:49:56.462Z",
  "devdoc": {
    "kind": "dev",
    "methods": {
      "owner()": {
        "details": "Returns the address of the current owner."
      },
      "renounceOwnership()": {
        "details": "Leaves the contract without owner. It will not be possible to call `onlyOwner` functions anymore. Can only be called by the current owner. NOTE: Renouncing ownership will leave the contract without an owner, thereby removing any functionality that is only available to the owner."
      },
      "transferOwnership(address)": {
        "details": "Transfers ownership of the contract to a new account (`newOwner`). Can only be called by the current owner."
      }
    },
    "version": 1
  },
  "userdoc": {
    "kind": "user",
    "methods": {},
    "version": 1
  }
}