{
  "contractName": "SDBswapBEP20",
  "abi": [
    {
      "inputs": [],
      "stateMutability": "nonpayable",
      "type": "constructor"
    },
    {
      "anonymous": false,
      "inputs": [
        {
          "indexed": true,
          "internalType": "address",
          "name": "owner",
          "type": "address"
        },
        {
          "indexed": true,
          "internalType": "address",
          "name": "spender",
          "type": "address"
        },
        {
          "indexed": false,
          "internalType": "uint256",
          "name": "value",
          "type": "uint256"
        }
      ],
      "name": "Approval",
      "type": "event"
    },
    {
      "anonymous": false,
      "inputs": [
        {
          "indexed": true,
          "internalType": "address",
          "name": "from",
          "type": "address"
        },
        {
          "indexed": true,
          "internalType": "address",
          "name": "to",
          "type": "address"
        },
        {
          "indexed": false,
          "internalType": "uint256",
          "name": "value",
          "type": "uint256"
        }
      ],
      "name": "Transfer",
      "type": "event"
    },
    {
      "inputs": [],
      "name": "DOMAIN_SEPARATOR",
      "outputs": [
        {
          "internalType": "bytes32",
          "name": "",
          "type": "bytes32"
        }
      ],
      "stateMutability": "view",
      "type": "function"
    },
    {
      "inputs": [],
      "name": "MAX",
      "outputs": [
        {
          "internalType": "uint256",
          "name": "",
          "type": "uint256"
        }
      ],
      "stateMutability": "view",
      "type": "function"
    },
    {
      "inputs": [],
      "name": "PERMIT_TYPEHASH",
      "outputs": [
        {
          "internalType": "bytes32",
          "name": "",
          "type": "bytes32"
        }
      ],
      "stateMutability": "view",
      "type": "function"
    },
    {
      "inputs": [
        {
          "internalType": "address",
          "name": "",
          "type": "address"
        },
        {
          "internalType": "address",
          "name": "",
          "type": "address"
        }
      ],
      "name": "allowance",
      "outputs": [
        {
          "internalType": "uint256",
          "name": "",
          "type": "uint256"
        }
      ],
      "stateMutability": "view",
      "type": "function"
    },
    {
      "inputs": [
        {
          "internalType": "address",
          "name": "",
          "type": "address"
        }
      ],
      "name": "balanceOf",
      "outputs": [
        {
          "internalType": "uint256",
          "name": "",
          "type": "uint256"
        }
      ],
      "stateMutability": "view",
      "type": "function"
    },
    {
      "inputs": [],
      "name": "decimals",
      "outputs": [
        {
          "internalType": "uint8",
          "name": "",
          "type": "uint8"
        }
      ],
      "stateMutability": "view",
      "type": "function"
    },
    {
      "inputs": [],
      "name": "name",
      "outputs": [
        {
          "internalType": "string",
          "name": "",
          "type": "string"
        }
      ],
      "stateMutability": "view",
      "type": "function"
    },
    {
      "inputs": [
        {
          "internalType": "address",
          "name": "",
          "type": "address"
        }
      ],
      "name": "nonces",
      "outputs": [
        {
          "internalType": "uint256",
          "name": "",
          "type": "uint256"
        }
      ],
      "stateMutability": "view",
      "type": "function"
    },
    {
      "inputs": [],
      "name": "symbol",
      "outputs": [
        {
          "internalType": "string",
          "name": "",
          "type": "string"
        }
      ],
      "stateMutability": "view",
      "type": "function"
    },
    {
      "inputs": [],
      "name": "totalSupply",
      "outputs": [
        {
          "internalType": "uint256",
          "name": "",
          "type": "uint256"
        }
      ],
      "stateMutability": "view",
      "type": "function"
    },
    {
      "inputs": [
        {
          "internalType": "address",
          "name": "to",
          "type": "address"
        },
        {
          "internalType": "uint256",
          "name": "value",
          "type": "uint256"
        }
      ],
      "name": "_mint",
      "outputs": [],
      "stateMutability": "nonpayable",
      "type": "function"
    },
    {
      "inputs": [
        {
          "internalType": "address",
          "name": "spender",
          "type": "address"
        },
        {
          "internalType": "uint256",
          "name": "value",
          "type": "uint256"
        }
      ],
      "name": "approve",
      "outputs": [
        {
          "internalType": "bool",
          "name": "",
          "type": "bool"
        }
      ],
      "stateMutability": "nonpayable",
      "type": "function"
    },
    {
      "inputs": [
        {
          "internalType": "address",
          "name": "to",
          "type": "address"
        },
        {
          "internalType": "uint256",
          "name": "value",
          "type": "uint256"
        }
      ],
      "name": "transfer",
      "outputs": [
        {
          "internalType": "bool",
          "name": "",
          "type": "bool"
        }
      ],
      "stateMutability": "nonpayable",
      "type": "function"
    },
    {
      "inputs": [
        {
          "internalType": "address",
          "name": "from",
          "type": "address"
        },
        {
          "internalType": "address",
          "name": "to",
          "type": "address"
        },
        {
          "internalType": "uint256",
          "name": "value",
          "type": "uint256"
        }
      ],
      "name": "transferFrom",
      "outputs": [
        {
          "internalType": "bool",
          "name": "",
          "type": "bool"
        }
      ],
      "stateMutability": "nonpayable",
      "type": "function"
    },
    {
      "inputs": [
        {
          "internalType": "address",
          "name": "owner",
          "type": "address"
        },
        {
          "internalType": "address",
          "name": "spender",
          "type": "address"
        },
        {
          "internalType": "uint256",
          "name": "value",
          "type": "uint256"
        },
        {
          "internalType": "uint256",
          "name": "deadline",
          "type": "uint256"
        },
        {
          "internalType": "uint8",
          "name": "v",
          "type": "uint8"
        },
        {
          "internalType": "bytes32",
          "name": "r",
          "type": "bytes32"
        },
        {
          "internalType": "bytes32",
          "name": "s",
          "type": "bytes32"
        }
      ],
      "name": "permit",
      "outputs": [],
      "stateMutability": "nonpayable",
      "type": "function"
    }
  ],
  "bytecode": "0x608060405234801561001057600080fd5b50604080518082018252601081526f29a22139bbb0b8102628102a37b5b2b760811b6020918201528151808301835260018152603160f81b9082015281517f8b73c3c69bb8fe3d512ecc4cf759cc79239f7b179b0ffacaa9a75d522b39400f818301527fa565085f0deeec044ea232e6896de939137e021972f379bb5b5fcdfee7a10b93818401527fc89efdaa54c0f20c7adf612882df0950f5a951637e0307cdcb4c672f298b8bc660608201524660808201523060a0808301919091528351808303909101815260c09091019092528151910120600355610a98806100f76000396000f3fe608060405234801561001057600080fd5b50600436106100f55760003560e01c80634e6ec24711610097578063a9059cbb11610066578063a9059cbb14610274578063d49d518114610287578063d505accf1461029e578063dd62ed3e146102b157600080fd5b80634e6ec247146101e357806370a08231146101f85780637ecebe001461021857806395d89b411461023857600080fd5b806323b872dd116100d357806323b872dd1461018657806330adf81f14610199578063313ce567146101c05780633644e515146101da57600080fd5b806306fdde03146100fa578063095ea7b31461014c57806318160ddd1461016f575b600080fd5b6101366040518060400160405280601081526020017f53444273776170204c5020546f6b656e0000000000000000000000000000000081525081565b6040516101439190610996565b60405180910390f35b61015f61015a36600461096d565b6102dc565b6040519015158152602001610143565b61017860005481565b604051908152602001610143565b61015f6101943660046108c1565b6102f2565b6101787f6e71edae12b1b97f4d1f60370fef10105fa2faae0126114a169c64845d6126c981565b6101c8601281565b60405160ff9091168152602001610143565b61017860035481565b6101f66101f136600461096d565b610394565b005b610178610206366004610875565b60016020526000908152604090205481565b610178610226366004610875565b60046020526000908152604090205481565b6101366040518060400160405280600381526020017f534442000000000000000000000000000000000000000000000000000000000081525081565b61015f61028236600461096d565b610423565b6101786fffffffffffffffffffffffffffffffff81565b6101f66102ac3660046108fc565b610430565b6101786102bf36600461088f565b600260209081526000928352604080842090915290825290205481565b60006102e933848461066f565b50600192915050565b6001600160a01b03831660009081526002602090815260408083203384529091528120546fffffffffffffffffffffffffffffffff1461037f576001600160a01b038416600090815260026020908152604080832033845290915290205461035a90836106d1565b6001600160a01b03851660009081526002602090815260408083203384529091529020555b61038a84848461071a565b5060019392505050565b6000546103a190826107c0565b60009081556001600160a01b0383168152600160205260409020546103c690826107c0565b6001600160a01b0383166000818152600160205260408082209390935591519091907fddf252ad1be2c89b69c2b068fc378daa952ba7f163c4a11628f55a4df523b3ef906104179085815260200190565b60405180910390a35050565b60006102e933848461071a565b428410156104855760405162461bcd60e51b815260206004820152601060248201527f534442737761703a20455850495245440000000000000000000000000000000060448201526064015b60405180910390fd5b6003546001600160a01b038816600090815260046020526040812080549192917f6e71edae12b1b97f4d1f60370fef10105fa2faae0126114a169c64845d6126c9918b918b918b9190876104d883610a18565b909155506040805160208101969096526001600160a01b0394851690860152929091166060840152608083015260a082015260c0810187905260e0016040516020818303038152906040528051906020012060405160200161056c9291907f190100000000000000000000000000000000000000000000000000000000000081526002810192909252602282015260420190565b60408051601f198184030181528282528051602091820120600080855291840180845281905260ff88169284019290925260608301869052608083018590529092509060019060a0016020604051602081039080840390855afa1580156105d7573d6000803e3d6000fd5b5050604051601f1901519150506001600160a01b0381161580159061060d5750886001600160a01b0316816001600160a01b0316145b6106595760405162461bcd60e51b815260206004820152601a60248201527f534442737761703a20494e56414c49445f5349474e4154555245000000000000604482015260640161047c565b61066489898961066f565b505050505050505050565b6001600160a01b0383811660008181526002602090815260408083209487168084529482529182902085905590518481527f8c5be1e5ebec7d5bd14f71427d1e84f3dd0314c0f7b2291e5b200ac8c7c3b92591015b60405180910390a3505050565b600061071383836040518060400160405280601e81526020017f536166654d6174683a207375627472616374696f6e206f766572666c6f77000081525061081f565b9392505050565b6001600160a01b03831660009081526001602052604090205461073d90826106d1565b6001600160a01b03808516600090815260016020526040808220939093559084168152205461076c90826107c0565b6001600160a01b0380841660008181526001602052604090819020939093559151908516907fddf252ad1be2c89b69c2b068fc378daa952ba7f163c4a11628f55a4df523b3ef906106c49085815260200190565b6000806107cd83856109e9565b9050838110156107135760405162461bcd60e51b815260206004820152601b60248201527f536166654d6174683a206164646974696f6e206f766572666c6f770000000000604482015260640161047c565b600081848411156108435760405162461bcd60e51b815260040161047c9190610996565b5060006108508486610a01565b95945050505050565b80356001600160a01b038116811461087057600080fd5b919050565b600060208284031215610886578081fd5b61071382610859565b600080604083850312156108a1578081fd5b6108aa83610859565b91506108b860208401610859565b90509250929050565b6000806000606084860312156108d5578081fd5b6108de84610859565b92506108ec60208501610859565b9150604084013590509250925092565b600080600080600080600060e0888a031215610916578283fd5b61091f88610859565b965061092d60208901610859565b95506040880135945060608801359350608088013560ff81168114610950578384fd5b9699959850939692959460a0840135945060c09093013592915050565b6000806040838503121561097f578182fd5b61098883610859565b946020939093013593505050565b6000602080835283518082850152825b818110156109c2578581018301518582016040015282016109a6565b818111156109d35783604083870101525b50601f01601f1916929092016040019392505050565b600082198211156109fc576109fc610a33565b500190565b600082821015610a1357610a13610a33565b500390565b6000600019821415610a2c57610a2c610a33565b5060010190565b7f4e487b7100000000000000000000000000000000000000000000000000000000600052601160045260246000fdfea26469706673582212209d4c2a111c4595ccc4d9c5c9df41abeb8f861f944361a47da7d3e7cc847bb86764736f6c63430008040033",
  "immutableReferences": {},
  "source": "//SPDX-License-Identifier: UNLICENSED\r\npragma solidity ^0.8.4;\r\n\r\nimport \"./interface/IBEP20SDBswap.sol\";\r\nimport './library/SafeMath.sol';\r\n\r\ncontract SDBswapBEP20 {\r\n    using SafeMath for uint;\r\n\r\n    string public constant name = 'SDBswap LP Token';\r\n    string public constant symbol = 'SDB';\r\n    uint8 public constant decimals = 18;\r\n    uint  public totalSupply;\r\n    \r\n\r\n        \r\n\r\n\r\n    // uint public accomulatedSupply;\r\n    mapping(address => uint) public balanceOf;\r\n    mapping(address => mapping(address => uint)) public allowance;\r\n\r\n\r\n    bytes32 public DOMAIN_SEPARATOR;\r\n    // keccak256(\"Permit(address owner,address spender,uint256 value,uint256 nonce,uint256 deadline)\");\r\n    bytes32 public constant PERMIT_TYPEHASH = 0x6e71edae12b1b97f4d1f60370fef10105fa2faae0126114a169c64845d6126c9;\r\n    /// @dev more info https://docs.soliditylang.org/en/breaking/080-breaking-changes.html#new-restrictions\r\n    uint256 public constant MAX = type(uint128).max;\r\n\r\n    mapping(address => uint) public nonces;\r\n\r\n    event Approval(address indexed owner, address indexed spender, uint value);\r\n    event Transfer(address indexed from, address indexed to, uint value);\r\n\r\n    constructor() public {\r\n\r\n        uint chainId;\r\n        assembly {\r\n            chainId := chainid()\r\n        }\r\n\r\n        DOMAIN_SEPARATOR = keccak256(\r\n            abi.encode(\r\n                keccak256('EIP712Domain(string name,string version,uint256 chainId,address verifyingContract)'),\r\n                keccak256(bytes(name)),\r\n                keccak256(bytes('1')),\r\n                chainId,\r\n                address(this)\r\n            )\r\n        );\r\n    }\r\n    //creqate bep20 fucntion NEw\r\n    function _mint(address to, uint value) public {\r\n        totalSupply = totalSupply.add(value);\r\n        balanceOf[to] = balanceOf[to].add(value);\r\n        emit Transfer(address(0), to, value);\r\n    }\r\n\r\n    function _burn(address from, uint value) internal {\r\n        balanceOf[from] = balanceOf[from].sub(value);\r\n        totalSupply = totalSupply.sub(value);\r\n        emit Transfer(from, address(0), value);\r\n    }\r\n\r\n    function _approve(address owner, address spender, uint value) private {\r\n        allowance[owner][spender] = value;\r\n        emit Approval(owner, spender, value);\r\n    }\r\n\r\n    function _transfer(address from, address to, uint value) private {\r\n        balanceOf[from] = balanceOf[from].sub(value);\r\n        balanceOf[to] = balanceOf[to].add(value);\r\n        emit Transfer(from, to, value);\r\n    }\r\n\r\n    function approve(address spender, uint value) external returns (bool) {\r\n        _approve(msg.sender, spender, value);\r\n        return true;\r\n    }\r\n\r\n    function transfer(address to, uint value) external returns (bool) {\r\n        _transfer(msg.sender, to, value);\r\n        return true;\r\n    }\r\n\r\n    function transferFrom(address from, address to, uint value) external returns (bool) {\r\n        if (allowance[from][msg.sender] != MAX) {\r\n            allowance[from][msg.sender] = allowance[from][msg.sender].sub(value);\r\n        }\r\n        _transfer(from, to, value);\r\n        return true;\r\n    }\r\n\r\n    function permit(address owner, address spender, uint value, uint deadline, uint8 v, bytes32 r, bytes32 s) external {\r\n        require(deadline >= block.timestamp, 'SDBswap: EXPIRED');\r\n        bytes32 digest = keccak256(\r\n            abi.encodePacked(\r\n                '\\x19\\x01',\r\n                DOMAIN_SEPARATOR,\r\n                keccak256(abi.encode(PERMIT_TYPEHASH, owner, spender, value, nonces[owner]++, deadline))\r\n            )\r\n        );\r\n        address recoveredAddress = ecrecover(digest, v, r, s);\r\n        require(recoveredAddress != address(0) && recoveredAddress == owner, 'SDBswap: INVALID_SIGNATURE');\r\n        _approve(owner, spender, value);\r\n    }\r\n}\r\n",
  "sourcePath": "C:\\Users\\kolam\\Desktop\\safeSDB\\safedepositbox-smartcontracts\\contracts\\SDBswapBEP20.sol",
  "compiler": {
    "name": "solc",
    "version": "0.8.4+commit.c7e474f2.Emscripten.clang"
  },
  "schemaVersion": "3.4.1",
  "updatedAt": "2021-07-21T08:49:56.496Z",
  "devdoc": {
    "kind": "dev",
    "methods": {},
    "stateVariables": {
      "MAX": {
        "details": "more info https://docs.soliditylang.org/en/breaking/080-breaking-changes.html#new-restrictions"
      }
    },
    "version": 1
  },
  "userdoc": {
    "kind": "user",
    "methods": {},
    "version": 1
  }
}