{
  "contractName": "StakingFarm",
  "abi": [
    {
      "inputs": [
        {
          "internalType": "contract IBEP20",
          "name": "_erc20",
          "type": "address"
        },
        {
          "internalType": "uint256",
          "name": "_rewardPerBlock",
          "type": "uint256"
        },
        {
          "internalType": "uint256",
          "name": "_startBlock",
          "type": "uint256"
        },
        {
          "internalType": "uint256",
          "name": "_endBlock",
          "type": "uint256"
        }
      ],
      "stateMutability": "nonpayable",
      "type": "constructor"
    },
    {
      "anonymous": false,
      "inputs": [
        {
          "indexed": true,
          "internalType": "address",
          "name": "user",
          "type": "address"
        },
        {
          "indexed": true,
          "internalType": "uint256",
          "name": "pid",
          "type": "uint256"
        },
        {
          "indexed": false,
          "internalType": "uint256",
          "name": "amount",
          "type": "uint256"
        }
      ],
      "name": "Deposit",
      "type": "event"
    },
    {
      "anonymous": false,
      "inputs": [
        {
          "indexed": true,
          "internalType": "address",
          "name": "user",
          "type": "address"
        },
        {
          "indexed": true,
          "internalType": "uint256",
          "name": "pid",
          "type": "uint256"
        },
        {
          "indexed": false,
          "internalType": "uint256",
          "name": "amount",
          "type": "uint256"
        }
      ],
      "name": "EmergencyWithdraw",
      "type": "event"
    },
    {
      "anonymous": false,
      "inputs": [
        {
          "indexed": true,
          "internalType": "address",
          "name": "previousOwner",
          "type": "address"
        },
        {
          "indexed": true,
          "internalType": "address",
          "name": "newOwner",
          "type": "address"
        }
      ],
      "name": "OwnershipTransferred",
      "type": "event"
    },
    {
      "anonymous": false,
      "inputs": [
        {
          "indexed": true,
          "internalType": "address",
          "name": "user",
          "type": "address"
        },
        {
          "indexed": true,
          "internalType": "uint256",
          "name": "pid",
          "type": "uint256"
        },
        {
          "indexed": false,
          "internalType": "uint256",
          "name": "amount",
          "type": "uint256"
        }
      ],
      "name": "Withdraw",
      "type": "event"
    },
    {
      "inputs": [],
      "name": "endBlock",
      "outputs": [
        {
          "internalType": "uint256",
          "name": "",
          "type": "uint256"
        }
      ],
      "stateMutability": "view",
      "type": "function"
    },
    {
      "inputs": [],
      "name": "erc20",
      "outputs": [
        {
          "internalType": "contract IBEP20",
          "name": "",
          "type": "address"
        }
      ],
      "stateMutability": "view",
      "type": "function"
    },
    {
      "inputs": [],
      "name": "owner",
      "outputs": [
        {
          "internalType": "address",
          "name": "",
          "type": "address"
        }
      ],
      "stateMutability": "view",
      "type": "function"
    },
    {
      "inputs": [],
      "name": "paidOut",
      "outputs": [
        {
          "internalType": "uint256",
          "name": "",
          "type": "uint256"
        }
      ],
      "stateMutability": "view",
      "type": "function"
    },
    {
      "inputs": [
        {
          "internalType": "uint256",
          "name": "",
          "type": "uint256"
        }
      ],
      "name": "poolInfo",
      "outputs": [
        {
          "internalType": "contract IBEP20",
          "name": "lpToken",
          "type": "address"
        },
        {
          "internalType": "uint256",
          "name": "allocPoint",
          "type": "uint256"
        },
        {
          "internalType": "uint256",
          "name": "lastRewardBlock",
          "type": "uint256"
        },
        {
          "internalType": "uint256",
          "name": "accERC20PerShare",
          "type": "uint256"
        }
      ],
      "stateMutability": "view",
      "type": "function"
    },
    {
      "inputs": [],
      "name": "renounceOwnership",
      "outputs": [],
      "stateMutability": "nonpayable",
      "type": "function"
    },
    {
      "inputs": [],
      "name": "rewardPerBlock",
      "outputs": [
        {
          "internalType": "uint256",
          "name": "",
          "type": "uint256"
        }
      ],
      "stateMutability": "view",
      "type": "function"
    },
    {
      "inputs": [],
      "name": "startBlock",
      "outputs": [
        {
          "internalType": "uint256",
          "name": "",
          "type": "uint256"
        }
      ],
      "stateMutability": "view",
      "type": "function"
    },
    {
      "inputs": [],
      "name": "totalAllocPoint",
      "outputs": [
        {
          "internalType": "uint256",
          "name": "",
          "type": "uint256"
        }
      ],
      "stateMutability": "view",
      "type": "function"
    },
    {
      "inputs": [
        {
          "internalType": "address",
          "name": "newOwner",
          "type": "address"
        }
      ],
      "name": "transferOwnership",
      "outputs": [],
      "stateMutability": "nonpayable",
      "type": "function"
    },
    {
      "inputs": [
        {
          "internalType": "uint256",
          "name": "",
          "type": "uint256"
        },
        {
          "internalType": "address",
          "name": "",
          "type": "address"
        }
      ],
      "name": "userInfo",
      "outputs": [
        {
          "internalType": "uint256",
          "name": "amount",
          "type": "uint256"
        },
        {
          "internalType": "uint256",
          "name": "rewardDebt",
          "type": "uint256"
        }
      ],
      "stateMutability": "view",
      "type": "function"
    },
    {
      "inputs": [],
      "name": "poolLength",
      "outputs": [
        {
          "internalType": "uint256",
          "name": "",
          "type": "uint256"
        }
      ],
      "stateMutability": "view",
      "type": "function"
    },
    {
      "inputs": [
        {
          "internalType": "uint256",
          "name": "_amount",
          "type": "uint256"
        }
      ],
      "name": "fund",
      "outputs": [],
      "stateMutability": "nonpayable",
      "type": "function"
    },
    {
      "inputs": [
        {
          "internalType": "uint256",
          "name": "_allocPoint",
          "type": "uint256"
        },
        {
          "internalType": "contract IBEP20",
          "name": "_lpToken",
          "type": "address"
        },
        {
          "internalType": "bool",
          "name": "_withUpdate",
          "type": "bool"
        }
      ],
      "name": "add",
      "outputs": [],
      "stateMutability": "nonpayable",
      "type": "function"
    },
    {
      "inputs": [
        {
          "internalType": "uint256",
          "name": "_pid",
          "type": "uint256"
        },
        {
          "internalType": "uint256",
          "name": "_allocPoint",
          "type": "uint256"
        },
        {
          "internalType": "bool",
          "name": "_withUpdate",
          "type": "bool"
        }
      ],
      "name": "set",
      "outputs": [],
      "stateMutability": "nonpayable",
      "type": "function"
    },
    {
      "inputs": [
        {
          "internalType": "uint256",
          "name": "_pid",
          "type": "uint256"
        },
        {
          "internalType": "address",
          "name": "_user",
          "type": "address"
        }
      ],
      "name": "deposited",
      "outputs": [
        {
          "internalType": "uint256",
          "name": "",
          "type": "uint256"
        }
      ],
      "stateMutability": "view",
      "type": "function"
    },
    {
      "inputs": [
        {
          "internalType": "uint256",
          "name": "_pid",
          "type": "uint256"
        },
        {
          "internalType": "address",
          "name": "_user",
          "type": "address"
        }
      ],
      "name": "pending",
      "outputs": [
        {
          "internalType": "uint256",
          "name": "",
          "type": "uint256"
        }
      ],
      "stateMutability": "view",
      "type": "function"
    },
    {
      "inputs": [],
      "name": "totalPending",
      "outputs": [
        {
          "internalType": "uint256",
          "name": "",
          "type": "uint256"
        }
      ],
      "stateMutability": "view",
      "type": "function"
    },
    {
      "inputs": [],
      "name": "massUpdatePools",
      "outputs": [],
      "stateMutability": "nonpayable",
      "type": "function"
    },
    {
      "inputs": [
        {
          "internalType": "uint256",
          "name": "_pid",
          "type": "uint256"
        }
      ],
      "name": "updatePool",
      "outputs": [],
      "stateMutability": "nonpayable",
      "type": "function"
    },
    {
      "inputs": [
        {
          "internalType": "uint256",
          "name": "_pid",
          "type": "uint256"
        },
        {
          "internalType": "uint256",
          "name": "_amount",
          "type": "uint256"
        }
      ],
      "name": "deposit",
      "outputs": [],
      "stateMutability": "nonpayable",
      "type": "function"
    },
    {
      "inputs": [
        {
          "internalType": "uint256",
          "name": "_pid",
          "type": "uint256"
        },
        {
          "internalType": "uint256",
          "name": "_amount",
          "type": "uint256"
        }
      ],
      "name": "withdraw",
      "outputs": [],
      "stateMutability": "nonpayable",
      "type": "function"
    },
    {
      "inputs": [
        {
          "internalType": "uint256",
          "name": "_pid",
          "type": "uint256"
        }
      ],
      "name": "emergencyWithdraw",
      "outputs": [],
      "stateMutability": "nonpayable",
      "type": "function"
    }
  ],
  "bytecode": "0x60806040526000600255600060065534801561001a57600080fd5b506040516118543803806118548339818101604052608081101561003d57600080fd5b5080516020820151604083015160609093015191929091600061005e6100da565b600080546001600160a01b0319166001600160a01b0383169081178255604051929350917f8be0079c531659141344cd1fd0a4f28419497f9722a3daafe3b4186f6b6457e0908290a350600180546001600160a01b0319166001600160a01b0395909516949094179093556003919091556007556008556100de565b3390565b611767806100ed6000396000f3fe608060405234801561001057600080fd5b506004361061018d5760003560e01c8063630b5ba1116100e357806393f1a40b1161008c578063e2bbb15811610066578063e2bbb158146103b1578063e4c75c27146103d4578063f2fde38b146104005761018d565b806393f1a40b14610323578063a238310614610368578063ca1d209d146103945761018d565b8063785e9e86116100bd578063785e9e86146102ef5780638ae39cac146103135780638da5cb5b1461031b5761018d565b8063630b5ba1146102b457806364482f79146102bc578063715018a6146102e75761018d565b80633f90916a1161014557806351eb05a61161011f57806351eb05a6146102725780635312ea8e1461028f5780635c76ca2d146102ac5761018d565b80633f90916a1461023f578063441a3e701461024757806348cd4cb11461026a5761018d565b80631526fe27116101765780631526fe27146101b457806317caf6f1146102015780631eaaa045146102095761018d565b8063081e3eda14610192578063083c6323146101ac575b600080fd5b61019a610426565b60408051918252519081900360200190f35b61019a61042d565b6101d1600480360360208110156101ca57600080fd5b5035610433565b604080516001600160a01b0390951685526020850193909352838301919091526060830152519081900360800190f35b61019a610474565b61023d6004803603606081101561021f57600080fd5b508035906001600160a01b036020820135169060400135151561047a565b005b61019a610618565b61023d6004803603604081101561025d57600080fd5b508035906020013561066d565b61019a6107c3565b61023d6004803603602081101561028857600080fd5b50356107c9565b61023d600480360360208110156102a557600080fd5b5035610924565b61019a6109bf565b61023d6109c5565b61023d600480360360608110156102d257600080fd5b508035906020810135906040013515156109e8565b61023d610acb565b6102f7610b8c565b604080516001600160a01b039092168252519081900360200190f35b61019a610b9b565b6102f7610ba1565b61034f6004803603604081101561033957600080fd5b50803590602001356001600160a01b0316610bb0565b6040805192835260208301919091528051918290030190f35b61019a6004803603604081101561037e57600080fd5b50803590602001356001600160a01b0316610bd4565b61023d600480360360208110156103aa57600080fd5b5035610bfe565b61023d600480360360408110156103c757600080fd5b5080359060200135610c70565b61019a600480360360408110156103ea57600080fd5b50803590602001356001600160a01b0316610d89565b61023d6004803603602081101561041657600080fd5b50356001600160a01b0316610f20565b6004545b90565b60085481565b6004818154811061044057fe5b600091825260209091206004909102018054600182015460028301546003909301546001600160a01b039092169350919084565b60065481565b610482610f93565b6000546001600160a01b039081169116146104e4576040805162461bcd60e51b815260206004820181905260248201527f4f776e61626c653a2063616c6c6572206973206e6f7420746865206f776e6572604482015290519081900360640190fd5b80156104f2576104f26109c5565b6000600754431161050557600754610507565b435b6006549091506105179085610f97565b600655604080516080810182526001600160a01b03948516815260208101958652908101918252600060608201818152600480546001810182559281905292517f8a35acfbc15ff81a39ae7d344fd709f28e8600b4aa8c65c6b64bfe7fe36bd19b92909302918201805473ffffffffffffffffffffffffffffffffffffffff1916939096169290921790945593517f8a35acfbc15ff81a39ae7d344fd709f28e8600b4aa8c65c6b64bfe7fe36bd19c840155517f8a35acfbc15ff81a39ae7d344fd709f28e8600b4aa8c65c6b64bfe7fe36bd19d8301555090517f8a35acfbc15ff81a39ae7d344fd709f28e8600b4aa8c65c6b64bfe7fe36bd19e90910155565b6000600754431161062b5750600061042a565b6000600854431061063e57600854610640565b435b90506106676002546106616007548403600354610ff890919063ffffffff16565b90611051565b91505090565b60006004838154811061067c57fe5b6000918252602080832086845260058252604080852033865290925292208054600490920290920192508311156106e45760405162461bcd60e51b815260040180806020018281038252602a815260200180611708602a913960400191505060405180910390fd5b6106ed846107c9565b600061072b82600101546106616ec097ce7bc90715b34b9f100000000061072587600301548760000154610ff890919063ffffffff16565b90611093565b905061073733826110d5565b81546107439085611051565b808355600384015461076a916ec097ce7bc90715b34b9f1000000000916107259190610ff8565b60018301558254610785906001600160a01b03163386611163565b604080518581529051869133917ff279e6a1f5e320cca91135676d9cb6e44ca8a08c0b88342bcdb1144f6511b5689181900360200190a35050505050565b60075481565b6000600482815481106107d857fe5b90600052602060002090600402019050600060085443106107fb576008546107fd565b435b905081600201548111610811575050610921565b8154604080516370a0823160e01b815230600482015290516000926001600160a01b0316916370a08231916024808301926020929190829003018186803b15801561085b57600080fd5b505afa15801561086f573d6000803e3d6000fd5b505050506040513d602081101561088557600080fd5b505190508061089a5750600290910155610921565b60006108b384600201548461105190919063ffffffff16565b905060006108e060065461072587600101546108da60035487610ff890919063ffffffff16565b90610ff8565b905061090d61090284610725846ec097ce7bc90715b34b9f1000000000610ff8565b600387015490610f97565b600386015550504360029093019290925550505b50565b60006004828154811061093357fe5b60009182526020808320858452600582526040808520338087529352909320805460049093029093018054909450610978926001600160a01b03919091169190611163565b80546040805191825251849133917fbb757047c2b5f3974fe26b7c10f732e7bce710b0952a71082702781e62ae05959181900360200190a360008082556001909101555050565b60025481565b60045460005b818110156109e4576109dc816107c9565b6001016109cb565b5050565b6109f0610f93565b6000546001600160a01b03908116911614610a52576040805162461bcd60e51b815260206004820181905260248201527f4f776e61626c653a2063616c6c6572206973206e6f7420746865206f776e6572604482015290519081900360640190fd5b8015610a6057610a606109c5565b610a9d82610a9760048681548110610a7457fe5b90600052602060002090600402016001015460065461105190919063ffffffff16565b90610f97565b6006819055508160048481548110610ab157fe5b906000526020600020906004020160010181905550505050565b610ad3610f93565b6000546001600160a01b03908116911614610b35576040805162461bcd60e51b815260206004820181905260248201527f4f776e61626c653a2063616c6c6572206973206e6f7420746865206f776e6572604482015290519081900360640190fd5b600080546040516001600160a01b03909116907f8be0079c531659141344cd1fd0a4f28419497f9722a3daafe3b4186f6b6457e0908390a36000805473ffffffffffffffffffffffffffffffffffffffff19169055565b6001546001600160a01b031681565b60035481565b6000546001600160a01b031690565b60056020908152600092835260408084209091529082529020805460019091015482565b60008281526005602090815260408083206001600160a01b03851684529091529020545b92915050565b6008544310610c3e5760405162461bcd60e51b81526004018080602001828103825260228152602001806116e66022913960400191505060405180910390fd5b600154610c56906001600160a01b03163330846111cf565b600354610c64908290611093565b60088054909101905550565b600060048381548110610c7f57fe5b60009182526020808320868452600582526040808520338652909252922060049091029091019150610cb0846107c9565b805415610cfd576000610cef82600101546106616ec097ce7bc90715b34b9f100000000061072587600301548760000154610ff890919063ffffffff16565b9050610cfb33826110d5565b505b8154610d14906001600160a01b03163330866111cf565b8054610d209084610f97565b8082556003830154610d47916ec097ce7bc90715b34b9f1000000000916107259190610ff8565b6001820155604080518481529051859133917f90890809c654f11d6e72a28fa60149770a0d11ec6c92319d6ceb2bb0a4ea1a159181900360200190a350505050565b60008060048481548110610d9957fe5b600091825260208083208784526005825260408085206001600160a01b03898116875290845281862060049586029093016003810154815484516370a0823160e01b81523098810198909852935191985093969395939492909116926370a08231926024808301939192829003018186803b158015610e1757600080fd5b505afa158015610e2b573d6000803e3d6000fd5b505050506040513d6020811015610e4157600080fd5b5051600285015490915043118015610e5857508015155b15610ee35760006008544310610e7057600854610e72565b435b90506000610e8d86600201548361105190919063ffffffff16565b90506000610eb460065461072589600101546108da60035487610ff890919063ffffffff16565b9050610edd610ed685610725846ec097ce7bc90715b34b9f1000000000610ff8565b8690610f97565b94505050505b610f1583600101546106616ec097ce7bc90715b34b9f1000000000610725868860000154610ff890919063ffffffff16565b979650505050505050565b610f28610f93565b6000546001600160a01b03908116911614610f8a576040805162461bcd60e51b815260206004820181905260248201527f4f776e61626c653a2063616c6c6572206973206e6f7420746865206f776e6572604482015290519081900360640190fd5b6109218161125d565b3390565b600082820183811015610ff1576040805162461bcd60e51b815260206004820152601b60248201527f536166654d6174683a206164646974696f6e206f766572666c6f770000000000604482015290519081900360640190fd5b9392505050565b60008261100757506000610bf8565b8282028284828161101457fe5b0414610ff15760405162461bcd60e51b81526004018080602001828103825260218152602001806116c56021913960400191505060405180910390fd5b6000610ff183836040518060400160405280601e81526020017f536166654d6174683a207375627472616374696f6e206f766572666c6f77000081525061130a565b6000610ff183836040518060400160405280601a81526020017f536166654d6174683a206469766973696f6e206279207a65726f0000000000008152506113a1565b6001546040805163a9059cbb60e01b81526001600160a01b038581166004830152602482018590529151919092169163a9059cbb9160448083019260209291908290030181600087803b15801561112b57600080fd5b505af115801561113f573d6000803e3d6000fd5b505050506040513d602081101561115557600080fd5b505060028054909101905550565b604080516001600160a01b038416602482015260448082018490528251808303909101815260649091019091526020810180517bffffffffffffffffffffffffffffffffffffffffffffffffffffffff1663a9059cbb60e01b1790526111ca908490611406565b505050565b604080516001600160a01b0380861660248301528416604482015260648082018490528251808303909101815260849091019091526020810180517bffffffffffffffffffffffffffffffffffffffffffffffffffffffff167f23b872dd00000000000000000000000000000000000000000000000000000000179052611257908590611406565b50505050565b6001600160a01b0381166112a25760405162461bcd60e51b815260040180806020018281038252602681526020018061169f6026913960400191505060405180910390fd5b600080546040516001600160a01b03808516939216917f8be0079c531659141344cd1fd0a4f28419497f9722a3daafe3b4186f6b6457e091a36000805473ffffffffffffffffffffffffffffffffffffffff19166001600160a01b0392909216919091179055565b600081848411156113995760405162461bcd60e51b81526004018080602001828103825283818151815260200191508051906020019080838360005b8381101561135e578181015183820152602001611346565b50505050905090810190601f16801561138b5780820380516001836020036101000a031916815260200191505b509250505060405180910390fd5b505050900390565b600081836113f05760405162461bcd60e51b815260206004820181815283516024840152835190928392604490910191908501908083836000831561135e578181015183820152602001611346565b5060008385816113fc57fe5b0495945050505050565b606061145b826040518060400160405280602081526020017f5361666542455032303a206c6f772d6c6576656c2063616c6c206661696c6564815250856001600160a01b03166114b79092919063ffffffff16565b8051909150156111ca5780806020019051602081101561147a57600080fd5b50516111ca5760405162461bcd60e51b815260040180806020018281038252602a815260200180611675602a913960400191505060405180910390fd5b60606114c684846000856114ce565b949350505050565b60606114d98561163b565b61152a576040805162461bcd60e51b815260206004820152601d60248201527f416464726573733a2063616c6c20746f206e6f6e2d636f6e7472616374000000604482015290519081900360640190fd5b60006060866001600160a01b031685876040518082805190602001908083835b602083106115695780518252601f19909201916020918201910161154a565b6001836020036101000a03801982511681845116808217855250505050505090500191505060006040518083038185875af1925050503d80600081146115cb576040519150601f19603f3d011682016040523d82523d6000602084013e6115d0565b606091505b509150915081156115e45791506114c69050565b8051156115f45780518082602001fd5b60405162461bcd60e51b815260206004820181815286516024840152865187939192839260440191908501908083836000831561135e578181015183820152602001611346565b6000813f7fc5d2460186f7233c927e7db2dcc703c0e500b653ca82273b7bfad8045d85a4708181148015906114c657505015159291505056fe5361666542455032303a204245503230206f7065726174696f6e20646964206e6f7420737563636565644f776e61626c653a206e6577206f776e657220697320746865207a65726f2061646472657373536166654d6174683a206d756c7469706c69636174696f6e206f766572666c6f7766756e643a20746f6f206c6174652c20746865206661726d20697320636c6f73656477697468647261773a2063616e2774207769746864726177206d6f7265207468616e206465706f736974a26469706673582212208dc49139901d759a4a956fc84e83445ebd3e8e1548165b6fc6e3ef5381af784964736f6c634300060c0033",
  "immutableReferences": {},
  "source": "//SPDX-License-Identifier: UNLICENSED\r\npragma solidity 0.6.12;\r\n\r\nimport \"../access/Ownable.sol\";\r\nimport \"../token/BEP20/IBEP20.sol\";\r\nimport \"../math/SafeMath.sol\";\r\nimport \"../token/BEP20/SafeBEP20.sol\";\r\n\r\n\r\ncontract StakingFarm is Ownable {\r\n    using SafeMath for uint256;\r\n    using SafeBEP20 for IBEP20;\r\n\r\n    // Info of each user.\r\n    struct UserInfo {\r\n        uint256 amount;     // How many LP tokens the user has provided.\r\n        uint256 rewardDebt; // Reward debt. See explanation below.\r\n        //\r\n        // We do some fancy math here. Basically, any point in time, the amount of ERC20s\r\n        // entitled to a user but is pending to be distributed is:\r\n        //\r\n        //   pending reward = (user.amount * pool.accERC20PerShare) - user.rewardDebt\r\n        //\r\n        // Whenever a user deposits or withdraws LP tokens to a pool. Here's what happens:\r\n        //   1. The pool's `accERC20PerShare` (and `lastRewardBlock`) gets updated.\r\n        //   2. User receives the pending reward sent to his/her address.\r\n        //   3. User's `amount` gets updated.\r\n        //   4. User's `rewardDebt` gets updated.\r\n    }\r\n\r\n    // Info of each pool.\r\n    struct PoolInfo {\r\n        IBEP20 lpToken;             // Address of LP token contract.\r\n        uint256 allocPoint;         // How many allocation points assigned to this pool. ERC20s to distribute per block.\r\n        uint256 lastRewardBlock;    // Last block number that ERC20s distribution occurs.\r\n        uint256 accERC20PerShare;   // Accumulated ERC20s per share, times 1e36.\r\n    }\r\n\r\n    // Address of the ERC20 Token contract.\r\n    IBEP20 public erc20;\r\n    // The total amount of ERC20 that's paid out as reward.\r\n    uint256 public paidOut = 0;\r\n    // ERC20 tokens rewarded per block.\r\n    uint256 public rewardPerBlock;\r\n\r\n    // Info of each pool.\r\n    PoolInfo[] public poolInfo;\r\n    // Info of each user that stakes LP tokens.\r\n    mapping (uint256 => mapping (address => UserInfo)) public userInfo;\r\n    // Total allocation points. Must be the sum of all allocation points in all pools.\r\n    uint256 public totalAllocPoint = 0;\r\n\r\n    // The block number when farming starts.\r\n    uint256 public startBlock;\r\n    // The block number when farming ends.\r\n    uint256 public endBlock;\r\n\r\n    event Deposit(address indexed user, uint256 indexed pid, uint256 amount);\r\n    event Withdraw(address indexed user, uint256 indexed pid, uint256 amount);\r\n    event EmergencyWithdraw(address indexed user, uint256 indexed pid, uint256 amount);\r\n\r\n    constructor(IBEP20 _erc20, uint256 _rewardPerBlock, uint256 _startBlock, uint256 _endBlock) public {\r\n        erc20 = _erc20;\r\n        rewardPerBlock = _rewardPerBlock;\r\n        startBlock = _startBlock;\r\n        endBlock = _endBlock;\r\n    }\r\n\r\n    // Number of LP pools\r\n    function poolLength() external view returns (uint256) {\r\n        return poolInfo.length;\r\n    }\r\n\r\n    // Fund the farm, increase the end block\r\n    function fund(uint256 _amount) public {\r\n        require(block.number < endBlock, \"fund: too late, the farm is closed\");\r\n\r\n        erc20.safeTransferFrom(address(msg.sender), address(this), _amount);\r\n        endBlock += _amount.div(rewardPerBlock);\r\n    }\r\n\r\n    // Add a new lp to the pool. Can only be called by the owner.\r\n    // DO NOT add the same LP token more than once. Rewards will be messed up if you do.\r\n    function add(uint256 _allocPoint, IBEP20 _lpToken, bool _withUpdate) public onlyOwner {\r\n        if (_withUpdate) {\r\n            massUpdatePools();\r\n        }\r\n        uint256 lastRewardBlock = block.number > startBlock ? block.number : startBlock;\r\n        totalAllocPoint = totalAllocPoint.add(_allocPoint);\r\n        poolInfo.push(PoolInfo({\r\n            lpToken: _lpToken,\r\n            allocPoint: _allocPoint,\r\n            lastRewardBlock: lastRewardBlock,\r\n            accERC20PerShare: 0\r\n        }));\r\n    }\r\n\r\n    // Update the given pool's ERC20 allocation point. Can only be called by the owner.\r\n    function set(uint256 _pid, uint256 _allocPoint, bool _withUpdate) public onlyOwner {\r\n        if (_withUpdate) {\r\n            massUpdatePools();\r\n        }\r\n        totalAllocPoint = totalAllocPoint.sub(poolInfo[_pid].allocPoint).add(_allocPoint);\r\n        poolInfo[_pid].allocPoint = _allocPoint;\r\n    }\r\n\r\n    // View function to see deposited LP for a user.\r\n    function deposited(uint256 _pid, address _user) external view returns (uint256) {\r\n        UserInfo storage user = userInfo[_pid][_user];\r\n        return user.amount;\r\n    }\r\n\r\n    // View function to see pending ERC20s for a user.\r\n    function pending(uint256 _pid, address _user) external view returns (uint256) {\r\n        PoolInfo storage pool = poolInfo[_pid];\r\n        UserInfo storage user = userInfo[_pid][_user];\r\n        uint256 accERC20PerShare = pool.accERC20PerShare;\r\n        uint256 lpSupply = pool.lpToken.balanceOf(address(this));\r\n\r\n        if (block.number > pool.lastRewardBlock && lpSupply != 0) {\r\n            uint256 lastBlock = block.number < endBlock ? block.number : endBlock;\r\n            uint256 nrOfBlocks = lastBlock.sub(pool.lastRewardBlock);\r\n            uint256 erc20Reward = nrOfBlocks.mul(rewardPerBlock).mul(pool.allocPoint).div(totalAllocPoint);\r\n            accERC20PerShare = accERC20PerShare.add(erc20Reward.mul(1e36).div(lpSupply));\r\n        }\r\n\r\n        return user.amount.mul(accERC20PerShare).div(1e36).sub(user.rewardDebt);\r\n    }\r\n\r\n    // View function for total reward the farm has yet to pay out.\r\n    function totalPending() external view returns (uint256) {\r\n        if (block.number <= startBlock) {\r\n            return 0;\r\n        }\r\n\r\n        uint256 lastBlock = block.number < endBlock ? block.number : endBlock;\r\n        return rewardPerBlock.mul(lastBlock - startBlock).sub(paidOut);\r\n    }\r\n\r\n    // Update reward variables for all pools. Be careful of gas spending!\r\n    function massUpdatePools() public {\r\n        uint256 length = poolInfo.length;\r\n        for (uint256 pid = 0; pid < length; ++pid) {\r\n            updatePool(pid);\r\n        }\r\n    }\r\n\r\n    // Update reward variables of the given pool to be up-to-date.\r\n    function updatePool(uint256 _pid) public {\r\n        PoolInfo storage pool = poolInfo[_pid];\r\n        uint256 lastBlock = block.number < endBlock ? block.number : endBlock;\r\n\r\n        if (lastBlock <= pool.lastRewardBlock) {\r\n            return;\r\n        }\r\n        uint256 lpSupply = pool.lpToken.balanceOf(address(this));\r\n        if (lpSupply == 0) {\r\n            pool.lastRewardBlock = lastBlock;\r\n            return;\r\n        }\r\n\r\n        uint256 nrOfBlocks = lastBlock.sub(pool.lastRewardBlock);\r\n        uint256 erc20Reward = nrOfBlocks.mul(rewardPerBlock).mul(pool.allocPoint).div(totalAllocPoint);\r\n\r\n        pool.accERC20PerShare = pool.accERC20PerShare.add(erc20Reward.mul(1e36).div(lpSupply));\r\n        pool.lastRewardBlock = block.number;\r\n    }\r\n\r\n    // Deposit LP tokens to Farm for ERC20 allocation.\r\n    function deposit(uint256 _pid, uint256 _amount) public {\r\n        PoolInfo storage pool = poolInfo[_pid];\r\n        UserInfo storage user = userInfo[_pid][msg.sender];\r\n        updatePool(_pid);\r\n        if (user.amount > 0) {\r\n            uint256 pendingAmount = user.amount.mul(pool.accERC20PerShare).div(1e36).sub(user.rewardDebt);\r\n            erc20Transfer(msg.sender, pendingAmount);\r\n        }\r\n        pool.lpToken.safeTransferFrom(address(msg.sender), address(this), _amount);\r\n        user.amount = user.amount.add(_amount);\r\n        user.rewardDebt = user.amount.mul(pool.accERC20PerShare).div(1e36);\r\n        emit Deposit(msg.sender, _pid, _amount);\r\n    }\r\n\r\n    // Withdraw LP tokens from Farm.\r\n    function withdraw(uint256 _pid, uint256 _amount) public {\r\n        PoolInfo storage pool = poolInfo[_pid];\r\n        UserInfo storage user = userInfo[_pid][msg.sender];\r\n        require(user.amount >= _amount, \"withdraw: can't withdraw more than deposit\");\r\n        updatePool(_pid);\r\n        uint256 pendingAmount = user.amount.mul(pool.accERC20PerShare).div(1e36).sub(user.rewardDebt);\r\n        erc20Transfer(msg.sender, pendingAmount);\r\n        user.amount = user.amount.sub(_amount);\r\n        user.rewardDebt = user.amount.mul(pool.accERC20PerShare).div(1e36);\r\n        pool.lpToken.safeTransfer(address(msg.sender), _amount);\r\n        emit Withdraw(msg.sender, _pid, _amount);\r\n    }\r\n\r\n    // Withdraw without caring about rewards. EMERGENCY ONLY.\r\n    function emergencyWithdraw(uint256 _pid) public {\r\n        PoolInfo storage pool = poolInfo[_pid];\r\n        UserInfo storage user = userInfo[_pid][msg.sender];\r\n        pool.lpToken.safeTransfer(address(msg.sender), user.amount);\r\n        emit EmergencyWithdraw(msg.sender, _pid, user.amount);\r\n        user.amount = 0;\r\n        user.rewardDebt = 0;\r\n    }\r\n\r\n    // Transfer ERC20 and update the required ERC20 to payout all rewards\r\n    function erc20Transfer(address _to, uint256 _amount) internal {\r\n        erc20.transfer(_to, _amount);\r\n        paidOut += _amount;\r\n    }\r\n}\r\n\r\n",
  "sourcePath": "C:/Users/kolam/Desktop/safeSDB/safedepositbox-smartcontracts/Newway/pancake-SDB/contracts/Staking/StakingFarm.sol",
  "compiler": {
    "name": "solc",
    "version": "0.6.12+commit.27d51765.Emscripten.clang"
  },
  "schemaVersion": "3.4.1",
  "updatedAt": "2021-10-05T11:53:01.924Z",
  "devdoc": {
    "kind": "dev",
    "methods": {
      "owner()": {
        "details": "Returns the address of the current owner."
      },
      "renounceOwnership()": {
        "details": "Leaves the contract without owner. It will not be possible to call `onlyOwner` functions anymore. Can only be called by the current owner. NOTE: Renouncing ownership will leave the contract without an owner, thereby removing any functionality that is only available to the owner."
      },
      "transferOwnership(address)": {
        "details": "Transfers ownership of the contract to a new account (`newOwner`). Can only be called by the current owner."
      }
    },
    "version": 1
  },
  "userdoc": {
    "kind": "user",
    "methods": {},
    "version": 1
  }
}