{
  "contractName": "Vendor",
  "abi": [
    {
      "inputs": [
        {
          "internalType": "address",
          "name": "_sdbtoken",
          "type": "address"
        },
        {
          "internalType": "address",
          "name": "_usdtoken",
          "type": "address"
        }
      ],
      "stateMutability": "nonpayable",
      "type": "constructor"
    },
    {
      "anonymous": false,
      "inputs": [
        {
          "indexed": true,
          "internalType": "address",
          "name": "previousOwner",
          "type": "address"
        },
        {
          "indexed": true,
          "internalType": "address",
          "name": "newOwner",
          "type": "address"
        }
      ],
      "name": "OwnershipTransferred",
      "type": "event"
    },
    {
      "anonymous": false,
      "inputs": [
        {
          "indexed": true,
          "internalType": "address",
          "name": "user",
          "type": "address"
        },
        {
          "indexed": true,
          "internalType": "uint256",
          "name": "pid",
          "type": "uint256"
        },
        {
          "indexed": false,
          "internalType": "uint256",
          "name": "amountUSD",
          "type": "uint256"
        }
      ],
      "name": "Swap",
      "type": "event"
    },
    {
      "anonymous": false,
      "inputs": [
        {
          "indexed": true,
          "internalType": "address",
          "name": "user",
          "type": "address"
        },
        {
          "indexed": true,
          "internalType": "uint256",
          "name": "pid",
          "type": "uint256"
        },
        {
          "indexed": false,
          "internalType": "uint256",
          "name": "amountSDB",
          "type": "uint256"
        }
      ],
      "name": "Withdraw",
      "type": "event"
    },
    {
      "inputs": [],
      "name": "owner",
      "outputs": [
        {
          "internalType": "address",
          "name": "",
          "type": "address"
        }
      ],
      "stateMutability": "view",
      "type": "function",
      "constant": true
    },
    {
      "inputs": [
        {
          "internalType": "uint256",
          "name": "",
          "type": "uint256"
        }
      ],
      "name": "poolInfo",
      "outputs": [
        {
          "internalType": "contract IBEP20",
          "name": "sdbtoken",
          "type": "address"
        },
        {
          "internalType": "uint256",
          "name": "sdbPoint",
          "type": "uint256"
        },
        {
          "internalType": "contract IBEP20",
          "name": "usdtoken",
          "type": "address"
        },
        {
          "internalType": "uint256",
          "name": "usdPoint",
          "type": "uint256"
        }
      ],
      "stateMutability": "view",
      "type": "function",
      "constant": true
    },
    {
      "inputs": [],
      "name": "renounceOwnership",
      "outputs": [],
      "stateMutability": "nonpayable",
      "type": "function"
    },
    {
      "inputs": [],
      "name": "sdbtoken",
      "outputs": [
        {
          "internalType": "address",
          "name": "",
          "type": "address"
        }
      ],
      "stateMutability": "view",
      "type": "function",
      "constant": true
    },
    {
      "inputs": [],
      "name": "tokenperUSD",
      "outputs": [
        {
          "internalType": "uint256",
          "name": "",
          "type": "uint256"
        }
      ],
      "stateMutability": "view",
      "type": "function",
      "constant": true
    },
    {
      "inputs": [],
      "name": "totalAllocPoint",
      "outputs": [
        {
          "internalType": "uint256",
          "name": "",
          "type": "uint256"
        }
      ],
      "stateMutability": "view",
      "type": "function",
      "constant": true
    },
    {
      "inputs": [],
      "name": "totalMoneyPoint",
      "outputs": [
        {
          "internalType": "uint256",
          "name": "",
          "type": "uint256"
        }
      ],
      "stateMutability": "view",
      "type": "function",
      "constant": true
    },
    {
      "inputs": [
        {
          "internalType": "address",
          "name": "newOwner",
          "type": "address"
        }
      ],
      "name": "transferOwnership",
      "outputs": [],
      "stateMutability": "nonpayable",
      "type": "function"
    },
    {
      "inputs": [],
      "name": "usdtoken",
      "outputs": [
        {
          "internalType": "address",
          "name": "",
          "type": "address"
        }
      ],
      "stateMutability": "view",
      "type": "function",
      "constant": true
    },
    {
      "inputs": [
        {
          "internalType": "uint256",
          "name": "",
          "type": "uint256"
        },
        {
          "internalType": "address",
          "name": "",
          "type": "address"
        }
      ],
      "name": "userInfo",
      "outputs": [
        {
          "internalType": "uint256",
          "name": "amountUSD",
          "type": "uint256"
        },
        {
          "internalType": "address",
          "name": "user",
          "type": "address"
        }
      ],
      "stateMutability": "view",
      "type": "function",
      "constant": true
    },
    {
      "inputs": [
        {
          "internalType": "contract IBEP20",
          "name": "_sdbtoken",
          "type": "address"
        },
        {
          "internalType": "uint256",
          "name": "_sdbPoint",
          "type": "uint256"
        },
        {
          "internalType": "contract IBEP20",
          "name": "_usdtoken",
          "type": "address"
        }
      ],
      "name": "add",
      "outputs": [],
      "stateMutability": "nonpayable",
      "type": "function"
    },
    {
      "inputs": [
        {
          "internalType": "uint256",
          "name": "_pid",
          "type": "uint256"
        },
        {
          "internalType": "uint256",
          "name": "_sdbPoint",
          "type": "uint256"
        }
      ],
      "name": "set",
      "outputs": [],
      "stateMutability": "nonpayable",
      "type": "function"
    },
    {
      "inputs": [
        {
          "internalType": "uint256",
          "name": "newValue",
          "type": "uint256"
        }
      ],
      "name": "changeTokenPerUSD",
      "outputs": [],
      "stateMutability": "nonpayable",
      "type": "function"
    },
    {
      "inputs": [
        {
          "internalType": "uint256",
          "name": "_pid",
          "type": "uint256"
        },
        {
          "internalType": "uint256",
          "name": "amountUSD",
          "type": "uint256"
        }
      ],
      "name": "swapUSDforSDB",
      "outputs": [],
      "stateMutability": "nonpayable",
      "type": "function"
    },
    {
      "inputs": [
        {
          "internalType": "uint256",
          "name": "_pid",
          "type": "uint256"
        },
        {
          "internalType": "uint256",
          "name": "_amount",
          "type": "uint256"
        }
      ],
      "name": "withdraw",
      "outputs": [],
      "stateMutability": "nonpayable",
      "type": "function"
    },
    {
      "inputs": [
        {
          "internalType": "uint256",
          "name": "_pid",
          "type": "uint256"
        },
        {
          "internalType": "uint256",
          "name": "_amountOut",
          "type": "uint256"
        }
      ],
      "name": "returnSDB",
      "outputs": [],
      "stateMutability": "nonpayable",
      "type": "function"
    }
  ],
  "bytecode": "0x6080604052600180556000600255600060035534801561001e57600080fd5b506040516112433803806112438339818101604052604081101561004157600080fd5b50805160209091015160006100546100cf565b600080546001600160a01b0319166001600160a01b0383169081178255604051929350917f8be0079c531659141344cd1fd0a4f28419497f9722a3daafe3b4186f6b6457e0908290a350600480546001600160a01b039384166001600160a01b031991821617909155600580549290931691161790556100d3565b3390565b611161806100e26000396000f3fe608060405234801561001057600080fd5b50600436106101005760003560e01c8063566ad7a8116100975780638da5cb5b116100665780638da5cb5b1461029657806393f1a40b1461029e5780639932a45b146102eb578063f2fde38b146102f357610100565b8063566ad7a81461024657806363a69a6c1461026957806364bbc91a14610286578063715018a61461028e57610100565b8063441a3e70116100d3578063441a3e70146101d457806347a76236146101f757806352bc15821461021a57806355ad61931461022257610100565b80631526fe271461010557806317caf6f11461015f5780631ab06ee51461017957806328f40b241461019e575b600080fd5b6101226004803603602081101561011b57600080fd5b5035610319565b60405180856001600160a01b03168152602001848152602001836001600160a01b0316815260200182815260200194505050505060405180910390f35b61016761035e565b60408051918252519081900360200190f35b61019c6004803603604081101561018f57600080fd5b5080359060200135610364565b005b61019c600480360360608110156101b457600080fd5b506001600160a01b03813581169160208101359160409091013516610485565b61019c600480360360408110156101ea57600080fd5b508035906020013561060d565b61019c6004803603604081101561020d57600080fd5b5080359060200135610741565b61016761082e565b61022a610834565b604080516001600160a01b039092168252519081900360200190f35b61019c6004803603604081101561025c57600080fd5b5080359060200135610843565b61019c6004803603602081101561027f57600080fd5b5035610978565b61022a6109e7565b61019c6109f6565b61022a610ab7565b6102ca600480360360408110156102b457600080fd5b50803590602001356001600160a01b0316610ac6565b604080519283526001600160a01b0390911660208301528051918290030190f35b610167610af3565b61019c6004803603602081101561030957600080fd5b50356001600160a01b0316610af9565b6006818154811061032657fe5b600091825260209091206004909102018054600182015460028301546003909301546001600160a01b03928316945090929091169084565b60025481565b61036c610b6f565b6000546001600160a01b039081169116146103ce576040805162461bcd60e51b815260206004820181905260248201527f4f776e61626c653a2063616c6c6572206973206e6f7420746865206f776e6572604482015290519081900360640190fd5b6000600683815481106103dd57fe5b906000526020600020906004020190506000600684815481106103fc57fe5b6000918252602090912060016004909202010154825490915061042a906001600160a01b0316333086610b73565b826006858154811061043857fe5b90600052602060002090600402016001018190555061046c8361046683600254610c0190919063ffffffff16565b90610c01565b600255600182015461047e9084610c01565b5050505050565b61048d610b6f565b6000546001600160a01b039081169116146104ef576040805162461bcd60e51b815260206004820181905260248201527f4f776e61626c653a2063616c6c6572206973206e6f7420746865206f776e6572604482015290519081900360640190fd5b6002546104fc9083610c01565b600255604080516080810182526001600160a01b03948516815260006020820181815293861692820192835260608201818152600680546001810182559252915160049091027ff652222313e28459528d920b65115c16c04f3efc82aaedc97be59f3f377c0d3f8101805492881673ffffffffffffffffffffffffffffffffffffffff1993841617905593517ff652222313e28459528d920b65115c16c04f3efc82aaedc97be59f3f377c0d4085015591517ff652222313e28459528d920b65115c16c04f3efc82aaedc97be59f3f377c0d41840180549190961692169190911790935591517ff652222313e28459528d920b65115c16c04f3efc82aaedc97be59f3f377c0d429092019190915550565b610615610b6f565b6000546001600160a01b03908116911614610677576040805162461bcd60e51b815260206004820181905260248201527f4f776e61626c653a2063616c6c6572206973206e6f7420746865206f776e6572604482015290519081900360640190fd5b60006006838154811061068657fe5b6000918252602090912060049091020160028101549091506106b2906001600160a01b03163384610c62565b6106e382600685815481106106c357fe5b906000526020600020906004020160030154610ce790919063ffffffff16565b600382018190556106f49083610c01565b506003546107029083610ce7565b600355604080518381529051849133917ff279e6a1f5e320cca91135676d9cb6e44ca8a08c0b88342bcdb1144f6511b5689181900360200190a3505050565b610749610b6f565b6000546001600160a01b039081169116146107ab576040805162461bcd60e51b815260206004820181905260248201527f4f776e61626c653a2063616c6c6572206973206e6f7420746865206f776e6572604482015290519081900360640190fd5b6000600683815481106107ba57fe5b6000918252602090912060049091020180549091506107e3906001600160a01b03163384610c62565b61081482600685815481106107f457fe5b906000526020600020906004020160010154610ce790919063ffffffff16565b60018201556002546108269083610ce7565b600255505050565b60015481565b6005546001600160a01b031681565b60006006838154811061085257fe5b600091825260208083208684526007825260408085203380875293529093206002600490930290930191820154919350610897916001600160a01b0316903086610b73565b6108c883600686815481106108a857fe5b906000526020600020906004020160030154610c0190919063ffffffff16565b600383018190556108d99084610c01565b506001548254908402906108f7906001600160a01b03163383610c62565b61090881600687815481106107f457fe5b600184015560035461091a9085610c01565b60035560025461092a9082610ce7565b60025581546109399085610c01565b50604080518581529051869133917f77f92a1b6a1a11de8ca49515ad4c1fad45632dd3442167d74b90b304a3c7a7589181900360200190a35050505050565b610980610b6f565b6000546001600160a01b039081169116146109e2576040805162461bcd60e51b815260206004820181905260248201527f4f776e61626c653a2063616c6c6572206973206e6f7420746865206f776e6572604482015290519081900360640190fd5b600155565b6004546001600160a01b031681565b6109fe610b6f565b6000546001600160a01b03908116911614610a60576040805162461bcd60e51b815260206004820181905260248201527f4f776e61626c653a2063616c6c6572206973206e6f7420746865206f776e6572604482015290519081900360640190fd5b600080546040516001600160a01b03909116907f8be0079c531659141344cd1fd0a4f28419497f9722a3daafe3b4186f6b6457e0908390a36000805473ffffffffffffffffffffffffffffffffffffffff19169055565b6000546001600160a01b031690565b6007602090815260009283526040808420909152908252902080546001909101546001600160a01b031682565b60035481565b610b01610b6f565b6000546001600160a01b03908116911614610b63576040805162461bcd60e51b815260206004820181905260248201527f4f776e61626c653a2063616c6c6572206973206e6f7420746865206f776e6572604482015290519081900360640190fd5b610b6c81610d29565b50565b3390565b604080516001600160a01b0380861660248301528416604482015260648082018490528251808303909101815260849091019091526020810180517bffffffffffffffffffffffffffffffffffffffffffffffffffffffff167f23b872dd00000000000000000000000000000000000000000000000000000000179052610bfb908590610dd6565b50505050565b600082820183811015610c5b576040805162461bcd60e51b815260206004820152601b60248201527f536166654d6174683a206164646974696f6e206f766572666c6f770000000000604482015290519081900360640190fd5b9392505050565b604080516001600160a01b038416602482015260448082018490528251808303909101815260649091019091526020810180517bffffffffffffffffffffffffffffffffffffffffffffffffffffffff167fa9059cbb00000000000000000000000000000000000000000000000000000000179052610ce2908490610dd6565b505050565b6000610c5b83836040518060400160405280601e81526020017f536166654d6174683a207375627472616374696f6e206f766572666c6f770000815250610e87565b6001600160a01b038116610d6e5760405162461bcd60e51b81526004018080602001828103825260268152602001806111066026913960400191505060405180910390fd5b600080546040516001600160a01b03808516939216917f8be0079c531659141344cd1fd0a4f28419497f9722a3daafe3b4186f6b6457e091a36000805473ffffffffffffffffffffffffffffffffffffffff19166001600160a01b0392909216919091179055565b6060610e2b826040518060400160405280602081526020017f5361666542455032303a206c6f772d6c6576656c2063616c6c206661696c6564815250856001600160a01b0316610f1e9092919063ffffffff16565b805190915015610ce257808060200190516020811015610e4a57600080fd5b5051610ce25760405162461bcd60e51b815260040180806020018281038252602a8152602001806110dc602a913960400191505060405180910390fd5b60008184841115610f165760405162461bcd60e51b81526004018080602001828103825283818151815260200191508051906020019080838360005b83811015610edb578181015183820152602001610ec3565b50505050905090810190601f168015610f085780820380516001836020036101000a031916815260200191505b509250505060405180910390fd5b505050900390565b6060610f2d8484600085610f35565b949350505050565b6060610f40856110a2565b610f91576040805162461bcd60e51b815260206004820152601d60248201527f416464726573733a2063616c6c20746f206e6f6e2d636f6e7472616374000000604482015290519081900360640190fd5b60006060866001600160a01b031685876040518082805190602001908083835b60208310610fd05780518252601f199092019160209182019101610fb1565b6001836020036101000a03801982511681845116808217855250505050505090500191505060006040518083038185875af1925050503d8060008114611032576040519150601f19603f3d011682016040523d82523d6000602084013e611037565b606091505b5091509150811561104b579150610f2d9050565b80511561105b5780518082602001fd5b60405162461bcd60e51b8152602060048201818152865160248401528651879391928392604401919085019080838360008315610edb578181015183820152602001610ec3565b6000813f7fc5d2460186f7233c927e7db2dcc703c0e500b653ca82273b7bfad8045d85a470818114801590610f2d57505015159291505056fe5361666542455032303a204245503230206f7065726174696f6e20646964206e6f7420737563636565644f776e61626c653a206e6577206f776e657220697320746865207a65726f2061646472657373a26469706673582212203884359d254c44dc1ba20c140f7754efcc5ad8a2ea8f39381eae87b26f7c2a2264736f6c634300060c0033",
  "immutableReferences": {},
  "source": "// SPDX-License-Identifier: MIT\r\npragma solidity ^0.6.12;\r\n\r\n// import \"../token/token/ERC20/SDBtoken.sol\";\r\nimport \"../token/token/SafeBEP20.sol\";\r\nimport \"../access/Ownable.sol\";\r\nimport \"../libraries/TransferHelper.sol\";\r\n\r\n\r\ncontract Vendor is Ownable {\r\nusing SafeMath for uint256;\r\nusing SafeBEP20 for IBEP20;\r\n\r\nbytes4 private constant SELECTOR = bytes4(keccak256(bytes('transfer(address,uint256)')));\r\n\r\n\r\nuint256 public tokenperUSD = 1;\r\nuint256 public totalAllocPoint = 0;\r\nuint256 public totalMoneyPoint = 0;\r\n\r\nstruct UserInfo{\r\n  uint256 amountUSD;\r\n  address user;\r\n}\r\naddress public sdbtoken;\r\naddress public usdtoken;\r\n\r\n\r\nstruct PoolInfo{\r\n  IBEP20 sdbtoken;//address sdb\r\n  uint256 sdbPoint;//how many sdb is here\r\n  IBEP20 usdtoken;//adress usd\r\n  uint256 usdPoint;//how many usd is here\r\n}\r\nPoolInfo[] public poolInfo;\r\n\r\nmapping(uint256 => mapping(address =>UserInfo)) public userInfo;\r\n\r\nevent Swap (address indexed user, uint256 indexed pid, uint256 amountUSD);\r\nevent Withdraw(address indexed user,uint256 indexed pid, uint256 amountSDB);\r\n\r\nconstructor(address _sdbtoken, address _usdtoken)public{\r\n  sdbtoken = _sdbtoken;\r\n  usdtoken = _usdtoken;\r\n}\r\n\r\n\r\nfunction add(IBEP20 _sdbtoken, uint256 _sdbPoint, IBEP20 _usdtoken)public onlyOwner{\r\n  totalAllocPoint = totalAllocPoint.add(_sdbPoint);\r\n  poolInfo.push(PoolInfo({\r\n  sdbtoken: _sdbtoken,\r\n  sdbPoint: 0,\r\n  usdtoken: _usdtoken,\r\n  usdPoint: 0\r\n}));\r\n}\r\n\r\nfunction set(uint256 _pid, uint256 _sdbPoint) public onlyOwner{\r\n  PoolInfo storage pool = poolInfo[_pid];\r\n  uint256 prevSDBPoint = poolInfo[_pid].sdbPoint;\r\n  pool.sdbtoken.safeTransferFrom(address(msg.sender), address(this), _sdbPoint);\r\n  poolInfo[_pid].sdbPoint = _sdbPoint;\r\n  \r\n  totalAllocPoint = totalAllocPoint.add(prevSDBPoint).add(_sdbPoint);\r\n  pool.sdbPoint.add(_sdbPoint);\r\n}\r\n\r\nfunction changeTokenPerUSD(uint256 newValue) public onlyOwner{\r\n  tokenperUSD = newValue;\r\n}\r\n\r\nfunction swapUSDforSDB(uint256 _pid, uint256 amountUSD) public {\r\n  PoolInfo storage pool = poolInfo[_pid];\r\n  UserInfo storage user = userInfo[_pid][msg.sender];\r\n  \r\n  pool.usdtoken.safeTransferFrom(address(msg.sender),address(this),amountUSD);\r\n  pool.usdPoint = poolInfo[_pid].usdPoint.add(amountUSD);\r\n  pool.usdPoint.add(amountUSD);\r\n  \r\n  uint amountSDB;\r\n  amountSDB = tokenperUSD * amountUSD;\r\n  pool.sdbtoken.safeTransfer( address(msg.sender),amountSDB);\r\n  pool.sdbPoint = poolInfo[_pid].sdbPoint.sub(amountSDB);  \r\n  totalMoneyPoint = totalMoneyPoint.add(amountUSD);\r\n  totalAllocPoint = totalAllocPoint.sub(amountSDB);\r\n  user.amountUSD.add(amountUSD);\r\n  emit Swap(msg.sender,_pid, amountUSD);\r\n}\r\n\r\n\r\nfunction safeSDBTransfer(address _from,address _to, uint256 _amount)internal{\r\n  TransferHelper.safeTransfer(_from,_to, _amount);\r\n}\r\n\r\nfunction withdraw(uint256 _pid, uint256 _amount)public onlyOwner{\r\n  \r\n  PoolInfo storage pool = poolInfo[_pid];\r\n\r\n  pool.usdtoken.safeTransfer(address(msg.sender), _amount );\r\n  pool.usdPoint = poolInfo[_pid].usdPoint.sub(_amount);\r\n  pool.usdPoint.add(_amount);\r\n  totalMoneyPoint = totalMoneyPoint.sub(_amount);\r\n    \r\n  emit Withdraw(msg.sender, _pid, _amount);\r\n}\r\n\r\nfunction returnSDB(uint256 _pid, uint256 _amountOut) public onlyOwner{\r\n  \r\n  PoolInfo storage pool = poolInfo[_pid];\r\n  pool.sdbtoken.safeTransfer(address(msg.sender), _amountOut);\r\n  pool.sdbPoint = poolInfo[_pid].sdbPoint.sub(_amountOut);  \r\n  totalAllocPoint = totalAllocPoint.sub(_amountOut);\r\n}\r\n}\r\n\r\n",
  "sourcePath": "C:/Users/kolam/Desktop/safeSDB/safedepositbox-smartcontracts/Newway/pancake-SDB/contracts/clearsale/Vendor.sol",
  "compiler": {
    "name": "solc",
    "version": "0.6.12+commit.27d51765.Emscripten.clang"
  },
  "schemaVersion": "3.4.1",
  "updatedAt": "2021-10-19T11:56:18.982Z",
  "networkType": "ethereum",
  "devdoc": {
    "kind": "dev",
    "methods": {
      "owner()": {
        "details": "Returns the address of the current owner."
      },
      "renounceOwnership()": {
        "details": "Leaves the contract without owner. It will not be possible to call `onlyOwner` functions anymore. Can only be called by the current owner. NOTE: Renouncing ownership will leave the contract without an owner, thereby removing any functionality that is only available to the owner."
      },
      "transferOwnership(address)": {
        "details": "Transfers ownership of the contract to a new account (`newOwner`). Can only be called by the current owner."
      }
    },
    "version": 1
  },
  "userdoc": {
    "kind": "user",
    "methods": {},
    "version": 1
  }
}